{
  "transactions": [
    {
      "hash": "0xd70c29872d0299a69474b95d20b0c9c2a4de7d95cfad02f2b42786e1201e8365",
      "transactionType": "CALL",
      "contractName": null,
      "contractAddress": "0x33F048ADeCbBD8608436eF31a09db8001149404B",
      "function": null,
      "arguments": null,
      "transaction": {
        "type": "0x02",
        "from": "0xdfcb98d66336084326bf69a0e55ed15c2ae24008",
        "to": "0x33f048adecbbd8608436ef31a09db8001149404b",
        "gas": "0x135d6",
        "value": "0x0",
        "data": "0x695c5bf500000000000000000000000000000000000000000000000000000000000000000000000000000000000000006bccf17873fe200962451e6824090b847db1aceb000000000000000000000000000000000000000000000000000000000000c350000000000000000000000000000000000000000000000000000000000000003c000000000000000000000000020694883742262e0b6b6601857412fe939b18b800000000000000000000000000000000000000df9b5718eb7230f12652764b4800000000000000000000000000000000000000000000000000000000000000e00000000000000000000000000000000000000000000000000000000000000000",
        "nonce": "0xb65",
        "accessList": []
      },
      "additionalContracts": [],
      "isFixedGasLimit": false
    },
    {
      "hash": "0x4382e6a4303623e6339b7353900fdf466a3d10cd5ec2dc9627c622727c4e8dff",
      "transactionType": "CALL",
      "contractName": null,
      "contractAddress": "0x6BCCF17873Fe200962451E6824090b847DB1ACEb",
      "function": "approve(address,uint256)",
      "arguments": [
        "0x49e9cC8160410a9D8Be588f2fC9F7642e4e6E995",
        "115792089237316195423570985008687907853269984665640564039457584007913129639935"
      ],
      "transaction": {
        "type": "0x02",
        "from": "0xdfcb98d66336084326bf69a0e55ed15c2ae24008",
        "to": "0x6bccf17873fe200962451e6824090b847db1aceb",
        "gas": "0x98fb",
        "value": "0x0",
        "data": "0x095ea7b300000000000000000000000049e9cc8160410a9d8be588f2fc9f7642e4e6e995ffffffffffffffffffffffffffffffffffffffffffffffffffffffffffffffff",
        "nonce": "0xb66",
        "accessList": []
      },
      "additionalContracts": [],
      "isFixedGasLimit": false
    },
    {
      "hash": "0xc32d2e127ebb3569852ab5f7f69e6a7fb8d03eafbfaf725be4d77cc9b2a3a98d",
      "transactionType": "CALL",
      "contractName": null,
      "contractAddress": "0x49e9cC8160410a9D8Be588f2fC9F7642e4e6E995",
      "function": "modifyLiquidity((address,address,uint24,int24,address),(int24,int24,int256),bytes)",
      "arguments": [
        "(0x0000000000000000000000000000000000000000, 0x6BCCF17873Fe200962451E6824090b847DB1ACEb, 50000, 60, 0x020694883742262E0b6b6601857412fE939b18B8)",
        "(108180, 108240, 100000000000000000000000)",
        "0x"
      ],
      "transaction": {
        "type": "0x02",
        "from": "0xdfcb98d66336084326bf69a0e55ed15c2ae24008",
        "to": "0x49e9cc8160410a9d8be588f2fc9f7642e4e6e995",
        "gas": "0x530bc",
        "value": "0xde0b6b3a7640000",
        "data": "0xbec999dd00000000000000000000000000000000000000000000000000000000000000000000000000000000000000006bccf17873fe200962451e6824090b847db1aceb000000000000000000000000000000000000000000000000000000000000c350000000000000000000000000000000000000000000000000000000000000003c000000000000000000000000020694883742262e0b6b6601857412fe939b18b8000000000000000000000000000000000000000000000000000000000001a694000000000000000000000000000000000000000000000000000000000001a6d000000000000000000000000000000000000000000000152d02c7e14af680000000000000000000000000000000000000000000000000000000000000000001200000000000000000000000000000000000000000000000000000000000000000",
        "nonce": "0xb67",
        "accessList": []
      },
      "additionalContracts": [],
      "isFixedGasLimit": false
    }
  ],
  "receipts": [
    {
      "transactionHash": "0xd70c29872d0299a69474b95d20b0c9c2a4de7d95cfad02f2b42786e1201e8365",
      "transactionIndex": "0x19",
      "blockHash": "0xff8569dd645045f04afeb55b09856d2b1bdc31cda533818cd6a6e28acab4db12",
      "blockNumber": "0x613f80",
      "from": "0xdfcb98d66336084326Bf69a0e55Ed15c2Ae24008",
      "to": "0x33F048ADeCbBD8608436eF31a09db8001149404B",
      "cumulativeGasUsed": "0x103335",
      "gasUsed": "0xd3db",
      "contractAddress": null,
      "logs": [
        {
          "address": "0x33F048ADeCbBD8608436eF31a09db8001149404B",
          "topics": [
            "0x3fd553db44f207b1f41348cfc4d251860814af9eadc470e8e7895e4d120511f4",
            "0x82a3ed35e5de41661db256afc67bd825de9c478e545957520e6559a5107c6000",
            "0x0000000000000000000000000000000000000000000000000000000000000000",
            "0x0000000000000000000000006bccf17873fe200962451e6824090b847db1aceb"
          ],
          "data": "0x000000000000000000000000000000000000000000000000000000000000c350000000000000000000000000000000000000000000000000000000000000003c000000000000000000000000020694883742262e0b6b6601857412fe939b18b8",
          "blockHash": "0xff8569dd645045f04afeb55b09856d2b1bdc31cda533818cd6a6e28acab4db12",
          "blockNumber": "0x613f80",
          "transactionHash": "0xd70c29872d0299a69474b95d20b0c9c2a4de7d95cfad02f2b42786e1201e8365",
          "transactionIndex": "0x19",
          "logIndex": "0x15",
          "removed": false
        }
      ],
      "status": "0x1",
      "logsBloom": "0x00000000000000000000000000000000000000000000000000000000000000000008000000000000000000000000000000000000000000000000000000000000000000000000000000002000000020000000000000000000000000000008000000000080020000000000000000000800000000000000000000000000000000000000000400000000000000000000000000000000000200200000000000000000000000000000000000000000000000000000000000000000000000000000000000000000000000000000000000000000000000000000000000000000000020040000000000000000000000000004010000000000000002000000000000000000",
      "type": "0x2",
      "effectiveGasPrice": "0xab77da879"
    },
    {
      "transactionHash": "0x4382e6a4303623e6339b7353900fdf466a3d10cd5ec2dc9627c622727c4e8dff",
      "transactionIndex": "0x1a",
      "blockHash": "0xff8569dd645045f04afeb55b09856d2b1bdc31cda533818cd6a6e28acab4db12",
      "blockNumber": "0x613f80",
      "from": "0xdfcb98d66336084326Bf69a0e55Ed15c2Ae24008",
      "to": "0x6BCCF17873Fe200962451E6824090b847DB1ACEb",
      "cumulativeGasUsed": "0x109bd0",
      "gasUsed": "0x689b",
      "contractAddress": null,
      "logs": [
        {
          "address": "0x6BCCF17873Fe200962451E6824090b847DB1ACEb",
          "topics": [
            "0x8c5be1e5ebec7d5bd14f71427d1e84f3dd0314c0f7b2291e5b200ac8c7c3b925",
            "0x000000000000000000000000dfcb98d66336084326bf69a0e55ed15c2ae24008",
            "0x00000000000000000000000049e9cc8160410a9d8be588f2fc9f7642e4e6e995"
          ],
          "data": "0xffffffffffffffffffffffffffffffffffffffffffffffffffffffffffffffff",
          "blockHash": "0xff8569dd645045f04afeb55b09856d2b1bdc31cda533818cd6a6e28acab4db12",
          "blockNumber": "0x613f80",
          "transactionHash": "0x4382e6a4303623e6339b7353900fdf466a3d10cd5ec2dc9627c622727c4e8dff",
          "transactionIndex": "0x1a",
          "logIndex": "0x16",
          "removed": false
        }
      ],
      "status": "0x1",
      "logsBloom": "0x00000000000000000000000000000000000000010000000000000000800000000000000000000000000004000000000000000000000000000000000000200000000000000000000000000000000000000000000001000020000000000000000000000000000000000000000000000000000000000000000000000000000000000000000000000000000000000000000040000000000000000000000000000000020000000000000000040000000000000000000000000000000000000000000000000100000000000000000000000000000000000000000001000000000000000010000000000000000000000000000000000000000000000000000000000000",
      "type": "0x2",
      "effectiveGasPrice": "0xab77da879"
    },
    {
      "transactionHash": "0xc32d2e127ebb3569852ab5f7f69e6a7fb8d03eafbfaf725be4d77cc9b2a3a98d",
      "transactionIndex": "0x1b",
      "blockHash": "0xff8569dd645045f04afeb55b09856d2b1bdc31cda533818cd6a6e28acab4db12",
      "blockNumber": "0x613f80",
      "from": "0xdfcb98d66336084326Bf69a0e55Ed15c2Ae24008",
      "to": "0x49e9cC8160410a9D8Be588f2fC9F7642e4e6E995",
      "cumulativeGasUsed": "0x14285a",
      "gasUsed": "0x38c8a",
      "contractAddress": null,
      "logs": [
        {
          "address": "0x33F048ADeCbBD8608436eF31a09db8001149404B",
          "topics": [
            "0x541c041c2cce48e614b3de043c9280f06b6164c0a1741649e2de3c3d375f7974",
            "0x82a3ed35e5de41661db256afc67bd825de9c478e545957520e6559a5107c6000",
            "0x00000000000000000000000049e9cc8160410a9d8be588f2fc9f7642e4e6e995"
          ],
          "data": "0x000000000000000000000000000000000000000000000000000000000001a694000000000000000000000000000000000000000000000000000000000001a6d000000000000000000000000000000000000000000000152d02c7e14af6800000",
          "blockHash": "0xff8569dd645045f04afeb55b09856d2b1bdc31cda533818cd6a6e28acab4db12",
          "blockNumber": "0x613f80",
          "transactionHash": "0xc32d2e127ebb3569852ab5f7f69e6a7fb8d03eafbfaf725be4d77cc9b2a3a98d",
          "transactionIndex": "0x1b",
          "logIndex": "0x17",
          "removed": false
        },
        {
          "address": "0x6BCCF17873Fe200962451E6824090b847DB1ACEb",
          "topics": [
            "0xddf252ad1be2c89b69c2b068fc378daa952ba7f163c4a11628f55a4df523b3ef",
            "0x000000000000000000000000dfcb98d66336084326bf69a0e55ed15c2ae24008",
            "0x00000000000000000000000033f048adecbbd8608436ef31a09db8001149404b"
          ],
          "data": "0x00000000000000000000000000000000000000000000057ccac3c99752ecc6bb",
          "blockHash": "0xff8569dd645045f04afeb55b09856d2b1bdc31cda533818cd6a6e28acab4db12",
          "blockNumber": "0x613f80",
          "transactionHash": "0xc32d2e127ebb3569852ab5f7f69e6a7fb8d03eafbfaf725be4d77cc9b2a3a98d",
          "transactionIndex": "0x1b",
          "logIndex": "0x18",
          "removed": false
        }
      ],
      "status": "0x1",
      "logsBloom": "0x00000000100000000000000000000000000000010000000000000000800000000008000000000000000004000000000000000000000000000000000000000000000000000000000000002008000000000000000001000020000000000000000010000080000000000000000000000000000000000000000000000010000000000000000400000000000000000000000042000000000200000000000000000000000000000000000000040000000000000000000000000000000000000000000000000102002000000000000000000000000000000000000001000000000000000080000000000000040000000000010000000000000000000000000000000000",
      "type": "0x2",
      "effectiveGasPrice": "0xab77da879"
    }
  ],
  "libraries": [],
  "pending": [],
  "returns": {},
  "timestamp": 1721909406,
  "chain": 11155111,
  "commit": "75c0424"
}