{
  "transactions": [
    {
      "hash": "0x9f022e1495e0c1ff1518515b24725f11c6f728151bd90e36af423d95ca3bca7e",
      "transactionType": "CALL",
      "contractName": null,
      "contractAddress": "0x33F048ADeCbBD8608436eF31a09db8001149404B",
      "function": null,
      "arguments": null,
      "transaction": {
        "type": "0x02",
        "from": "0xdfcb98d66336084326bf69a0e55ed15c2ae24008",
        "to": "0x33f048adecbbd8608436ef31a09db8001149404b",
        "gas": "0x135d6",
        "value": "0x0",
        "data": "0x695c5bf500000000000000000000000000000000000000000000000000000000000000000000000000000000000000006bccf17873fe200962451e6824090b847db1aceb000000000000000000000000000000000000000000000000000000000000c350000000000000000000000000000000000000000000000000000000000000003c000000000000000000000000020af7b8a609cfd0ef33e5f6e103403f344381f400000000000000000000000000000000000000df9b5718eb7230f12652764b4800000000000000000000000000000000000000000000000000000000000000e00000000000000000000000000000000000000000000000000000000000000000",
        "nonce": "0xb72",
        "accessList": []
      },
      "additionalContracts": [],
      "isFixedGasLimit": false
    },
    {
      "hash": "0xfb632fe32187d15d56bc69dd34a4e713827c1409bd386b3d577a8b794be91a8e",
      "transactionType": "CALL",
      "contractName": null,
      "contractAddress": "0x6BCCF17873Fe200962451E6824090b847DB1ACEb",
      "function": "approve(address,uint256)",
      "arguments": [
        "0x49e9cC8160410a9D8Be588f2fC9F7642e4e6E995",
        "115792089237316195423570985008687907853269984665640564039457584007913129639935"
      ],
      "transaction": {
        "type": "0x02",
        "from": "0xdfcb98d66336084326bf69a0e55ed15c2ae24008",
        "to": "0x6bccf17873fe200962451e6824090b847db1aceb",
        "gas": "0x98fb",
        "value": "0x0",
        "data": "0x095ea7b300000000000000000000000049e9cc8160410a9d8be588f2fc9f7642e4e6e995ffffffffffffffffffffffffffffffffffffffffffffffffffffffffffffffff",
        "nonce": "0xb73",
        "accessList": []
      },
      "additionalContracts": [],
      "isFixedGasLimit": false
    },
    {
      "hash": "0xb05f0c51678f9ed57c6ccb993ee3b77f2830771bfcd59e99bf3ab4a03fb109f9",
      "transactionType": "CALL",
      "contractName": null,
      "contractAddress": "0x49e9cC8160410a9D8Be588f2fC9F7642e4e6E995",
      "function": "modifyLiquidity((address,address,uint24,int24,address),(int24,int24,int256),bytes)",
      "arguments": [
        "(0x0000000000000000000000000000000000000000, 0x6BCCF17873Fe200962451E6824090b847DB1ACEb, 50000, 60, 0x020aF7B8A609CFD0Ef33E5F6E103403F344381F4)",
        "(108180, 108240, 100000000000000000000000)",
        "0x"
      ],
      "transaction": {
        "type": "0x02",
        "from": "0xdfcb98d66336084326bf69a0e55ed15c2ae24008",
        "to": "0x49e9cc8160410a9d8be588f2fc9f7642e4e6e995",
        "gas": "0x530bc",
        "value": "0xde0b6b3a7640000",
        "data": "0xbec999dd00000000000000000000000000000000000000000000000000000000000000000000000000000000000000006bccf17873fe200962451e6824090b847db1aceb000000000000000000000000000000000000000000000000000000000000c350000000000000000000000000000000000000000000000000000000000000003c000000000000000000000000020af7b8a609cfd0ef33e5f6e103403f344381f4000000000000000000000000000000000000000000000000000000000001a694000000000000000000000000000000000000000000000000000000000001a6d000000000000000000000000000000000000000000000152d02c7e14af680000000000000000000000000000000000000000000000000000000000000000001200000000000000000000000000000000000000000000000000000000000000000",
        "nonce": "0xb74",
        "accessList": []
      },
      "additionalContracts": [],
      "isFixedGasLimit": false
    }
  ],
  "receipts": [
    {
      "transactionHash": "0x9f022e1495e0c1ff1518515b24725f11c6f728151bd90e36af423d95ca3bca7e",
      "transactionIndex": "0x1e",
      "blockHash": "0x147699a9b37cd8475d20616dd9a24b387a1beba083e2c2181bf379001ce177a4",
      "blockNumber": "0x6140db",
      "from": "0xdfcb98d66336084326Bf69a0e55Ed15c2Ae24008",
      "to": "0x33F048ADeCbBD8608436eF31a09db8001149404B",
      "cumulativeGasUsed": "0x10dce7",
      "gasUsed": "0xd3db",
      "contractAddress": null,
      "logs": [
        {
          "address": "0x33F048ADeCbBD8608436eF31a09db8001149404B",
          "topics": [
            "0x3fd553db44f207b1f41348cfc4d251860814af9eadc470e8e7895e4d120511f4",
            "0x9da1104c2235f43bf9599ce564559fc1ba0a68b7a061ef825570fb81449453a8",
            "0x0000000000000000000000000000000000000000000000000000000000000000",
            "0x0000000000000000000000006bccf17873fe200962451e6824090b847db1aceb"
          ],
          "data": "0x000000000000000000000000000000000000000000000000000000000000c350000000000000000000000000000000000000000000000000000000000000003c000000000000000000000000020af7b8a609cfd0ef33e5f6e103403f344381f4",
          "blockHash": "0x147699a9b37cd8475d20616dd9a24b387a1beba083e2c2181bf379001ce177a4",
          "blockNumber": "0x6140db",
          "transactionHash": "0x9f022e1495e0c1ff1518515b24725f11c6f728151bd90e36af423d95ca3bca7e",
          "transactionIndex": "0x1e",
          "logIndex": "0x5",
          "removed": false
        }
      ],
      "status": "0x1",
      "logsBloom": "0x00000000000000000000000000000000000000000000000000000000000800000000000000000400000000000000000000000000000000000000000000000000000000000000000000000000000020000000000000000000000000000008000000000080020000000000000000000800000000000000000000000000000000000000000400000000000000000080000000000000000200200000000000000000000000000000000000000000000000000000000000000000000000000000000000000000000000000000000000000000000000000000000000000000000020040000000000000000000000000004000000000000000002000000000000000000",
      "type": "0x2",
      "effectiveGasPrice": "0x841eb23cb"
    },
    {
      "transactionHash": "0xfb632fe32187d15d56bc69dd34a4e713827c1409bd386b3d577a8b794be91a8e",
      "transactionIndex": "0x1f",
      "blockHash": "0x147699a9b37cd8475d20616dd9a24b387a1beba083e2c2181bf379001ce177a4",
      "blockNumber": "0x6140db",
      "from": "0xdfcb98d66336084326Bf69a0e55Ed15c2Ae24008",
      "to": "0x6BCCF17873Fe200962451E6824090b847DB1ACEb",
      "cumulativeGasUsed": "0x114582",
      "gasUsed": "0x689b",
      "contractAddress": null,
      "logs": [
        {
          "address": "0x6BCCF17873Fe200962451E6824090b847DB1ACEb",
          "topics": [
            "0x8c5be1e5ebec7d5bd14f71427d1e84f3dd0314c0f7b2291e5b200ac8c7c3b925",
            "0x000000000000000000000000dfcb98d66336084326bf69a0e55ed15c2ae24008",
            "0x00000000000000000000000049e9cc8160410a9d8be588f2fc9f7642e4e6e995"
          ],
          "data": "0xffffffffffffffffffffffffffffffffffffffffffffffffffffffffffffffff",
          "blockHash": "0x147699a9b37cd8475d20616dd9a24b387a1beba083e2c2181bf379001ce177a4",
          "blockNumber": "0x6140db",
          "transactionHash": "0xfb632fe32187d15d56bc69dd34a4e713827c1409bd386b3d577a8b794be91a8e",
          "transactionIndex": "0x1f",
          "logIndex": "0x6",
          "removed": false
        }
      ],
      "status": "0x1",
      "logsBloom": "0x00000000000000000000000000000000000000010000000000000000800000000000000000000000000004000000000000000000000000000000000000200000000000000000000000000000000000000000000001000020000000000000000000000000000000000000000000000000000000000000000000000000000000000000000000000000000000000000000040000000000000000000000000000000020000000000000000040000000000000000000000000000000000000000000000000100000000000000000000000000000000000000000001000000000000000010000000000000000000000000000000000000000000000000000000000000",
      "type": "0x2",
      "effectiveGasPrice": "0x841eb23cb"
    },
    {
      "transactionHash": "0xb05f0c51678f9ed57c6ccb993ee3b77f2830771bfcd59e99bf3ab4a03fb109f9",
      "transactionIndex": "0x20",
      "blockHash": "0x147699a9b37cd8475d20616dd9a24b387a1beba083e2c2181bf379001ce177a4",
      "blockNumber": "0x6140db",
      "from": "0xdfcb98d66336084326Bf69a0e55Ed15c2Ae24008",
      "to": "0x49e9cC8160410a9D8Be588f2fC9F7642e4e6E995",
      "cumulativeGasUsed": "0x14d20c",
      "gasUsed": "0x38c8a",
      "contractAddress": null,
      "logs": [
        {
          "address": "0x33F048ADeCbBD8608436eF31a09db8001149404B",
          "topics": [
            "0x541c041c2cce48e614b3de043c9280f06b6164c0a1741649e2de3c3d375f7974",
            "0x9da1104c2235f43bf9599ce564559fc1ba0a68b7a061ef825570fb81449453a8",
            "0x00000000000000000000000049e9cc8160410a9d8be588f2fc9f7642e4e6e995"
          ],
          "data": "0x000000000000000000000000000000000000000000000000000000000001a694000000000000000000000000000000000000000000000000000000000001a6d000000000000000000000000000000000000000000000152d02c7e14af6800000",
          "blockHash": "0x147699a9b37cd8475d20616dd9a24b387a1beba083e2c2181bf379001ce177a4",
          "blockNumber": "0x6140db",
          "transactionHash": "0xb05f0c51678f9ed57c6ccb993ee3b77f2830771bfcd59e99bf3ab4a03fb109f9",
          "transactionIndex": "0x20",
          "logIndex": "0x7",
          "removed": false
        },
        {
          "address": "0x6BCCF17873Fe200962451E6824090b847DB1ACEb",
          "topics": [
            "0xddf252ad1be2c89b69c2b068fc378daa952ba7f163c4a11628f55a4df523b3ef",
            "0x000000000000000000000000dfcb98d66336084326bf69a0e55ed15c2ae24008",
            "0x00000000000000000000000033f048adecbbd8608436ef31a09db8001149404b"
          ],
          "data": "0x00000000000000000000000000000000000000000000057ccac3c99752ecc6bb",
          "blockHash": "0x147699a9b37cd8475d20616dd9a24b387a1beba083e2c2181bf379001ce177a4",
          "blockNumber": "0x6140db",
          "transactionHash": "0xb05f0c51678f9ed57c6ccb993ee3b77f2830771bfcd59e99bf3ab4a03fb109f9",
          "transactionIndex": "0x20",
          "logIndex": "0x8",
          "removed": false
        }
      ],
      "status": "0x1",
      "logsBloom": "0x00000000100000000000000000000000000000010000000000000000800800000000000000000400000004000000000000000000000000000000000000000000000000000000000000000008000000000000000001000020000000000000000010000080000000000000000000000000000000000000000000000010000000000000000400000000000000000080000042000000000200000000000000000000000000000000000000040000000000000000000000000000000000000000000000000102002000000000000000000000000000000000000001000000000000000080000000000000040000000000000000000000000000000000000000000000",
      "type": "0x2",
      "effectiveGasPrice": "0x841eb23cb"
    }
  ],
  "libraries": [],
  "pending": [],
  "returns": {},
  "timestamp": 1721914672,
  "chain": 11155111,
  "commit": "75c0424"
}