{
  "transactions": [
    {
      "hash": "0x934447afad9a0176d313c38d6777dd1cca18de6cd08591a993e76cb9b648b68c",
      "transactionType": "CALL",
      "contractName": null,
      "contractAddress": "0x33F048ADeCbBD8608436eF31a09db8001149404B",
      "function": null,
      "arguments": null,
      "transaction": {
        "type": "0x02",
        "from": "0xdfcb98d66336084326bf69a0e55ed15c2ae24008",
        "to": "0x33f048adecbbd8608436ef31a09db8001149404b",
        "gas": "0x1248e",
        "value": "0x0",
        "data": "0x695c5bf500000000000000000000000000000000000000000000000000000000000000000000000000000000000000006bccf17873fe200962451e6824090b847db1aceb000000000000000000000000000000000000000000000000000000000000c350000000000000000000000000000000000000000000000000000000000000003c000000000000000000000000020c5318be80a8efae13ae50c727adc2fb00b22000000000000000000000000000000000000000df9b5718eb7230f12652764b4800000000000000000000000000000000000000000000000000000000000000e00000000000000000000000000000000000000000000000000000000000000000",
        "nonce": "0xb82",
        "accessList": []
      },
      "additionalContracts": [],
      "isFixedGasLimit": false
    },
    {
      "hash": "0xcb19b11b2c6ff087fde4ddf49c340b94db5a7e3c24af89c94643ce1dea8aca40",
      "transactionType": "CALL",
      "contractName": null,
      "contractAddress": "0x6BCCF17873Fe200962451E6824090b847DB1ACEb",
      "function": "approve(address,uint256)",
      "arguments": [
        "0x49e9cC8160410a9D8Be588f2fC9F7642e4e6E995",
        "115792089237316195423570985008687907853269984665640564039457584007913129639935"
      ],
      "transaction": {
        "type": "0x02",
        "from": "0xdfcb98d66336084326bf69a0e55ed15c2ae24008",
        "to": "0x6bccf17873fe200962451e6824090b847db1aceb",
        "gas": "0x98fb",
        "value": "0x0",
        "data": "0x095ea7b300000000000000000000000049e9cc8160410a9d8be588f2fc9f7642e4e6e995ffffffffffffffffffffffffffffffffffffffffffffffffffffffffffffffff",
        "nonce": "0xb83",
        "accessList": []
      },
      "additionalContracts": [],
      "isFixedGasLimit": false
    },
    {
      "hash": "0xed75910840276641d896a0bde31de6bdb57a8626af47fbfe74579500c28944aa",
      "transactionType": "CALL",
      "contractName": null,
      "contractAddress": "0x49e9cC8160410a9D8Be588f2fC9F7642e4e6E995",
      "function": "modifyLiquidity((address,address,uint24,int24,address),(int24,int24,int256),bytes)",
      "arguments": [
        "(0x0000000000000000000000000000000000000000, 0x6BCCF17873Fe200962451E6824090b847DB1ACEb, 50000, 60, 0x020c5318be80A8efAe13aE50C727ADc2FB00b220)",
        "(108180, 108240, 10000000000000000000000)",
        "0x"
      ],
      "transaction": {
        "type": "0x02",
        "from": "0xdfcb98d66336084326bf69a0e55ed15c2ae24008",
        "to": "0x49e9cc8160410a9d8be588f2fc9f7642e4e6e995",
        "gas": "0x4e6d9",
        "value": "0x16345785d8a0000",
        "data": "0xbec999dd00000000000000000000000000000000000000000000000000000000000000000000000000000000000000006bccf17873fe200962451e6824090b847db1aceb000000000000000000000000000000000000000000000000000000000000c350000000000000000000000000000000000000000000000000000000000000003c000000000000000000000000020c5318be80a8efae13ae50c727adc2fb00b220000000000000000000000000000000000000000000000000000000000001a694000000000000000000000000000000000000000000000000000000000001a6d000000000000000000000000000000000000000000000021e19e0c9bab240000000000000000000000000000000000000000000000000000000000000000001200000000000000000000000000000000000000000000000000000000000000000",
        "nonce": "0xb84",
        "accessList": []
      },
      "additionalContracts": [],
      "isFixedGasLimit": false
    }
  ],
  "receipts": [
    {
      "transactionHash": "0x934447afad9a0176d313c38d6777dd1cca18de6cd08591a993e76cb9b648b68c",
      "transactionIndex": "0x5",
      "blockHash": "0x8ce3cd41e676f41e44ba079dffa1a34aaf47571714e271a57dc32432655c1bfc",
      "blockNumber": "0x6141f2",
      "from": "0xdfcb98d66336084326Bf69a0e55Ed15c2Ae24008",
      "to": "0x33F048ADeCbBD8608436eF31a09db8001149404B",
      "cumulativeGasUsed": "0x62b47",
      "gasUsed": "0xd3cf",
      "contractAddress": null,
      "logs": [
        {
          "address": "0x33F048ADeCbBD8608436eF31a09db8001149404B",
          "topics": [
            "0x3fd553db44f207b1f41348cfc4d251860814af9eadc470e8e7895e4d120511f4",
            "0xef66eee2258052ed599c355c306ce212cc5a2ad3f0202b9050af4ef0cc805cb3",
            "0x0000000000000000000000000000000000000000000000000000000000000000",
            "0x0000000000000000000000006bccf17873fe200962451e6824090b847db1aceb"
          ],
          "data": "0x000000000000000000000000000000000000000000000000000000000000c350000000000000000000000000000000000000000000000000000000000000003c000000000000000000000000020c5318be80a8efae13ae50c727adc2fb00b220",
          "blockHash": "0x8ce3cd41e676f41e44ba079dffa1a34aaf47571714e271a57dc32432655c1bfc",
          "blockNumber": "0x6141f2",
          "transactionHash": "0x934447afad9a0176d313c38d6777dd1cca18de6cd08591a993e76cb9b648b68c",
          "transactionIndex": "0x5",
          "logIndex": "0x2",
          "removed": false
        }
      ],
      "status": "0x1",
      "logsBloom": "0x00000000000000000000000000000000000000000000000000000000000000000000000000000000000000000000000000000000000000000000000000000000000000000000000000000000000020000000002000000000000000000008000000000080020000000000000000000800000000000000000000000000000000000000000400000000000000000000000000000000000200200000000000000080000000000000000000000000000000000000000000000000000000000000000000000000000000000000000000000000000000000004000000000000000020040000000000000000000000000004000000000000000002000000000000000000",
      "type": "0x2",
      "effectiveGasPrice": "0xc63afe5fd"
    },
    {
      "transactionHash": "0xcb19b11b2c6ff087fde4ddf49c340b94db5a7e3c24af89c94643ce1dea8aca40",
      "transactionIndex": "0x6",
      "blockHash": "0x8ce3cd41e676f41e44ba079dffa1a34aaf47571714e271a57dc32432655c1bfc",
      "blockNumber": "0x6141f2",
      "from": "0xdfcb98d66336084326Bf69a0e55Ed15c2Ae24008",
      "to": "0x6BCCF17873Fe200962451E6824090b847DB1ACEb",
      "cumulativeGasUsed": "0x693e2",
      "gasUsed": "0x689b",
      "contractAddress": null,
      "logs": [
        {
          "address": "0x6BCCF17873Fe200962451E6824090b847DB1ACEb",
          "topics": [
            "0x8c5be1e5ebec7d5bd14f71427d1e84f3dd0314c0f7b2291e5b200ac8c7c3b925",
            "0x000000000000000000000000dfcb98d66336084326bf69a0e55ed15c2ae24008",
            "0x00000000000000000000000049e9cc8160410a9d8be588f2fc9f7642e4e6e995"
          ],
          "data": "0xffffffffffffffffffffffffffffffffffffffffffffffffffffffffffffffff",
          "blockHash": "0x8ce3cd41e676f41e44ba079dffa1a34aaf47571714e271a57dc32432655c1bfc",
          "blockNumber": "0x6141f2",
          "transactionHash": "0xcb19b11b2c6ff087fde4ddf49c340b94db5a7e3c24af89c94643ce1dea8aca40",
          "transactionIndex": "0x6",
          "logIndex": "0x3",
          "removed": false
        }
      ],
      "status": "0x1",
      "logsBloom": "0x00000000000000000000000000000000000000010000000000000000800000000000000000000000000004000000000000000000000000000000000000200000000000000000000000000000000000000000000001000020000000000000000000000000000000000000000000000000000000000000000000000000000000000000000000000000000000000000000040000000000000000000000000000000020000000000000000040000000000000000000000000000000000000000000000000100000000000000000000000000000000000000000001000000000000000010000000000000000000000000000000000000000000000000000000000000",
      "type": "0x2",
      "effectiveGasPrice": "0xc63afe5fd"
    },
    {
      "transactionHash": "0xed75910840276641d896a0bde31de6bdb57a8626af47fbfe74579500c28944aa",
      "transactionIndex": "0x7",
      "blockHash": "0x8ce3cd41e676f41e44ba079dffa1a34aaf47571714e271a57dc32432655c1bfc",
      "blockNumber": "0x6141f2",
      "from": "0xdfcb98d66336084326Bf69a0e55Ed15c2Ae24008",
      "to": "0x49e9cC8160410a9D8Be588f2fC9F7642e4e6E995",
      "cumulativeGasUsed": "0xa2060",
      "gasUsed": "0x38c7e",
      "contractAddress": null,
      "logs": [
        {
          "address": "0x33F048ADeCbBD8608436eF31a09db8001149404B",
          "topics": [
            "0x541c041c2cce48e614b3de043c9280f06b6164c0a1741649e2de3c3d375f7974",
            "0xef66eee2258052ed599c355c306ce212cc5a2ad3f0202b9050af4ef0cc805cb3",
            "0x00000000000000000000000049e9cc8160410a9d8be588f2fc9f7642e4e6e995"
          ],
          "data": "0x000000000000000000000000000000000000000000000000000000000001a694000000000000000000000000000000000000000000000000000000000001a6d000000000000000000000000000000000000000000000021e19e0c9bab2400000",
          "blockHash": "0x8ce3cd41e676f41e44ba079dffa1a34aaf47571714e271a57dc32432655c1bfc",
          "blockNumber": "0x6141f2",
          "transactionHash": "0xed75910840276641d896a0bde31de6bdb57a8626af47fbfe74579500c28944aa",
          "transactionIndex": "0x7",
          "logIndex": "0x4",
          "removed": false
        },
        {
          "address": "0x6BCCF17873Fe200962451E6824090b847DB1ACEb",
          "topics": [
            "0xddf252ad1be2c89b69c2b068fc378daa952ba7f163c4a11628f55a4df523b3ef",
            "0x000000000000000000000000dfcb98d66336084326bf69a0e55ed15c2ae24008",
            "0x00000000000000000000000033f048adecbbd8608436ef31a09db8001149404b"
          ],
          "data": "0x00000000000000000000000000000000000000000000008c7aad2dc25517ad7a",
          "blockHash": "0x8ce3cd41e676f41e44ba079dffa1a34aaf47571714e271a57dc32432655c1bfc",
          "blockNumber": "0x6141f2",
          "transactionHash": "0xed75910840276641d896a0bde31de6bdb57a8626af47fbfe74579500c28944aa",
          "transactionIndex": "0x7",
          "logIndex": "0x5",
          "removed": false
        }
      ],
      "status": "0x1",
      "logsBloom": "0x00000000100000000000000000000000000000010000000000000000800000000000000000000000000004000000000000000000000000000000000000000000000000000000000000000008000000000000002001000020000000000000000010000080000000000000000000000000000000000000000000000010000000000000000400000000000000000000000042000000000200000000000000000080000000000000000000040000000000000000000000000000000000000000000000000102002000000000000000000000000000000004000001000000000000000080000000000000040000000000000000000000000000000000000000000000",
      "type": "0x2",
      "effectiveGasPrice": "0xc63afe5fd"
    }
  ],
  "libraries": [],
  "pending": [],
  "returns": {},
  "timestamp": 1721918980,
  "chain": 11155111,
  "commit": "08600c2"
}