{
  "transactions": [
    {
      "hash": "0x89f0e30faf4b7f4ced0e6bf9f8791041755ea6b6fc5804d859b52aaf5f2faf5a",
      "transactionType": "CALL",
      "contractName": null,
      "contractAddress": "0x33F048ADeCbBD8608436eF31a09db8001149404B",
      "function": null,
      "arguments": null,
      "transaction": {
        "type": "0x02",
        "from": "0xdfcb98d66336084326bf69a0e55ed15c2ae24008",
        "to": "0x33f048adecbbd8608436ef31a09db8001149404b",
        "gas": "0x135d6",
        "value": "0x0",
        "data": "0x695c5bf500000000000000000000000000000000000000000000000000000000000000000000000000000000000000006bccf17873fe200962451e6824090b847db1aceb000000000000000000000000000000000000000000000000000000000000c350000000000000000000000000000000000000000000000000000000000000003c000000000000000000000000020e690a276159b07e0d5d8a31b881aefb6e287400000000000000000000000000000000000000df9b5718eb7230f12652764b4800000000000000000000000000000000000000000000000000000000000000e00000000000000000000000000000000000000000000000000000000000000000",
        "nonce": "0xb6e",
        "accessList": []
      },
      "additionalContracts": [],
      "isFixedGasLimit": false
    },
    {
      "hash": "0x42fc57008b7157dc73f0716414a75df89013ed1460b2e44afb3cd8d0ca837210",
      "transactionType": "CALL",
      "contractName": null,
      "contractAddress": "0x6BCCF17873Fe200962451E6824090b847DB1ACEb",
      "function": "approve(address,uint256)",
      "arguments": [
        "0x49e9cC8160410a9D8Be588f2fC9F7642e4e6E995",
        "115792089237316195423570985008687907853269984665640564039457584007913129639935"
      ],
      "transaction": {
        "type": "0x02",
        "from": "0xdfcb98d66336084326bf69a0e55ed15c2ae24008",
        "to": "0x6bccf17873fe200962451e6824090b847db1aceb",
        "gas": "0x98fb",
        "value": "0x0",
        "data": "0x095ea7b300000000000000000000000049e9cc8160410a9d8be588f2fc9f7642e4e6e995ffffffffffffffffffffffffffffffffffffffffffffffffffffffffffffffff",
        "nonce": "0xb6f",
        "accessList": []
      },
      "additionalContracts": [],
      "isFixedGasLimit": false
    },
    {
      "hash": "0x80f58f22fe71e8472547a947a64b915433bda7fcb7f9346551b54799c4b3d609",
      "transactionType": "CALL",
      "contractName": null,
      "contractAddress": "0x49e9cC8160410a9D8Be588f2fC9F7642e4e6E995",
      "function": "modifyLiquidity((address,address,uint24,int24,address),(int24,int24,int256),bytes)",
      "arguments": [
        "(0x0000000000000000000000000000000000000000, 0x6BCCF17873Fe200962451E6824090b847DB1ACEb, 50000, 60, 0x020e690a276159B07e0D5D8a31B881aEFb6E2874)",
        "(108180, 108240, 100000000000000000000000)",
        "0x"
      ],
      "transaction": {
        "type": "0x02",
        "from": "0xdfcb98d66336084326bf69a0e55ed15c2ae24008",
        "to": "0x49e9cc8160410a9d8be588f2fc9f7642e4e6e995",
        "gas": "0x530bc",
        "value": "0xde0b6b3a7640000",
        "data": "0xbec999dd00000000000000000000000000000000000000000000000000000000000000000000000000000000000000006bccf17873fe200962451e6824090b847db1aceb000000000000000000000000000000000000000000000000000000000000c350000000000000000000000000000000000000000000000000000000000000003c000000000000000000000000020e690a276159b07e0d5d8a31b881aefb6e2874000000000000000000000000000000000000000000000000000000000001a694000000000000000000000000000000000000000000000000000000000001a6d000000000000000000000000000000000000000000000152d02c7e14af680000000000000000000000000000000000000000000000000000000000000000001200000000000000000000000000000000000000000000000000000000000000000",
        "nonce": "0xb70",
        "accessList": []
      },
      "additionalContracts": [],
      "isFixedGasLimit": false
    }
  ],
  "receipts": [
    {
      "transactionHash": "0x89f0e30faf4b7f4ced0e6bf9f8791041755ea6b6fc5804d859b52aaf5f2faf5a",
      "transactionIndex": "0x2b",
      "blockHash": "0xe449144fe8f4d30913585fa403e0ec8e35f2b7fcee05d70f7f130c73e5280601",
      "blockNumber": "0x6140c9",
      "from": "0xdfcb98d66336084326Bf69a0e55Ed15c2Ae24008",
      "to": "0x33F048ADeCbBD8608436eF31a09db8001149404B",
      "cumulativeGasUsed": "0x1b85f6",
      "gasUsed": "0xd3db",
      "contractAddress": null,
      "logs": [
        {
          "address": "0x33F048ADeCbBD8608436eF31a09db8001149404B",
          "topics": [
            "0x3fd553db44f207b1f41348cfc4d251860814af9eadc470e8e7895e4d120511f4",
            "0xcfe348ef330965a777cd808b32a95492d5bb2345c72531928818f9b6cb9c233d",
            "0x0000000000000000000000000000000000000000000000000000000000000000",
            "0x0000000000000000000000006bccf17873fe200962451e6824090b847db1aceb"
          ],
          "data": "0x000000000000000000000000000000000000000000000000000000000000c350000000000000000000000000000000000000000000000000000000000000003c000000000000000000000000020e690a276159b07e0d5d8a31b881aefb6e2874",
          "blockHash": "0xe449144fe8f4d30913585fa403e0ec8e35f2b7fcee05d70f7f130c73e5280601",
          "blockNumber": "0x6140c9",
          "transactionHash": "0x89f0e30faf4b7f4ced0e6bf9f8791041755ea6b6fc5804d859b52aaf5f2faf5a",
          "transactionIndex": "0x2b",
          "logIndex": "0x11",
          "removed": false
        }
      ],
      "status": "0x1",
      "logsBloom": "0x00000000000000000000000000000000000000000000000000000000000000000000000000000000000000000000000000000000000000000000000000000000000000000000000000010000000020000000000000000000000000000008000000000080020002000000000000000800000000000000000000000000000000000000000400000000000000000000000000000000000200200000000000000000000000000000000000000000000000000000000000000000000000000000000000000000000000000000000000000000000000000000000000000000000020040000000000000000000000000004000000000000000002000000040000000000",
      "type": "0x2",
      "effectiveGasPrice": "0x751983145"
    },
    {
      "transactionHash": "0x42fc57008b7157dc73f0716414a75df89013ed1460b2e44afb3cd8d0ca837210",
      "transactionIndex": "0x2c",
      "blockHash": "0xe449144fe8f4d30913585fa403e0ec8e35f2b7fcee05d70f7f130c73e5280601",
      "blockNumber": "0x6140c9",
      "from": "0xdfcb98d66336084326Bf69a0e55Ed15c2Ae24008",
      "to": "0x6BCCF17873Fe200962451E6824090b847DB1ACEb",
      "cumulativeGasUsed": "0x1bee91",
      "gasUsed": "0x689b",
      "contractAddress": null,
      "logs": [
        {
          "address": "0x6BCCF17873Fe200962451E6824090b847DB1ACEb",
          "topics": [
            "0x8c5be1e5ebec7d5bd14f71427d1e84f3dd0314c0f7b2291e5b200ac8c7c3b925",
            "0x000000000000000000000000dfcb98d66336084326bf69a0e55ed15c2ae24008",
            "0x00000000000000000000000049e9cc8160410a9d8be588f2fc9f7642e4e6e995"
          ],
          "data": "0xffffffffffffffffffffffffffffffffffffffffffffffffffffffffffffffff",
          "blockHash": "0xe449144fe8f4d30913585fa403e0ec8e35f2b7fcee05d70f7f130c73e5280601",
          "blockNumber": "0x6140c9",
          "transactionHash": "0x42fc57008b7157dc73f0716414a75df89013ed1460b2e44afb3cd8d0ca837210",
          "transactionIndex": "0x2c",
          "logIndex": "0x12",
          "removed": false
        }
      ],
      "status": "0x1",
      "logsBloom": "0x00000000000000000000000000000000000000010000000000000000800000000000000000000000000004000000000000000000000000000000000000200000000000000000000000000000000000000000000001000020000000000000000000000000000000000000000000000000000000000000000000000000000000000000000000000000000000000000000040000000000000000000000000000000020000000000000000040000000000000000000000000000000000000000000000000100000000000000000000000000000000000000000001000000000000000010000000000000000000000000000000000000000000000000000000000000",
      "type": "0x2",
      "effectiveGasPrice": "0x751983145"
    },
    {
      "transactionHash": "0x80f58f22fe71e8472547a947a64b915433bda7fcb7f9346551b54799c4b3d609",
      "transactionIndex": "0x2d",
      "blockHash": "0xe449144fe8f4d30913585fa403e0ec8e35f2b7fcee05d70f7f130c73e5280601",
      "blockNumber": "0x6140c9",
      "from": "0xdfcb98d66336084326Bf69a0e55Ed15c2Ae24008",
      "to": "0x49e9cC8160410a9D8Be588f2fC9F7642e4e6E995",
      "cumulativeGasUsed": "0x1f7b1b",
      "gasUsed": "0x38c8a",
      "contractAddress": null,
      "logs": [
        {
          "address": "0x33F048ADeCbBD8608436eF31a09db8001149404B",
          "topics": [
            "0x541c041c2cce48e614b3de043c9280f06b6164c0a1741649e2de3c3d375f7974",
            "0xcfe348ef330965a777cd808b32a95492d5bb2345c72531928818f9b6cb9c233d",
            "0x00000000000000000000000049e9cc8160410a9d8be588f2fc9f7642e4e6e995"
          ],
          "data": "0x000000000000000000000000000000000000000000000000000000000001a694000000000000000000000000000000000000000000000000000000000001a6d000000000000000000000000000000000000000000000152d02c7e14af6800000",
          "blockHash": "0xe449144fe8f4d30913585fa403e0ec8e35f2b7fcee05d70f7f130c73e5280601",
          "blockNumber": "0x6140c9",
          "transactionHash": "0x80f58f22fe71e8472547a947a64b915433bda7fcb7f9346551b54799c4b3d609",
          "transactionIndex": "0x2d",
          "logIndex": "0x13",
          "removed": false
        },
        {
          "address": "0x6BCCF17873Fe200962451E6824090b847DB1ACEb",
          "topics": [
            "0xddf252ad1be2c89b69c2b068fc378daa952ba7f163c4a11628f55a4df523b3ef",
            "0x000000000000000000000000dfcb98d66336084326bf69a0e55ed15c2ae24008",
            "0x00000000000000000000000033f048adecbbd8608436ef31a09db8001149404b"
          ],
          "data": "0x00000000000000000000000000000000000000000000057ccac3c99752ecc6bb",
          "blockHash": "0xe449144fe8f4d30913585fa403e0ec8e35f2b7fcee05d70f7f130c73e5280601",
          "blockNumber": "0x6140c9",
          "transactionHash": "0x80f58f22fe71e8472547a947a64b915433bda7fcb7f9346551b54799c4b3d609",
          "transactionIndex": "0x2d",
          "logIndex": "0x14",
          "removed": false
        }
      ],
      "status": "0x1",
      "logsBloom": "0x00000000100000000000000000000000000000010000000000000000800000000000000000000000000004000000000000000000000000000000000000000000000000000000000000010008000000000000000001000020000000000000000010000080000002000000000000000000000000000000000000000010000000000000000400000000000000000000000042000000000200000000000000000000000000000000000000040000000000000000000000000000000000000000000000000102002000000000000000000000000000000000000001000000000000000080000000000000040000000000000000000000000000000000040000000000",
      "type": "0x2",
      "effectiveGasPrice": "0x751983145"
    }
  ],
  "libraries": [],
  "pending": [],
  "returns": {},
  "timestamp": 1721914374,
  "chain": 11155111,
  "commit": "75c0424"
}