{
  "transactions": [
    {
      "hash": "0xb0ce45f16e54543cd4cbf8b1cb706d6455424a8ef10b074222c70861920a3bba",
      "transactionType": "CALL",
      "contractName": null,
      "contractAddress": "0x6BCCF17873Fe200962451E6824090b847DB1ACEb",
      "function": "approve(address,uint256)",
      "arguments": [
        "0x92d3117268Bd580a748acbEE73162834443a3A17",
        "115792089237316195423570985008687907853269984665640564039457584007913129639935"
      ],
      "transaction": {
        "type": "0x02",
        "from": "0xdfcb98d66336084326bf69a0e55ed15c2ae24008",
        "to": "0x6bccf17873fe200962451e6824090b847db1aceb",
        "gas": "0x98fb",
        "value": "0x0",
        "data": "0x095ea7b300000000000000000000000092d3117268bd580a748acbee73162834443a3a17ffffffffffffffffffffffffffffffffffffffffffffffffffffffffffffffff",
        "nonce": "0x3d",
        "accessList": []
      },
      "additionalContracts": [],
      "isFixedGasLimit": false
    },
    {
      "hash": "0x9897779c43acfd08d93e83c1e3bb299c1f7086c685cad52f96f448c1299628a0",
      "transactionType": "CALL",
      "contractName": null,
      "contractAddress": "0x92d3117268Bd580a748acbEE73162834443a3A17",
      "function": "swap((address,address,uint24,int24,address),(bool,int256,uint160),(bool,bool,bool),bytes)",
      "arguments": [
        "(0x0000000000000000000000000000000000000000, 0x6BCCF17873Fe200962451E6824090b847DB1ACEb, 3000, 60, 0x020951DEDa6928a0Eb297ed5e6a4132A01d800DD)",
        "(true, 1000000000000000, 1771418402726979043010137083)",
        "(true, true, false)",
        "0x"
      ],
      "transaction": {
        "type": "0x02",
        "from": "0xdfcb98d66336084326bf69a0e55ed15c2ae24008",
        "to": "0x92d3117268bd580a748acbee73162834443a3a17",
        "gas": "0x33c31",
        "value": "0x38d7ea4c68000",
        "data": "0x6646135b00000000000000000000000000000000000000000000000000000000000000000000000000000000000000006bccf17873fe200962451e6824090b847db1aceb0000000000000000000000000000000000000000000000000000000000000bb8000000000000000000000000000000000000000000000000000000000000003c000000000000000000000000020951deda6928a0eb297ed5e6a4132a01d800dd000000000000000000000000000000000000000000000000000000000000000100000000000000000000000000000000000000000000000000038d7ea4c68000000000000000000000000000000000000000000005b9487007e712b1a90dcbfb00000000000000000000000000000000000000000000000000000000000000010000000000000000000000000000000000000000000000000000000000000001000000000000000000000000000000000000000000000000000000000000000000000000000000000000000000000000000000000000000000000000000001800000000000000000000000000000000000000000000000000000000000000000",
        "nonce": "0x3e",
        "accessList": []
      },
      "additionalContracts": [],
      "isFixedGasLimit": false
    }
  ],
  "receipts": [
    {
      "transactionHash": "0xb0ce45f16e54543cd4cbf8b1cb706d6455424a8ef10b074222c70861920a3bba",
      "transactionIndex": "0x12",
      "blockHash": "0x085f93d137ebabae128fc15cd7c8e2099b576684c7b9b9fc2fecd59df8bc123e",
      "blockNumber": "0x56c725",
      "from": "0xdfcb98d66336084326Bf69a0e55Ed15c2Ae24008",
      "to": "0x6BCCF17873Fe200962451E6824090b847DB1ACEb",
      "cumulativeGasUsed": "0x8403e",
      "gasUsed": "0x689b",
      "contractAddress": null,
      "logs": [
        {
          "address": "0x6BCCF17873Fe200962451E6824090b847DB1ACEb",
          "topics": [
            "0x8c5be1e5ebec7d5bd14f71427d1e84f3dd0314c0f7b2291e5b200ac8c7c3b925",
            "0x000000000000000000000000dfcb98d66336084326bf69a0e55ed15c2ae24008",
            "0x00000000000000000000000092d3117268bd580a748acbee73162834443a3a17"
          ],
          "data": "0xffffffffffffffffffffffffffffffffffffffffffffffffffffffffffffffff",
          "blockHash": "0x085f93d137ebabae128fc15cd7c8e2099b576684c7b9b9fc2fecd59df8bc123e",
          "blockNumber": "0x56c725",
          "transactionHash": "0xb0ce45f16e54543cd4cbf8b1cb706d6455424a8ef10b074222c70861920a3bba",
          "transactionIndex": "0x12",
          "logIndex": "0x4",
          "removed": false
        }
      ],
      "status": "0x1",
      "logsBloom": "0x00000000000000000000000000000000000000010000002000000000800000000000000000000000000004000000000000000000000000010000000000200000000000000000000000000000000000000000000001000020000000000000000000000000000000000000000000000000000000000000000000000000000000000000000000000000000000000000000000000000000000000000000000000000020000000000000000000000000000000000000000000000000000000000000000000000000000000000008000000000000000000000000001000000000000000010000000000000000000000000000000000000000000000000000000000000",
      "type": "0x2",
      "effectiveGasPrice": "0xb2d90238"
    },
    {
      "transactionHash": "0x9897779c43acfd08d93e83c1e3bb299c1f7086c685cad52f96f448c1299628a0",
      "transactionIndex": "0x13",
      "blockHash": "0x085f93d137ebabae128fc15cd7c8e2099b576684c7b9b9fc2fecd59df8bc123e",
      "blockNumber": "0x56c725",
      "from": "0xdfcb98d66336084326Bf69a0e55Ed15c2Ae24008",
      "to": "0x92d3117268Bd580a748acbEE73162834443a3A17",
      "cumulativeGasUsed": "0xa7687",
      "gasUsed": "0x23649",
      "contractAddress": null,
      "logs": [
        {
          "address": "0x33F048ADeCbBD8608436eF31a09db8001149404B",
          "topics": [
            "0x40e9cecb9f5f1f1c5b9c97dec2917b7ee92e57ba5563708daca94dd84ad7112f",
            "0xa0ba6756f3893d86d51c2f28d29ca4d955481e113ff4fef9608672e82a52c1ac",
            "0x00000000000000000000000092d3117268bd580a748acbee73162834443a3a17"
          ],
          "data": "0xfffffffffffffffffffffffffffffffffffffffffffffffffffc7aa64077b8b200000000000000000000000000000000000000000000000000038d7ea4c680000000000000000000000000000000000000000001018a60d3a504d9fc6bb722fa000000000000000000000000000000000000000000a599ffbf1fdc3bb500000000000000000000000000000000000000000000000000000000000000000000770000000000000000000000000000000000000000000000000000000000000bb8",
          "blockHash": "0x085f93d137ebabae128fc15cd7c8e2099b576684c7b9b9fc2fecd59df8bc123e",
          "blockNumber": "0x56c725",
          "transactionHash": "0x9897779c43acfd08d93e83c1e3bb299c1f7086c685cad52f96f448c1299628a0",
          "transactionIndex": "0x13",
          "logIndex": "0x5",
          "removed": false
        },
        {
          "address": "0x6BCCF17873Fe200962451E6824090b847DB1ACEb",
          "topics": [
            "0xddf252ad1be2c89b69c2b068fc378daa952ba7f163c4a11628f55a4df523b3ef",
            "0x00000000000000000000000033f048adecbbd8608436ef31a09db8001149404b",
            "0x000000000000000000000000dfcb98d66336084326bf69a0e55ed15c2ae24008"
          ],
          "data": "0x00000000000000000000000000000000000000000000000000038d7ea4c68000",
          "blockHash": "0x085f93d137ebabae128fc15cd7c8e2099b576684c7b9b9fc2fecd59df8bc123e",
          "blockNumber": "0x56c725",
          "transactionHash": "0x9897779c43acfd08d93e83c1e3bb299c1f7086c685cad52f96f448c1299628a0",
          "transactionIndex": "0x13",
          "logIndex": "0x6",
          "removed": false
        }
      ],
      "status": "0x1",
      "logsBloom": "0x00000000000000000000000000000000000000010000002000000000800000000000000000000000000004000000000000000000040000010000000000000000000000000000000000000008000000000000000001000020000000000000000000000080000000000000000000000000000000000000000000000010000000000000000400000000000000000000000002000000000200000000000000000010000000000000000000000000000000000000000000000000000000000000000000000002002000000000008000000000000000000000080001000000000000000080000000000000004000000080000000000000000000000000000000000000",
      "type": "0x2",
      "effectiveGasPrice": "0xb2d90238"
    }
  ],
  "libraries": [],
  "pending": [],
  "returns": {},
  "timestamp": 1712987154,
  "chain": 11155111,
  "commit": "f5f595e"
}