{
  "transactions": [
    {
      "hash": "0x2066cb59021c9f95adf9fb01ca6a512604cd503973f5b211f05b495c72bafef1",
      "transactionType": "CALL",
      "contractName": null,
      "contractAddress": "0x6BCCF17873Fe200962451E6824090b847DB1ACEb",
      "function": "approve(address,uint256)",
      "arguments": [
        "0x92d3117268Bd580a748acbEE73162834443a3A17",
        "115792089237316195423570985008687907853269984665640564039457584007913129639935"
      ],
      "transaction": {
        "type": "0x02",
        "from": "0x0eb47ac8e643a7ea333ad36a7a2ffe9896996599",
        "to": "0x6bccf17873fe200962451e6824090b847db1aceb",
        "gas": "0xfbda",
        "value": "0x0",
        "data": "0x095ea7b300000000000000000000000092d3117268bd580a748acbee73162834443a3a17ffffffffffffffffffffffffffffffffffffffffffffffffffffffffffffffff",
        "nonce": "0x2",
        "accessList": []
      },
      "additionalContracts": [],
      "isFixedGasLimit": false
    },
    {
      "hash": "0xb2cf3599c58c2921d0483913639363d10bf9292e7e9b43b120baf271e638a73d",
      "transactionType": "CALL",
      "contractName": "PoolSwapTest",
      "contractAddress": "0x92d3117268Bd580a748acbEE73162834443a3A17",
      "function": "swap((address,address,uint24,int24,address),(bool,int256,uint160),(bool,bool,bool),bytes)",
      "arguments": [
        "(0x0000000000000000000000000000000000000000, 0x6BCCF17873Fe200962451E6824090b847DB1ACEb, 50000, 60, 0x020951DEDa6928a0Eb297ed5e6a4132A01d800DD)",
        "(true, 200000000000000000000, 429512873900)",
        "(true, true, false)",
        "0x"
      ],
      "transaction": {
        "type": "0x02",
        "from": "0x0eb47ac8e643a7ea333ad36a7a2ffe9896996599",
        "to": "0x92d3117268bd580a748acbee73162834443a3a17",
        "gas": "0x31204",
        "value": "0x2386f26fc10000",
        "data": "0x6646135b00000000000000000000000000000000000000000000000000000000000000000000000000000000000000006bccf17873fe200962451e6824090b847db1aceb000000000000000000000000000000000000000000000000000000000000c350000000000000000000000000000000000000000000000000000000000000003c000000000000000000000000020951deda6928a0eb297ed5e6a4132a01d800dd000000000000000000000000000000000000000000000000000000000000000100000000000000000000000000000000000000000000000ad78ebc5ac62000000000000000000000000000000000000000000000000000000000006400f657ac00000000000000000000000000000000000000000000000000000000000000010000000000000000000000000000000000000000000000000000000000000001000000000000000000000000000000000000000000000000000000000000000000000000000000000000000000000000000000000000000000000000000001800000000000000000000000000000000000000000000000000000000000000000",
        "nonce": "0x3",
        "accessList": []
      },
      "additionalContracts": [],
      "isFixedGasLimit": false
    }
  ],
  "receipts": [
    {
      "transactionHash": "0x2066cb59021c9f95adf9fb01ca6a512604cd503973f5b211f05b495c72bafef1",
      "transactionIndex": "0x23",
      "blockHash": "0x46d299bd51d8b6bd1028869e76c363b65e70abe841c865c618e3f35b86df6c31",
      "blockNumber": "0x56c902",
      "from": "0x0eB47ac8E643a7eA333AD36a7A2ffE9896996599",
      "to": "0x6BCCF17873Fe200962451E6824090b847DB1ACEb",
      "cumulativeGasUsed": "0xe3280",
      "gasUsed": "0xb657",
      "contractAddress": null,
      "logs": [
        {
          "address": "0x6BCCF17873Fe200962451E6824090b847DB1ACEb",
          "topics": [
            "0x8c5be1e5ebec7d5bd14f71427d1e84f3dd0314c0f7b2291e5b200ac8c7c3b925",
            "0x0000000000000000000000000eb47ac8e643a7ea333ad36a7a2ffe9896996599",
            "0x00000000000000000000000092d3117268bd580a748acbee73162834443a3a17"
          ],
          "data": "0xffffffffffffffffffffffffffffffffffffffffffffffffffffffffffffffff",
          "blockHash": "0x46d299bd51d8b6bd1028869e76c363b65e70abe841c865c618e3f35b86df6c31",
          "blockNumber": "0x56c902",
          "transactionHash": "0x2066cb59021c9f95adf9fb01ca6a512604cd503973f5b211f05b495c72bafef1",
          "transactionIndex": "0x23",
          "logIndex": "0x2",
          "removed": false
        }
      ],
      "status": "0x1",
      "logsBloom": "0x00000000000000000000000000000000000000010000002000000000800000000200000000000000000000000000000000000000000000010000000000200000000000000000000000000000000000000000000001000000000000000000000000000000000000000000000000000000000000000000000000000000000000000000000000000000000000000000000000000000000000000000000000000000020000000400000000000000000000000000000000000000008000000000000000000000000000000000008000000000000000000000000000000000000000000010000000000000000000000000000000000000000000000000000000000000",
      "type": "0x2",
      "effectiveGasPrice": "0xb2d49056"
    },
    {
      "transactionHash": "0xb2cf3599c58c2921d0483913639363d10bf9292e7e9b43b120baf271e638a73d",
      "transactionIndex": "0x24",
      "blockHash": "0x46d299bd51d8b6bd1028869e76c363b65e70abe841c865c618e3f35b86df6c31",
      "blockNumber": "0x56c902",
      "from": "0x0eB47ac8E643a7eA333AD36a7A2ffE9896996599",
      "to": "0x92d3117268Bd580a748acbEE73162834443a3A17",
      "cumulativeGasUsed": "0x106b90",
      "gasUsed": "0x23910",
      "contractAddress": null,
      "logs": [
        {
          "address": "0x33F048ADeCbBD8608436eF31a09db8001149404B",
          "topics": [
            "0x40e9cecb9f5f1f1c5b9c97dec2917b7ee92e57ba5563708daca94dd84ad7112f",
            "0x7ced32bb334fce258f46bb89341c3f4288c22b961bc4eebdb9f3b2bc7da6f2a9",
            "0x00000000000000000000000092d3117268bd580a748acbee73162834443a3a17"
          ],
          "data": "0xfffffffffffffffffffffffffffffffffffffffffffffffffff10a720daae65900000000000000000000000000000000000000000000000ad78ebc5ac620000000000000000000000000000000000000000000df9a504a9b17a58a5563050ec300000000000000000000000000000000000000000000152d02c7e14af6800000000000000000000000000000000000000000000000000000000000000001a6aa000000000000000000000000000000000000000000000000000000000000c350",
          "blockHash": "0x46d299bd51d8b6bd1028869e76c363b65e70abe841c865c618e3f35b86df6c31",
          "blockNumber": "0x56c902",
          "transactionHash": "0xb2cf3599c58c2921d0483913639363d10bf9292e7e9b43b120baf271e638a73d",
          "transactionIndex": "0x24",
          "logIndex": "0x3",
          "removed": false
        },
        {
          "address": "0x6BCCF17873Fe200962451E6824090b847DB1ACEb",
          "topics": [
            "0xddf252ad1be2c89b69c2b068fc378daa952ba7f163c4a11628f55a4df523b3ef",
            "0x00000000000000000000000033f048adecbbd8608436ef31a09db8001149404b",
            "0x0000000000000000000000000eb47ac8e643a7ea333ad36a7a2ffe9896996599"
          ],
          "data": "0x00000000000000000000000000000000000000000000000ad78ebc5ac6200000",
          "blockHash": "0x46d299bd51d8b6bd1028869e76c363b65e70abe841c865c618e3f35b86df6c31",
          "blockNumber": "0x56c902",
          "transactionHash": "0xb2cf3599c58c2921d0483913639363d10bf9292e7e9b43b120baf271e638a73d",
          "transactionIndex": "0x24",
          "logIndex": "0x4",
          "removed": false
        }
      ],
      "status": "0x1",
      "logsBloom": "0x00000000000000000000000000000000000000010000002000000000800000000200000000000000000000000000000000000000040000010000000000000000000000000000000000000008000000000000000001000020000000000000000000000080000000000000000000000000000000000000000000000010000000000000000400000000400000000000000002000100000200000000000000000000000000000400000000000000000002000000000000000000008000000000000000000002002000000000008000000000000000000000000000000000000000000080000000000000004000000000000000000000000000000000000000000000",
      "type": "0x2",
      "effectiveGasPrice": "0xb2d49056"
    }
  ],
  "libraries": [],
  "pending": [],
  "returns": {},
  "timestamp": 1712992874,
  "chain": 11155111,
  "commit": "5fe992d"
}