{
  "transactions": [
    {
      "hash": "0x1c76328285a8ce532f2ffd4fac020e403901c110037a41235557fc4691a28a7c",
      "transactionType": "CALL",
      "contractName": null,
      "contractAddress": "0x6BCCF17873Fe200962451E6824090b847DB1ACEb",
      "function": "approve(address,uint256)",
      "arguments": [
        "0x92d3117268Bd580a748acbEE73162834443a3A17",
        "115792089237316195423570985008687907853269984665640564039457584007913129639935"
      ],
      "transaction": {
        "type": "0x02",
        "from": "0x0eb47ac8e643a7ea333ad36a7a2ffe9896996599",
        "to": "0x6bccf17873fe200962451e6824090b847db1aceb",
        "gas": "0x98fb",
        "value": "0x0",
        "data": "0x095ea7b300000000000000000000000092d3117268bd580a748acbee73162834443a3a17ffffffffffffffffffffffffffffffffffffffffffffffffffffffffffffffff",
        "nonce": "0xb",
        "accessList": []
      },
      "additionalContracts": [],
      "isFixedGasLimit": false
    },
    {
      "hash": "0xcb4ee22543796884ba7b0a230ba7eba271605c70705fd6f61da7d5ef433adcfb",
      "transactionType": "CALL",
      "contractName": null,
      "contractAddress": "0x92d3117268Bd580a748acbEE73162834443a3A17",
      "function": "swap((address,address,uint24,int24,address),(bool,int256,uint160),(bool,bool,bool),bytes)",
      "arguments": [
        "(0x0000000000000000000000000000000000000000, 0x6BCCF17873Fe200962451E6824090b847DB1ACEb, 50000, 60, 0x02065706eD6Ce5bff1537D67bb7995131aE9ef4a)",
        "(true, 200000000000000000000, 429512873900)",
        "(true, true, false)",
        "0x"
      ],
      "transaction": {
        "type": "0x02",
        "from": "0x0eb47ac8e643a7ea333ad36a7a2ffe9896996599",
        "to": "0x92d3117268bd580a748acbee73162834443a3a17",
        "gas": "0x52b3f",
        "value": "0x2386f26fc10000",
        "data": "0x6646135b00000000000000000000000000000000000000000000000000000000000000000000000000000000000000006bccf17873fe200962451e6824090b847db1aceb000000000000000000000000000000000000000000000000000000000000c350000000000000000000000000000000000000000000000000000000000000003c00000000000000000000000002065706ed6ce5bff1537d67bb7995131ae9ef4a000000000000000000000000000000000000000000000000000000000000000100000000000000000000000000000000000000000000000ad78ebc5ac62000000000000000000000000000000000000000000000000000000000006400f657ac00000000000000000000000000000000000000000000000000000000000000010000000000000000000000000000000000000000000000000000000000000001000000000000000000000000000000000000000000000000000000000000000000000000000000000000000000000000000000000000000000000000000001800000000000000000000000000000000000000000000000000000000000000000",
        "nonce": "0xc",
        "accessList": []
      },
      "additionalContracts": [],
      "isFixedGasLimit": false
    }
  ],
  "receipts": [
    {
      "transactionHash": "0x1c76328285a8ce532f2ffd4fac020e403901c110037a41235557fc4691a28a7c",
      "transactionIndex": "0xe",
      "blockHash": "0x0ed608d17d928553d25734c2dda46004a476b003e883629b88e6db890f2322c3",
      "blockNumber": "0x57a83a",
      "from": "0x0eB47ac8E643a7eA333AD36a7A2ffE9896996599",
      "to": "0x6BCCF17873Fe200962451E6824090b847DB1ACEb",
      "cumulativeGasUsed": "0xe24dc",
      "gasUsed": "0x689b",
      "contractAddress": null,
      "logs": [
        {
          "address": "0x6BCCF17873Fe200962451E6824090b847DB1ACEb",
          "topics": [
            "0x8c5be1e5ebec7d5bd14f71427d1e84f3dd0314c0f7b2291e5b200ac8c7c3b925",
            "0x0000000000000000000000000eb47ac8e643a7ea333ad36a7a2ffe9896996599",
            "0x00000000000000000000000092d3117268bd580a748acbee73162834443a3a17"
          ],
          "data": "0xffffffffffffffffffffffffffffffffffffffffffffffffffffffffffffffff",
          "blockHash": "0x0ed608d17d928553d25734c2dda46004a476b003e883629b88e6db890f2322c3",
          "blockNumber": "0x57a83a",
          "transactionHash": "0x1c76328285a8ce532f2ffd4fac020e403901c110037a41235557fc4691a28a7c",
          "transactionIndex": "0xe",
          "logIndex": "0x13",
          "removed": false
        }
      ],
      "status": "0x1",
      "logsBloom": "0x00000000000000000000000000000000000000010000002000000000800000000200000000000000000000000000000000000000000000010000000000200000000000000000000000000000000000000000000001000000000000000000000000000000000000000000000000000000000000000000000000000000000000000000000000000000000000000000000000000000000000000000000000000000020000000400000000000000000000000000000000000000008000000000000000000000000000000000008000000000000000000000000000000000000000000010000000000000000000000000000000000000000000000000000000000000",
      "type": "0x2",
      "effectiveGasPrice": "0x2b767f64c"
    },
    {
      "transactionHash": "0xcb4ee22543796884ba7b0a230ba7eba271605c70705fd6f61da7d5ef433adcfb",
      "transactionIndex": "0xf",
      "blockHash": "0x0ed608d17d928553d25734c2dda46004a476b003e883629b88e6db890f2322c3",
      "blockNumber": "0x57a83a",
      "from": "0x0eB47ac8E643a7eA333AD36a7A2ffE9896996599",
      "to": "0x92d3117268Bd580a748acbEE73162834443a3A17",
      "cumulativeGasUsed": "0x11ada5",
      "gasUsed": "0x388c9",
      "contractAddress": null,
      "logs": [
        {
          "address": "0x33F048ADeCbBD8608436eF31a09db8001149404B",
          "topics": [
            "0x40e9cecb9f5f1f1c5b9c97dec2917b7ee92e57ba5563708daca94dd84ad7112f",
            "0x0f68b09419b9de30cf5a8bea32ece4512fa7f456511c074ae3187f0ad5d71166",
            "0x00000000000000000000000092d3117268bd580a748acbee73162834443a3a17"
          ],
          "data": "0xfffffffffffffffffffffffffffffffffffffffffffffffffff10a83ade4b83400000000000000000000000000000000000000000000000ad78ebc5ac620000000000000000000000000000000000000000000df9ad4067cdaa3a1471711f12b00000000000000000000000000000000000000000000152d02c7e14af6800000000000000000000000000000000000000000000000000000000000000001a6ab000000000000000000000000000000000000000000000000000000000000c350",
          "blockHash": "0x0ed608d17d928553d25734c2dda46004a476b003e883629b88e6db890f2322c3",
          "blockNumber": "0x57a83a",
          "transactionHash": "0xcb4ee22543796884ba7b0a230ba7eba271605c70705fd6f61da7d5ef433adcfb",
          "transactionIndex": "0xf",
          "logIndex": "0x14",
          "removed": false
        },
        {
          "address": "0x6BCCF17873Fe200962451E6824090b847DB1ACEb",
          "topics": [
            "0xddf252ad1be2c89b69c2b068fc378daa952ba7f163c4a11628f55a4df523b3ef",
            "0x00000000000000000000000033f048adecbbd8608436ef31a09db8001149404b",
            "0x0000000000000000000000000eb47ac8e643a7ea333ad36a7a2ffe9896996599"
          ],
          "data": "0x00000000000000000000000000000000000000000000000ad78ebc5ac6200000",
          "blockHash": "0x0ed608d17d928553d25734c2dda46004a476b003e883629b88e6db890f2322c3",
          "blockNumber": "0x57a83a",
          "transactionHash": "0xcb4ee22543796884ba7b0a230ba7eba271605c70705fd6f61da7d5ef433adcfb",
          "transactionIndex": "0xf",
          "logIndex": "0x15",
          "removed": false
        }
      ],
      "status": "0x1",
      "logsBloom": "0x00000000000000000000000000000000040000010000002000000000800000000200000000000000000000000000001000000000040000010000000000000000000000000000000000000008000000000000000001000020000000000000000000000080000000000000000000000000000000000000000000000010000000000000000400000000000000000000040002000000000200000000000000000000000000000400000000000000000000000000000000000000008000000000000000000002002000000000008000000000000000000000000000000000000000000080000000000000004000000000000000000000000000000000000000000000",
      "type": "0x2",
      "effectiveGasPrice": "0x2b767f64c"
    }
  ],
  "libraries": [],
  "pending": [],
  "returns": {},
  "timestamp": 1713687928,
  "chain": 11155111,
  "commit": "f7ea108"
}