{
  "transactions": [
    {
      "hash": "0x6e5ff75295f49c86ca31461aa7297e3ec7a3e6a07c3e36f040629e479b68cd70",
      "transactionType": "CALL",
      "contractName": null,
      "contractAddress": "0x520A3474beAaE4AC406242aa74eF6D052dE8aaED",
      "function": "approve(address,uint256)",
      "arguments": [
        "0x92d3117268Bd580a748acbEE73162834443a3A17",
        "115792089237316195423570985008687907853269984665640564039457584007913129639935"
      ],
      "transaction": {
        "type": "0x02",
        "from": "0x0ef02c734e188639e15d23e899215a53e4daa938",
        "to": "0x520a3474beaae4ac406242aa74ef6d052de8aaed",
        "gas": "0xfbda",
        "value": "0x0",
        "data": "0x095ea7b300000000000000000000000092d3117268bd580a748acbee73162834443a3a17ffffffffffffffffffffffffffffffffffffffffffffffffffffffffffffffff",
        "nonce": "0x2b",
        "accessList": []
      },
      "additionalContracts": [],
      "isFixedGasLimit": false
    },
    {
      "hash": "0x3571262f475b30ed9f3a43f99b88f330c5009397724df5aef4fa4decc87a5bf2",
      "transactionType": "CALL",
      "contractName": null,
      "contractAddress": "0x6BCCF17873Fe200962451E6824090b847DB1ACEb",
      "function": "approve(address,uint256)",
      "arguments": [
        "0x92d3117268Bd580a748acbEE73162834443a3A17",
        "115792089237316195423570985008687907853269984665640564039457584007913129639935"
      ],
      "transaction": {
        "type": "0x02",
        "from": "0x0ef02c734e188639e15d23e899215a53e4daa938",
        "to": "0x6bccf17873fe200962451e6824090b847db1aceb",
        "gas": "0xfbda",
        "value": "0x0",
        "data": "0x095ea7b300000000000000000000000092d3117268bd580a748acbee73162834443a3a17ffffffffffffffffffffffffffffffffffffffffffffffffffffffffffffffff",
        "nonce": "0x2c",
        "accessList": []
      },
      "additionalContracts": [],
      "isFixedGasLimit": false
    },
    {
      "hash": "0xfe34ead64ca15763f96e8758e9828b9a363bfa0542870be9b3f22c066f651195",
      "transactionType": "CALL",
      "contractName": null,
      "contractAddress": "0x92d3117268Bd580a748acbEE73162834443a3A17",
      "function": "swap((address,address,uint24,int24,address),(bool,int256,uint160),(bool,bool,bool),bytes)",
      "arguments": [
        "(0x520A3474beAaE4AC406242aa74eF6D052dE8aaED, 0x6BCCF17873Fe200962451E6824090b847DB1ACEb, 3000, 60, 0x020951DEDa6928a0Eb297ed5e6a4132A01d800DD)",
        "(true, 100000000000000000, 7922816251426433759354395033)",
        "(true, true, false)",
        "0x"
      ],
      "transaction": {
        "type": "0x02",
        "from": "0x0ef02c734e188639e15d23e899215a53e4daa938",
        "to": "0x92d3117268bd580a748acbee73162834443a3a17",
        "gas": "0x39063",
        "value": "0x0",
        "data": "0x6646135b000000000000000000000000520a3474beaae4ac406242aa74ef6d052de8aaed0000000000000000000000006bccf17873fe200962451e6824090b847db1aceb0000000000000000000000000000000000000000000000000000000000000bb8000000000000000000000000000000000000000000000000000000000000003c000000000000000000000000020951deda6928a0eb297ed5e6a4132a01d800dd0000000000000000000000000000000000000000000000000000000000000001000000000000000000000000000000000000000000000000016345785d8a0000000000000000000000000000000000000000000019999999999999999999999900000000000000000000000000000000000000000000000000000000000000010000000000000000000000000000000000000000000000000000000000000001000000000000000000000000000000000000000000000000000000000000000000000000000000000000000000000000000000000000000000000000000001800000000000000000000000000000000000000000000000000000000000000000",
        "nonce": "0x2d",
        "accessList": []
      },
      "additionalContracts": [],
      "isFixedGasLimit": false
    }
  ],
  "receipts": [
    {
      "transactionHash": "0x6e5ff75295f49c86ca31461aa7297e3ec7a3e6a07c3e36f040629e479b68cd70",
      "transactionIndex": "0xa",
      "blockHash": "0x7325415eb9e20564b37a4155f54a6b59bb34b993bade8b2b74c7a6af68f32935",
      "blockNumber": "0x56c281",
      "from": "0x0ef02c734e188639e15d23e899215A53E4dAA938",
      "to": "0x520A3474beAaE4AC406242aa74eF6D052dE8aaED",
      "cumulativeGasUsed": "0x96467",
      "gasUsed": "0xb657",
      "contractAddress": null,
      "logs": [
        {
          "address": "0x520A3474beAaE4AC406242aa74eF6D052dE8aaED",
          "topics": [
            "0x8c5be1e5ebec7d5bd14f71427d1e84f3dd0314c0f7b2291e5b200ac8c7c3b925",
            "0x0000000000000000000000000ef02c734e188639e15d23e899215a53e4daa938",
            "0x00000000000000000000000092d3117268bd580a748acbee73162834443a3a17"
          ],
          "data": "0xffffffffffffffffffffffffffffffffffffffffffffffffffffffffffffffff",
          "blockHash": "0x7325415eb9e20564b37a4155f54a6b59bb34b993bade8b2b74c7a6af68f32935",
          "blockNumber": "0x56c281",
          "transactionHash": "0x6e5ff75295f49c86ca31461aa7297e3ec7a3e6a07c3e36f040629e479b68cd70",
          "transactionIndex": "0xa",
          "logIndex": "0xa",
          "removed": false
        }
      ],
      "status": "0x1",
      "logsBloom": "0x00000000000000000000000000000000000000000000002000000000000000000000000000000000000000000000000000000000000000010000000000200000000000000000000000000000000000000000000000080000000000000000000000000000000000000000000000000000000004000000000000000000000000000000000000000000000000000200000000000000000000000000000000000000020000000000000000000000000000000000000000000000000000000000000000000000000000000000008000000000000000020000000080000000000000000010000000000000000000000000000000000000000080000000000000000000",
      "type": "0x2",
      "effectiveGasPrice": "0xb611c825"
    },
    {
      "transactionHash": "0x3571262f475b30ed9f3a43f99b88f330c5009397724df5aef4fa4decc87a5bf2",
      "transactionIndex": "0xb",
      "blockHash": "0x7325415eb9e20564b37a4155f54a6b59bb34b993bade8b2b74c7a6af68f32935",
      "blockNumber": "0x56c281",
      "from": "0x0ef02c734e188639e15d23e899215A53E4dAA938",
      "to": "0x6BCCF17873Fe200962451E6824090b847DB1ACEb",
      "cumulativeGasUsed": "0xa1abe",
      "gasUsed": "0xb657",
      "contractAddress": null,
      "logs": [
        {
          "address": "0x6BCCF17873Fe200962451E6824090b847DB1ACEb",
          "topics": [
            "0x8c5be1e5ebec7d5bd14f71427d1e84f3dd0314c0f7b2291e5b200ac8c7c3b925",
            "0x0000000000000000000000000ef02c734e188639e15d23e899215a53e4daa938",
            "0x00000000000000000000000092d3117268bd580a748acbee73162834443a3a17"
          ],
          "data": "0xffffffffffffffffffffffffffffffffffffffffffffffffffffffffffffffff",
          "blockHash": "0x7325415eb9e20564b37a4155f54a6b59bb34b993bade8b2b74c7a6af68f32935",
          "blockNumber": "0x56c281",
          "transactionHash": "0x3571262f475b30ed9f3a43f99b88f330c5009397724df5aef4fa4decc87a5bf2",
          "transactionIndex": "0xb",
          "logIndex": "0xb",
          "removed": false
        }
      ],
      "status": "0x1",
      "logsBloom": "0x00000000000000000000000000000000000000010000002000000000800000000000000000000000000000000000000000000000000000010000000000200000000000000000000000000000000000000000000001080000000000000000000000000000000000000000000000000000000004000000000000000000000000000000000000000000000000000000000000000000000000000000000000000000020000000000000000000000000000000000000000000000000000000000000000000000000000000000008000000000000000020000000000000000000000000010000000000000000000000000000000000000000000000000000000000000",
      "type": "0x2",
      "effectiveGasPrice": "0xb611c825"
    },
    {
      "transactionHash": "0xfe34ead64ca15763f96e8758e9828b9a363bfa0542870be9b3f22c066f651195",
      "transactionIndex": "0xc",
      "blockHash": "0x7325415eb9e20564b37a4155f54a6b59bb34b993bade8b2b74c7a6af68f32935",
      "blockNumber": "0x56c281",
      "from": "0x0ef02c734e188639e15d23e899215A53E4dAA938",
      "to": "0x92d3117268Bd580a748acbEE73162834443a3A17",
      "cumulativeGasUsed": "0xc8a99",
      "gasUsed": "0x26fdb",
      "contractAddress": null,
      "logs": [
        {
          "address": "0x33F048ADeCbBD8608436eF31a09db8001149404B",
          "topics": [
            "0x40e9cecb9f5f1f1c5b9c97dec2917b7ee92e57ba5563708daca94dd84ad7112f",
            "0xc19d0fe628f1696f2fdd39e63cbd1096d0f4ead75f7e1491e0635500c5e5bce1",
            "0x00000000000000000000000092d3117268bd580a748acbee73162834443a3a17"
          ],
          "data": "0xfffffffffffffffffffffffffffffffffffffffffffffffffe9aefe9a6c687ca000000000000000000000000000000000000000000000000016345785d8a00000000000000000000000000000000000000000000ffbda2f55dfe691149d524a7000000000000000000000000000000000000000000001750887009330bd00000ffffffffffffffffffffffffffffffffffffffffffffffffffffffffffffffeb0000000000000000000000000000000000000000000000000000000000000bb8",
          "blockHash": "0x7325415eb9e20564b37a4155f54a6b59bb34b993bade8b2b74c7a6af68f32935",
          "blockNumber": "0x56c281",
          "transactionHash": "0xfe34ead64ca15763f96e8758e9828b9a363bfa0542870be9b3f22c066f651195",
          "transactionIndex": "0xc",
          "logIndex": "0xc",
          "removed": false
        },
        {
          "address": "0x520A3474beAaE4AC406242aa74eF6D052dE8aaED",
          "topics": [
            "0xddf252ad1be2c89b69c2b068fc378daa952ba7f163c4a11628f55a4df523b3ef",
            "0x0000000000000000000000000ef02c734e188639e15d23e899215a53e4daa938",
            "0x00000000000000000000000033f048adecbbd8608436ef31a09db8001149404b"
          ],
          "data": "0x0000000000000000000000000000000000000000000000000165101659397836",
          "blockHash": "0x7325415eb9e20564b37a4155f54a6b59bb34b993bade8b2b74c7a6af68f32935",
          "blockNumber": "0x56c281",
          "transactionHash": "0xfe34ead64ca15763f96e8758e9828b9a363bfa0542870be9b3f22c066f651195",
          "transactionIndex": "0xc",
          "logIndex": "0xd",
          "removed": false
        },
        {
          "address": "0x6BCCF17873Fe200962451E6824090b847DB1ACEb",
          "topics": [
            "0xddf252ad1be2c89b69c2b068fc378daa952ba7f163c4a11628f55a4df523b3ef",
            "0x00000000000000000000000033f048adecbbd8608436ef31a09db8001149404b",
            "0x0000000000000000000000000ef02c734e188639e15d23e899215a53e4daa938"
          ],
          "data": "0x000000000000000000000000000000000000000000000000016345785d8a0000",
          "blockHash": "0x7325415eb9e20564b37a4155f54a6b59bb34b993bade8b2b74c7a6af68f32935",
          "blockNumber": "0x56c281",
          "transactionHash": "0xfe34ead64ca15763f96e8758e9828b9a363bfa0542870be9b3f22c066f651195",
          "transactionIndex": "0xc",
          "logIndex": "0xe",
          "removed": false
        }
      ],
      "status": "0x1",
      "logsBloom": "0x00000000000000000000000000000000000000010000002000000000800000000000000000000000000000000000000080000000040000010000000000000000000000000000000020000008000000004000000001080020000000000000000000000080000000000000000000000000000004000000000000000010000000000000000400000000000000000200000002000000000200000000000000000000000000000000000000000000000000000000000000000000000000000000000000000002002000000000008000000000000000020000000080000000000000000080000000000000004000000000000000000000000080000000000000000000",
      "type": "0x2",
      "effectiveGasPrice": "0xb611c825"
    }
  ],
  "libraries": [],
  "pending": [],
  "returns": {},
  "timestamp": 1712972872,
  "chain": 11155111,
  "commit": "99c23c6"
}