{
  "transactions": [
    {
      "hash": "0x3f46bc6332a1f4fac8732909e10c70a1aaf1abd5a667aa271f895dc9ba6a38d7",
      "transactionType": "CALL",
      "contractName": null,
      "contractAddress": "0x6BCCF17873Fe200962451E6824090b847DB1ACEb",
      "function": "approve(address,uint256)",
      "arguments": [
        "0x92d3117268Bd580a748acbEE73162834443a3A17",
        "115792089237316195423570985008687907853269984665640564039457584007913129639935"
      ],
      "transaction": {
        "type": "0x02",
        "from": "0x0eb47ac8e643a7ea333ad36a7a2ffe9896996599",
        "to": "0x6bccf17873fe200962451e6824090b847db1aceb",
        "gas": "0x98fb",
        "value": "0x0",
        "data": "0x095ea7b300000000000000000000000092d3117268bd580a748acbee73162834443a3a17ffffffffffffffffffffffffffffffffffffffffffffffffffffffffffffffff",
        "nonce": "0x6",
        "accessList": []
      },
      "additionalContracts": [],
      "isFixedGasLimit": false
    },
    {
      "hash": "0x465b071331490402d8c39f4c69a5e7debcfa06c547fbc1baca5569ddcbf545cc",
      "transactionType": "CALL",
      "contractName": null,
      "contractAddress": "0x92d3117268Bd580a748acbEE73162834443a3A17",
      "function": "swap((address,address,uint24,int24,address),(bool,int256,uint160),(bool,bool,bool),bytes)",
      "arguments": [
        "(0x0000000000000000000000000000000000000000, 0x6BCCF17873Fe200962451E6824090b847DB1ACEb, 50000, 60, 0x020951DEDa6928a0Eb297ed5e6a4132A01d800DD)",
        "(true, 200000000000000000000, 429512873900)",
        "(true, true, false)",
        "0x"
      ],
      "transaction": {
        "type": "0x02",
        "from": "0x0eb47ac8e643a7ea333ad36a7a2ffe9896996599",
        "to": "0x92d3117268bd580a748acbee73162834443a3a17",
        "gas": "0x31204",
        "value": "0x2386f26fc10000",
        "data": "0x6646135b00000000000000000000000000000000000000000000000000000000000000000000000000000000000000006bccf17873fe200962451e6824090b847db1aceb000000000000000000000000000000000000000000000000000000000000c350000000000000000000000000000000000000000000000000000000000000003c000000000000000000000000020951deda6928a0eb297ed5e6a4132a01d800dd000000000000000000000000000000000000000000000000000000000000000100000000000000000000000000000000000000000000000ad78ebc5ac62000000000000000000000000000000000000000000000000000000000006400f657ac00000000000000000000000000000000000000000000000000000000000000010000000000000000000000000000000000000000000000000000000000000001000000000000000000000000000000000000000000000000000000000000000000000000000000000000000000000000000000000000000000000000000001800000000000000000000000000000000000000000000000000000000000000000",
        "nonce": "0x7",
        "accessList": []
      },
      "additionalContracts": [],
      "isFixedGasLimit": false
    }
  ],
  "receipts": [
    {
      "transactionHash": "0x3f46bc6332a1f4fac8732909e10c70a1aaf1abd5a667aa271f895dc9ba6a38d7",
      "transactionIndex": "0x11",
      "blockHash": "0x10bffbf80e9ed52158e389fa05d099b1cc90d0ffe6543b73026015ac2f961260",
      "blockNumber": "0x56f874",
      "from": "0x0eB47ac8E643a7eA333AD36a7A2ffE9896996599",
      "to": "0x6BCCF17873Fe200962451E6824090b847DB1ACEb",
      "cumulativeGasUsed": "0x7da1f",
      "gasUsed": "0x689b",
      "contractAddress": null,
      "logs": [
        {
          "address": "0x6BCCF17873Fe200962451E6824090b847DB1ACEb",
          "topics": [
            "0x8c5be1e5ebec7d5bd14f71427d1e84f3dd0314c0f7b2291e5b200ac8c7c3b925",
            "0x0000000000000000000000000eb47ac8e643a7ea333ad36a7a2ffe9896996599",
            "0x00000000000000000000000092d3117268bd580a748acbee73162834443a3a17"
          ],
          "data": "0xffffffffffffffffffffffffffffffffffffffffffffffffffffffffffffffff",
          "blockHash": "0x10bffbf80e9ed52158e389fa05d099b1cc90d0ffe6543b73026015ac2f961260",
          "blockNumber": "0x56f874",
          "transactionHash": "0x3f46bc6332a1f4fac8732909e10c70a1aaf1abd5a667aa271f895dc9ba6a38d7",
          "transactionIndex": "0x11",
          "logIndex": "0x3",
          "removed": false
        }
      ],
      "status": "0x1",
      "logsBloom": "0x00000000000000000000000000000000000000010000002000000000800000000200000000000000000000000000000000000000000000010000000000200000000000000000000000000000000000000000000001000000000000000000000000000000000000000000000000000000000000000000000000000000000000000000000000000000000000000000000000000000000000000000000000000000020000000400000000000000000000000000000000000000008000000000000000000000000000000000008000000000000000000000000000000000000000000010000000000000000000000000000000000000000000000000000000000000",
      "type": "0x2",
      "effectiveGasPrice": "0xb2d584d1"
    },
    {
      "transactionHash": "0x465b071331490402d8c39f4c69a5e7debcfa06c547fbc1baca5569ddcbf545cc",
      "transactionIndex": "0x12",
      "blockHash": "0x10bffbf80e9ed52158e389fa05d099b1cc90d0ffe6543b73026015ac2f961260",
      "blockNumber": "0x56f874",
      "from": "0x0eB47ac8E643a7eA333AD36a7A2ffE9896996599",
      "to": "0x92d3117268Bd580a748acbEE73162834443a3A17",
      "cumulativeGasUsed": "0xa132f",
      "gasUsed": "0x23910",
      "contractAddress": null,
      "logs": [
        {
          "address": "0x33F048ADeCbBD8608436eF31a09db8001149404B",
          "topics": [
            "0x40e9cecb9f5f1f1c5b9c97dec2917b7ee92e57ba5563708daca94dd84ad7112f",
            "0x7ced32bb334fce258f46bb89341c3f4288c22b961bc4eebdb9f3b2bc7da6f2a9",
            "0x00000000000000000000000092d3117268bd580a748acbee73162834443a3a17"
          ],
          "data": "0xfffffffffffffffffffffffffffffffffffffffffffffffffff10a3d704871c200000000000000000000000000000000000000000000000ad78ebc5ac620000000000000000000000000000000000000000000df98c7134f50fd9ab7b0d8006c00000000000000000000000000000000000000000000152d02c7e14af6800000000000000000000000000000000000000000000000000000000000000001a6aa000000000000000000000000000000000000000000000000000000000000c350",
          "blockHash": "0x10bffbf80e9ed52158e389fa05d099b1cc90d0ffe6543b73026015ac2f961260",
          "blockNumber": "0x56f874",
          "transactionHash": "0x465b071331490402d8c39f4c69a5e7debcfa06c547fbc1baca5569ddcbf545cc",
          "transactionIndex": "0x12",
          "logIndex": "0x4",
          "removed": false
        },
        {
          "address": "0x6BCCF17873Fe200962451E6824090b847DB1ACEb",
          "topics": [
            "0xddf252ad1be2c89b69c2b068fc378daa952ba7f163c4a11628f55a4df523b3ef",
            "0x00000000000000000000000033f048adecbbd8608436ef31a09db8001149404b",
            "0x0000000000000000000000000eb47ac8e643a7ea333ad36a7a2ffe9896996599"
          ],
          "data": "0x00000000000000000000000000000000000000000000000ad78ebc5ac6200000",
          "blockHash": "0x10bffbf80e9ed52158e389fa05d099b1cc90d0ffe6543b73026015ac2f961260",
          "blockNumber": "0x56f874",
          "transactionHash": "0x465b071331490402d8c39f4c69a5e7debcfa06c547fbc1baca5569ddcbf545cc",
          "transactionIndex": "0x12",
          "logIndex": "0x5",
          "removed": false
        }
      ],
      "status": "0x1",
      "logsBloom": "0x00000000000000000000000000000000000000010000002000000000800000000200000000000000000000000000000000000000040000010000000000000000000000000000000000000008000000000000000001000020000000000000000000000080000000000000000000000000000000000000000000000010000000000000000400000000400000000000000002000100000200000000000000000000000000000400000000000000000002000000000000000000008000000000000000000002002000000000008000000000000000000000000000000000000000000080000000000000004000000000000000000000000000000000000000000000",
      "type": "0x2",
      "effectiveGasPrice": "0xb2d584d1"
    }
  ],
  "libraries": [],
  "pending": [],
  "returns": {},
  "timestamp": 1713138751,
  "chain": 11155111,
  "commit": "fb7f7f6"
}