{
  "transactions": [
    {
      "hash": "0x3c62737c875f99fe30f30a8551d91cb1c3897852d3f4e45ec0989d38cce5de79",
      "transactionType": "CALL",
      "contractName": null,
      "contractAddress": "0x520A3474beAaE4AC406242aa74eF6D052dE8aaED",
      "function": "approve(address,uint256)",
      "arguments": [
        "0x92d3117268Bd580a748acbEE73162834443a3A17",
        "115792089237316195423570985008687907853269984665640564039457584007913129639935"
      ],
      "transaction": {
        "type": "0x02",
        "from": "0xdfcb98d66336084326bf69a0e55ed15c2ae24008",
        "to": "0x520a3474beaae4ac406242aa74ef6d052de8aaed",
        "gas": "0x98fb",
        "value": "0x0",
        "data": "0x095ea7b300000000000000000000000092d3117268bd580a748acbee73162834443a3a17ffffffffffffffffffffffffffffffffffffffffffffffffffffffffffffffff",
        "nonce": "0x28",
        "accessList": []
      },
      "additionalContracts": [],
      "isFixedGasLimit": false
    },
    {
      "hash": "0xa532843f42c98ae55777b17aae5895952d1fca7d16c71f3d59d219e420d98ff2",
      "transactionType": "CALL",
      "contractName": null,
      "contractAddress": "0x6BCCF17873Fe200962451E6824090b847DB1ACEb",
      "function": "approve(address,uint256)",
      "arguments": [
        "0x92d3117268Bd580a748acbEE73162834443a3A17",
        "115792089237316195423570985008687907853269984665640564039457584007913129639935"
      ],
      "transaction": {
        "type": "0x02",
        "from": "0xdfcb98d66336084326bf69a0e55ed15c2ae24008",
        "to": "0x6bccf17873fe200962451e6824090b847db1aceb",
        "gas": "0x98fb",
        "value": "0x0",
        "data": "0x095ea7b300000000000000000000000092d3117268bd580a748acbee73162834443a3a17ffffffffffffffffffffffffffffffffffffffffffffffffffffffffffffffff",
        "nonce": "0x29",
        "accessList": []
      },
      "additionalContracts": [],
      "isFixedGasLimit": false
    },
    {
      "hash": "0x966e4723534c718f0c33f8dc2c239f910b074a75598e8858f5bde23d4e56790a",
      "transactionType": "CALL",
      "contractName": null,
      "contractAddress": "0x92d3117268Bd580a748acbEE73162834443a3A17",
      "function": "swap((address,address,uint24,int24,address),(bool,int256,uint160),(bool,bool,bool),bytes)",
      "arguments": [
        "(0x520A3474beAaE4AC406242aa74eF6D052dE8aaED, 0x6BCCF17873Fe200962451E6824090b847DB1ACEb, 3000, 60, 0x020951DEDa6928a0Eb297ed5e6a4132A01d800DD)",
        "(true, 100000000000000000, 7922816251426433759354395033)",
        "(true, true, false)",
        "0x"
      ],
      "transaction": {
        "type": "0x02",
        "from": "0xdfcb98d66336084326bf69a0e55ed15c2ae24008",
        "to": "0x92d3117268bd580a748acbee73162834443a3a17",
        "gas": "0x39063",
        "value": "0x0",
        "data": "0x6646135b000000000000000000000000520a3474beaae4ac406242aa74ef6d052de8aaed0000000000000000000000006bccf17873fe200962451e6824090b847db1aceb0000000000000000000000000000000000000000000000000000000000000bb8000000000000000000000000000000000000000000000000000000000000003c000000000000000000000000020951deda6928a0eb297ed5e6a4132a01d800dd0000000000000000000000000000000000000000000000000000000000000001000000000000000000000000000000000000000000000000016345785d8a0000000000000000000000000000000000000000000019999999999999999999999900000000000000000000000000000000000000000000000000000000000000010000000000000000000000000000000000000000000000000000000000000001000000000000000000000000000000000000000000000000000000000000000000000000000000000000000000000000000000000000000000000000000001800000000000000000000000000000000000000000000000000000000000000000",
        "nonce": "0x2a",
        "accessList": []
      },
      "additionalContracts": [],
      "isFixedGasLimit": false
    }
  ],
  "receipts": [
    {
      "transactionHash": "0x3c62737c875f99fe30f30a8551d91cb1c3897852d3f4e45ec0989d38cce5de79",
      "transactionIndex": "0x6",
      "blockHash": "0x96ff06627b209cd92fca7d55c7b0aa29de569d554af32ee073b90487d0ee34b8",
      "blockNumber": "0x56b783",
      "from": "0xdfcb98d66336084326Bf69a0e55Ed15c2Ae24008",
      "to": "0x520A3474beAaE4AC406242aa74eF6D052dE8aaED",
      "cumulativeGasUsed": "0x3c2d4",
      "gasUsed": "0x689b",
      "contractAddress": null,
      "logs": [
        {
          "address": "0x520A3474beAaE4AC406242aa74eF6D052dE8aaED",
          "topics": [
            "0x8c5be1e5ebec7d5bd14f71427d1e84f3dd0314c0f7b2291e5b200ac8c7c3b925",
            "0x000000000000000000000000dfcb98d66336084326bf69a0e55ed15c2ae24008",
            "0x00000000000000000000000092d3117268bd580a748acbee73162834443a3a17"
          ],
          "data": "0xffffffffffffffffffffffffffffffffffffffffffffffffffffffffffffffff",
          "blockHash": "0x96ff06627b209cd92fca7d55c7b0aa29de569d554af32ee073b90487d0ee34b8",
          "blockNumber": "0x56b783",
          "transactionHash": "0x3c62737c875f99fe30f30a8551d91cb1c3897852d3f4e45ec0989d38cce5de79",
          "transactionIndex": "0x6",
          "logIndex": "0x4",
          "removed": false
        }
      ],
      "status": "0x1",
      "logsBloom": "0x00000000000000000000000000000000000000000000002000000000000000000000000000000000000004000000000000000000000000010000000000200000000000000000000000000000000000000000000000000020000000000000000000000000000000000000000000000000000000000000000000000000000000000000000000000000000000000200000000000000000000000000000000000000020000000000000000000000000000000000000000000000000000000000000000000000000000000000008000000000000000000000000081000000000000000010000000000000000000000000000000000000000080000000000000000000",
      "type": "0x2",
      "effectiveGasPrice": "0xb3249958"
    },
    {
      "transactionHash": "0xa532843f42c98ae55777b17aae5895952d1fca7d16c71f3d59d219e420d98ff2",
      "transactionIndex": "0x7",
      "blockHash": "0x96ff06627b209cd92fca7d55c7b0aa29de569d554af32ee073b90487d0ee34b8",
      "blockNumber": "0x56b783",
      "from": "0xdfcb98d66336084326Bf69a0e55Ed15c2Ae24008",
      "to": "0x6BCCF17873Fe200962451E6824090b847DB1ACEb",
      "cumulativeGasUsed": "0x42b6f",
      "gasUsed": "0x689b",
      "contractAddress": null,
      "logs": [
        {
          "address": "0x6BCCF17873Fe200962451E6824090b847DB1ACEb",
          "topics": [
            "0x8c5be1e5ebec7d5bd14f71427d1e84f3dd0314c0f7b2291e5b200ac8c7c3b925",
            "0x000000000000000000000000dfcb98d66336084326bf69a0e55ed15c2ae24008",
            "0x00000000000000000000000092d3117268bd580a748acbee73162834443a3a17"
          ],
          "data": "0xffffffffffffffffffffffffffffffffffffffffffffffffffffffffffffffff",
          "blockHash": "0x96ff06627b209cd92fca7d55c7b0aa29de569d554af32ee073b90487d0ee34b8",
          "blockNumber": "0x56b783",
          "transactionHash": "0xa532843f42c98ae55777b17aae5895952d1fca7d16c71f3d59d219e420d98ff2",
          "transactionIndex": "0x7",
          "logIndex": "0x5",
          "removed": false
        }
      ],
      "status": "0x1",
      "logsBloom": "0x00000000000000000000000000000000000000010000002000000000800000000000000000000000000004000000000000000000000000010000000000200000000000000000000000000000000000000000000001000020000000000000000000000000000000000000000000000000000000000000000000000000000000000000000000000000000000000000000000000000000000000000000000000000020000000000000000000000000000000000000000000000000000000000000000000000000000000000008000000000000000000000000001000000000000000010000000000000000000000000000000000000000000000000000000000000",
      "type": "0x2",
      "effectiveGasPrice": "0xb3249958"
    },
    {
      "transactionHash": "0x966e4723534c718f0c33f8dc2c239f910b074a75598e8858f5bde23d4e56790a",
      "transactionIndex": "0x8",
      "blockHash": "0x96ff06627b209cd92fca7d55c7b0aa29de569d554af32ee073b90487d0ee34b8",
      "blockNumber": "0x56b783",
      "from": "0xdfcb98d66336084326Bf69a0e55Ed15c2Ae24008",
      "to": "0x92d3117268Bd580a748acbEE73162834443a3A17",
      "cumulativeGasUsed": "0x69b4a",
      "gasUsed": "0x26fdb",
      "contractAddress": null,
      "logs": [
        {
          "address": "0x33F048ADeCbBD8608436eF31a09db8001149404B",
          "topics": [
            "0x40e9cecb9f5f1f1c5b9c97dec2917b7ee92e57ba5563708daca94dd84ad7112f",
            "0xc19d0fe628f1696f2fdd39e63cbd1096d0f4ead75f7e1491e0635500c5e5bce1",
            "0x00000000000000000000000092d3117268bd580a748acbee73162834443a3a17"
          ],
          "data": "0xfffffffffffffffffffffffffffffffffffffffffffffffffe9af03ec0b142ea000000000000000000000000000000000000000000000000016345785d8a00000000000000000000000000000000000000000000ffbdc16f4e520310cb2a55cd000000000000000000000000000000000000000000001750887009330bd00000ffffffffffffffffffffffffffffffffffffffffffffffffffffffffffffffeb0000000000000000000000000000000000000000000000000000000000000bb8",
          "blockHash": "0x96ff06627b209cd92fca7d55c7b0aa29de569d554af32ee073b90487d0ee34b8",
          "blockNumber": "0x56b783",
          "transactionHash": "0x966e4723534c718f0c33f8dc2c239f910b074a75598e8858f5bde23d4e56790a",
          "transactionIndex": "0x8",
          "logIndex": "0x6",
          "removed": false
        },
        {
          "address": "0x520A3474beAaE4AC406242aa74eF6D052dE8aaED",
          "topics": [
            "0xddf252ad1be2c89b69c2b068fc378daa952ba7f163c4a11628f55a4df523b3ef",
            "0x000000000000000000000000dfcb98d66336084326bf69a0e55ed15c2ae24008",
            "0x00000000000000000000000033f048adecbbd8608436ef31a09db8001149404b"
          ],
          "data": "0x00000000000000000000000000000000000000000000000001650fc13f4ebd16",
          "blockHash": "0x96ff06627b209cd92fca7d55c7b0aa29de569d554af32ee073b90487d0ee34b8",
          "blockNumber": "0x56b783",
          "transactionHash": "0x966e4723534c718f0c33f8dc2c239f910b074a75598e8858f5bde23d4e56790a",
          "transactionIndex": "0x8",
          "logIndex": "0x7",
          "removed": false
        },
        {
          "address": "0x6BCCF17873Fe200962451E6824090b847DB1ACEb",
          "topics": [
            "0xddf252ad1be2c89b69c2b068fc378daa952ba7f163c4a11628f55a4df523b3ef",
            "0x00000000000000000000000033f048adecbbd8608436ef31a09db8001149404b",
            "0x000000000000000000000000dfcb98d66336084326bf69a0e55ed15c2ae24008"
          ],
          "data": "0x000000000000000000000000000000000000000000000000016345785d8a0000",
          "blockHash": "0x96ff06627b209cd92fca7d55c7b0aa29de569d554af32ee073b90487d0ee34b8",
          "blockNumber": "0x56b783",
          "transactionHash": "0x966e4723534c718f0c33f8dc2c239f910b074a75598e8858f5bde23d4e56790a",
          "transactionIndex": "0x8",
          "logIndex": "0x8",
          "removed": false
        }
      ],
      "status": "0x1",
      "logsBloom": "0x00000000000000000000000000000000000000010000002000000000800000000000000000000000000004000000000080000000040000010000000000000000000000000000000020000008000000004000000001000020000000000000000000000080000000000000000000000000000000000000000000000010000000000000000400000000000000000200000002000000000200000000000000000000000000000000000000000000000000000000000000000000000000000000000000000002002000000000008000000000000000000000000081000000000000000080000000000000004000000000000000000000000080000000000000000000",
      "type": "0x2",
      "effectiveGasPrice": "0xb3249958"
    }
  ],
  "libraries": [],
  "pending": [],
  "returns": {},
  "timestamp": 1712938957,
  "chain": 11155111,
  "commit": "99c23c6"
}