{
  "transactions": [
    {
      "hash": "0xb2bc71f4c8fe30ec8dec236ad4d776d872756cfb21a5eca8b6c2be28ecd0d6f9",
      "transactionType": "CALL",
      "contractName": null,
      "contractAddress": "0x6BCCF17873Fe200962451E6824090b847DB1ACEb",
      "function": "approve(address,uint256)",
      "arguments": [
        "0x92d3117268Bd580a748acbEE73162834443a3A17",
        "115792089237316195423570985008687907853269984665640564039457584007913129639935"
      ],
      "transaction": {
        "type": "0x02",
        "from": "0x0eb47ac8e643a7ea333ad36a7a2ffe9896996599",
        "to": "0x6bccf17873fe200962451e6824090b847db1aceb",
        "gas": "0x98fb",
        "value": "0x0",
        "data": "0x095ea7b300000000000000000000000092d3117268bd580a748acbee73162834443a3a17ffffffffffffffffffffffffffffffffffffffffffffffffffffffffffffffff",
        "nonce": "0x9",
        "accessList": []
      },
      "additionalContracts": [],
      "isFixedGasLimit": false
    },
    {
      "hash": "0x7cd35f5cf5d5a801a871f464148e2cf10fdf1f78867cd04892c9c27db59c1c5d",
      "transactionType": "CALL",
      "contractName": null,
      "contractAddress": "0x92d3117268Bd580a748acbEE73162834443a3A17",
      "function": "swap((address,address,uint24,int24,address),(bool,int256,uint160),(bool,bool,bool),bytes)",
      "arguments": [
        "(0x0000000000000000000000000000000000000000, 0x6BCCF17873Fe200962451E6824090b847DB1ACEb, 50000, 60, 0x020fC94ec2D962B686b84091bf44A15F6b1852a4)",
        "(true, 200000000000000000000, 429512873900)",
        "(true, true, false)",
        "0x"
      ],
      "transaction": {
        "type": "0x02",
        "from": "0x0eb47ac8e643a7ea333ad36a7a2ffe9896996599",
        "to": "0x92d3117268bd580a748acbee73162834443a3a17",
        "gas": "0x26136f",
        "value": "0x2386f26fc10000",
        "data": "0x6646135b00000000000000000000000000000000000000000000000000000000000000000000000000000000000000006bccf17873fe200962451e6824090b847db1aceb000000000000000000000000000000000000000000000000000000000000c350000000000000000000000000000000000000000000000000000000000000003c000000000000000000000000020fc94ec2d962b686b84091bf44a15f6b1852a4000000000000000000000000000000000000000000000000000000000000000100000000000000000000000000000000000000000000000ad78ebc5ac62000000000000000000000000000000000000000000000000000000000006400f657ac00000000000000000000000000000000000000000000000000000000000000010000000000000000000000000000000000000000000000000000000000000001000000000000000000000000000000000000000000000000000000000000000000000000000000000000000000000000000000000000000000000000000001800000000000000000000000000000000000000000000000000000000000000000",
        "nonce": "0xa",
        "accessList": []
      },
      "additionalContracts": [],
      "isFixedGasLimit": false
    }
  ],
  "receipts": [
    {
      "transactionHash": "0xb2bc71f4c8fe30ec8dec236ad4d776d872756cfb21a5eca8b6c2be28ecd0d6f9",
      "transactionIndex": "0x7",
      "blockHash": "0x99fb410b3ab15f938a4b58bfb4a9bacc859ae115dea7c6ddd0f490b559ce5fbe",
      "blockNumber": "0x5776b6",
      "from": "0x0eB47ac8E643a7eA333AD36a7A2ffE9896996599",
      "to": "0x6BCCF17873Fe200962451E6824090b847DB1ACEb",
      "cumulativeGasUsed": "0x4ae0b",
      "gasUsed": "0x689b",
      "contractAddress": null,
      "logs": [
        {
          "address": "0x6BCCF17873Fe200962451E6824090b847DB1ACEb",
          "topics": [
            "0x8c5be1e5ebec7d5bd14f71427d1e84f3dd0314c0f7b2291e5b200ac8c7c3b925",
            "0x0000000000000000000000000eb47ac8e643a7ea333ad36a7a2ffe9896996599",
            "0x00000000000000000000000092d3117268bd580a748acbee73162834443a3a17"
          ],
          "data": "0xffffffffffffffffffffffffffffffffffffffffffffffffffffffffffffffff",
          "blockHash": "0x99fb410b3ab15f938a4b58bfb4a9bacc859ae115dea7c6ddd0f490b559ce5fbe",
          "blockNumber": "0x5776b6",
          "transactionHash": "0xb2bc71f4c8fe30ec8dec236ad4d776d872756cfb21a5eca8b6c2be28ecd0d6f9",
          "transactionIndex": "0x7",
          "logIndex": "0x3",
          "removed": false
        }
      ],
      "status": "0x1",
      "logsBloom": "0x00000000000000000000000000000000000000010000002000000000800000000200000000000000000000000000000000000000000000010000000000200000000000000000000000000000000000000000000001000000000000000000000000000000000000000000000000000000000000000000000000000000000000000000000000000000000000000000000000000000000000000000000000000000020000000400000000000000000000000000000000000000008000000000000000000000000000000000008000000000000000000000000000000000000000000010000000000000000000000000000000000000000000000000000000000000",
      "type": "0x2",
      "effectiveGasPrice": "0xeecab0c6"
    },
    {
      "transactionHash": "0x7cd35f5cf5d5a801a871f464148e2cf10fdf1f78867cd04892c9c27db59c1c5d",
      "transactionIndex": "0x8",
      "blockHash": "0x99fb410b3ab15f938a4b58bfb4a9bacc859ae115dea7c6ddd0f490b559ce5fbe",
      "blockNumber": "0x5776b6",
      "from": "0x0eB47ac8E643a7eA333AD36a7A2ffE9896996599",
      "to": "0x92d3117268Bd580a748acbEE73162834443a3A17",
      "cumulativeGasUsed": "0x1ef582",
      "gasUsed": "0x1a4777",
      "contractAddress": null,
      "logs": [
        {
          "address": "0x33F048ADeCbBD8608436eF31a09db8001149404B",
          "topics": [
            "0x40e9cecb9f5f1f1c5b9c97dec2917b7ee92e57ba5563708daca94dd84ad7112f",
            "0x94d10feed9d86a7cd116b89d725edba66ef2b1ad9f56d2597c5247e033d0d68a",
            "0x00000000000000000000000092d3117268bd580a748acbee73162834443a3a17"
          ],
          "data": "0xfffffffffffffffffffffffffffffffffffffffffffffffffff10a722457129400000000000000000000000000000000000000000000000ad78ebc5ac620000000000000000000000000000000000000000000df9a50f40e43165167dbad970e00000000000000000000000000000000000000000000152d02c7e14af6800000000000000000000000000000000000000000000000000000000000000001a6aa000000000000000000000000000000000000000000000000000000000000c350",
          "blockHash": "0x99fb410b3ab15f938a4b58bfb4a9bacc859ae115dea7c6ddd0f490b559ce5fbe",
          "blockNumber": "0x5776b6",
          "transactionHash": "0x7cd35f5cf5d5a801a871f464148e2cf10fdf1f78867cd04892c9c27db59c1c5d",
          "transactionIndex": "0x8",
          "logIndex": "0x4",
          "removed": false
        },
        {
          "address": "0x6BCCF17873Fe200962451E6824090b847DB1ACEb",
          "topics": [
            "0xddf252ad1be2c89b69c2b068fc378daa952ba7f163c4a11628f55a4df523b3ef",
            "0x00000000000000000000000033f048adecbbd8608436ef31a09db8001149404b",
            "0x0000000000000000000000000eb47ac8e643a7ea333ad36a7a2ffe9896996599"
          ],
          "data": "0x00000000000000000000000000000000000000000000000ad78ebc5ac6200000",
          "blockHash": "0x99fb410b3ab15f938a4b58bfb4a9bacc859ae115dea7c6ddd0f490b559ce5fbe",
          "blockNumber": "0x5776b6",
          "transactionHash": "0x7cd35f5cf5d5a801a871f464148e2cf10fdf1f78867cd04892c9c27db59c1c5d",
          "transactionIndex": "0x8",
          "logIndex": "0x5",
          "removed": false
        }
      ],
      "status": "0x1",
      "logsBloom": "0x00000000000000000000000000000000000000010000002000000000800000000200000000000000002000000000000000000000040000010000000000000000000000000000000000000008000000000000000001000020000000000000000000000080000010000000000000000000000000000000000000000010000000000000000400000000000000000000000002000000000200000000000800000000000000000400000000000000000000000000000000000000008000000000000000000002002000000000008000000000000000000000000000000000000000000080000000000000004000000000000000000000000000000000000000000000",
      "type": "0x2",
      "effectiveGasPrice": "0xeecab0c6"
    }
  ],
  "libraries": [],
  "pending": [],
  "returns": {},
  "timestamp": 1713534238,
  "chain": 11155111,
  "commit": "f7ea108"
}