{
  "transactions": [
    {
      "hash": "0x98ef13285a413b83ca4d9329d36ad36eabe01ffbb84b2ae7b07200a60a141847",
      "transactionType": "CALL",
      "contractName": null,
      "contractAddress": "0x520A3474beAaE4AC406242aa74eF6D052dE8aaED",
      "function": "approve(address,uint256)",
      "arguments": [
        "0x92d3117268Bd580a748acbEE73162834443a3A17",
        "115792089237316195423570985008687907853269984665640564039457584007913129639935"
      ],
      "transaction": {
        "type": "0x02",
        "from": "0xdfcb98d66336084326bf69a0e55ed15c2ae24008",
        "to": "0x520a3474beaae4ac406242aa74ef6d052de8aaed",
        "gas": "0xfbda",
        "value": "0x0",
        "data": "0x095ea7b300000000000000000000000092d3117268bd580a748acbee73162834443a3a17ffffffffffffffffffffffffffffffffffffffffffffffffffffffffffffffff",
        "nonce": "0x18",
        "accessList": []
      },
      "additionalContracts": [],
      "isFixedGasLimit": false
    },
    {
      "hash": "0xe11e06da9828376d007c10a6d3bb18dd6d24b5e64ab082a4bdf76fe8215c5316",
      "transactionType": "CALL",
      "contractName": null,
      "contractAddress": "0x6BCCF17873Fe200962451E6824090b847DB1ACEb",
      "function": "approve(address,uint256)",
      "arguments": [
        "0x92d3117268Bd580a748acbEE73162834443a3A17",
        "115792089237316195423570985008687907853269984665640564039457584007913129639935"
      ],
      "transaction": {
        "type": "0x02",
        "from": "0xdfcb98d66336084326bf69a0e55ed15c2ae24008",
        "to": "0x6bccf17873fe200962451e6824090b847db1aceb",
        "gas": "0xfbda",
        "value": "0x0",
        "data": "0x095ea7b300000000000000000000000092d3117268bd580a748acbee73162834443a3a17ffffffffffffffffffffffffffffffffffffffffffffffffffffffffffffffff",
        "nonce": "0x19",
        "accessList": []
      },
      "additionalContracts": [],
      "isFixedGasLimit": false
    },
    {
      "hash": "0xecc680eda729e432f04b6955ede7b9f581de9be2d2ffaebc910797810a2ce3b4",
      "transactionType": "CALL",
      "contractName": null,
      "contractAddress": "0x92d3117268Bd580a748acbEE73162834443a3A17",
      "function": "swap((address,address,uint24,int24,address),(bool,int256,uint160),(bool,bool,bool),bytes)",
      "arguments": [
        "(0x520A3474beAaE4AC406242aa74eF6D052dE8aaED, 0x6BCCF17873Fe200962451E6824090b847DB1ACEb, 3000, 60, 0x020951DEDa6928a0Eb297ed5e6a4132A01d800DD)",
        "(true, 100000000000000000, 7922816251426433759354395033)",
        "(true, true, false)",
        "0x"
      ],
      "transaction": {
        "type": "0x02",
        "from": "0xdfcb98d66336084326bf69a0e55ed15c2ae24008",
        "to": "0x92d3117268bd580a748acbee73162834443a3a17",
        "gas": "0x43a11",
        "value": "0x0",
        "data": "0x6646135b000000000000000000000000520a3474beaae4ac406242aa74ef6d052de8aaed0000000000000000000000006bccf17873fe200962451e6824090b847db1aceb0000000000000000000000000000000000000000000000000000000000000bb8000000000000000000000000000000000000000000000000000000000000003c000000000000000000000000020951deda6928a0eb297ed5e6a4132a01d800dd0000000000000000000000000000000000000000000000000000000000000001000000000000000000000000000000000000000000000000016345785d8a0000000000000000000000000000000000000000000019999999999999999999999900000000000000000000000000000000000000000000000000000000000000010000000000000000000000000000000000000000000000000000000000000001000000000000000000000000000000000000000000000000000000000000000000000000000000000000000000000000000000000000000000000000000001800000000000000000000000000000000000000000000000000000000000000000",
        "nonce": "0x1a",
        "accessList": []
      },
      "additionalContracts": [],
      "isFixedGasLimit": false
    }
  ],
  "receipts": [
    {
      "transactionHash": "0x98ef13285a413b83ca4d9329d36ad36eabe01ffbb84b2ae7b07200a60a141847",
      "transactionIndex": "0x20",
      "blockHash": "0x6b343ce56764c9cc29a7f98c72ff7e771d0940288f50de49539163f01a8c46ad",
      "blockNumber": "0x56aefc",
      "from": "0xdfcb98d66336084326Bf69a0e55Ed15c2Ae24008",
      "to": "0x520A3474beAaE4AC406242aa74eF6D052dE8aaED",
      "cumulativeGasUsed": "0xde4672",
      "gasUsed": "0xb657",
      "contractAddress": null,
      "logs": [
        {
          "address": "0x520A3474beAaE4AC406242aa74eF6D052dE8aaED",
          "topics": [
            "0x8c5be1e5ebec7d5bd14f71427d1e84f3dd0314c0f7b2291e5b200ac8c7c3b925",
            "0x000000000000000000000000dfcb98d66336084326bf69a0e55ed15c2ae24008",
            "0x00000000000000000000000092d3117268bd580a748acbee73162834443a3a17"
          ],
          "data": "0xffffffffffffffffffffffffffffffffffffffffffffffffffffffffffffffff",
          "blockHash": "0x6b343ce56764c9cc29a7f98c72ff7e771d0940288f50de49539163f01a8c46ad",
          "blockNumber": "0x56aefc",
          "transactionHash": "0x98ef13285a413b83ca4d9329d36ad36eabe01ffbb84b2ae7b07200a60a141847",
          "transactionIndex": "0x20",
          "logIndex": "0x54",
          "removed": false
        }
      ],
      "status": "0x1",
      "logsBloom": "0x00000000000000000000000000000000000000000000002000000000000000000000000000000000000004000000000000000000000000010000000000200000000000000000000000000000000000000000000000000020000000000000000000000000000000000000000000000000000000000000000000000000000000000000000000000000000000000200000000000000000000000000000000000000020000000000000000000000000000000000000000000000000000000000000000000000000000000000008000000000000000000000000081000000000000000010000000000000000000000000000000000000000080000000000000000000",
      "type": "0x2",
      "effectiveGasPrice": "0xe68cbb8d"
    },
    {
      "transactionHash": "0xe11e06da9828376d007c10a6d3bb18dd6d24b5e64ab082a4bdf76fe8215c5316",
      "transactionIndex": "0x21",
      "blockHash": "0x6b343ce56764c9cc29a7f98c72ff7e771d0940288f50de49539163f01a8c46ad",
      "blockNumber": "0x56aefc",
      "from": "0xdfcb98d66336084326Bf69a0e55Ed15c2Ae24008",
      "to": "0x6BCCF17873Fe200962451E6824090b847DB1ACEb",
      "cumulativeGasUsed": "0xdefcc9",
      "gasUsed": "0xb657",
      "contractAddress": null,
      "logs": [
        {
          "address": "0x6BCCF17873Fe200962451E6824090b847DB1ACEb",
          "topics": [
            "0x8c5be1e5ebec7d5bd14f71427d1e84f3dd0314c0f7b2291e5b200ac8c7c3b925",
            "0x000000000000000000000000dfcb98d66336084326bf69a0e55ed15c2ae24008",
            "0x00000000000000000000000092d3117268bd580a748acbee73162834443a3a17"
          ],
          "data": "0xffffffffffffffffffffffffffffffffffffffffffffffffffffffffffffffff",
          "blockHash": "0x6b343ce56764c9cc29a7f98c72ff7e771d0940288f50de49539163f01a8c46ad",
          "blockNumber": "0x56aefc",
          "transactionHash": "0xe11e06da9828376d007c10a6d3bb18dd6d24b5e64ab082a4bdf76fe8215c5316",
          "transactionIndex": "0x21",
          "logIndex": "0x55",
          "removed": false
        }
      ],
      "status": "0x1",
      "logsBloom": "0x00000000000000000000000000000000000000010000002000000000800000000000000000000000000004000000000000000000000000010000000000200000000000000000000000000000000000000000000001000020000000000000000000000000000000000000000000000000000000000000000000000000000000000000000000000000000000000000000000000000000000000000000000000000020000000000000000000000000000000000000000000000000000000000000000000000000000000000008000000000000000000000000001000000000000000010000000000000000000000000000000000000000000000000000000000000",
      "type": "0x2",
      "effectiveGasPrice": "0xe68cbb8d"
    },
    {
      "transactionHash": "0xecc680eda729e432f04b6955ede7b9f581de9be2d2ffaebc910797810a2ce3b4",
      "transactionIndex": "0x22",
      "blockHash": "0x6b343ce56764c9cc29a7f98c72ff7e771d0940288f50de49539163f01a8c46ad",
      "blockNumber": "0x56aefc",
      "from": "0xdfcb98d66336084326Bf69a0e55Ed15c2Ae24008",
      "to": "0x92d3117268Bd580a748acbEE73162834443a3A17",
      "cumulativeGasUsed": "0xe20c2f",
      "gasUsed": "0x30f66",
      "contractAddress": null,
      "logs": [
        {
          "address": "0x33F048ADeCbBD8608436eF31a09db8001149404B",
          "topics": [
            "0x40e9cecb9f5f1f1c5b9c97dec2917b7ee92e57ba5563708daca94dd84ad7112f",
            "0xc19d0fe628f1696f2fdd39e63cbd1096d0f4ead75f7e1491e0635500c5e5bce1",
            "0x00000000000000000000000092d3117268bd580a748acbee73162834443a3a17"
          ],
          "data": "0xfffffffffffffffffffffffffffffffffffffffffffffffffe9b4d8bc35edfc1000000000000000000000000000000000000000000000000016345785d8a00000000000000000000000000000000000000000000ffbe76c8b4395810624dd2f10000000000000000000000000000000000000000000000056bc75e2d63100000ffffffffffffffffffffffffffffffffffffffffffffffffffffffffffffffeb0000000000000000000000000000000000000000000000000000000000000bb8",
          "blockHash": "0x6b343ce56764c9cc29a7f98c72ff7e771d0940288f50de49539163f01a8c46ad",
          "blockNumber": "0x56aefc",
          "transactionHash": "0xecc680eda729e432f04b6955ede7b9f581de9be2d2ffaebc910797810a2ce3b4",
          "transactionIndex": "0x22",
          "logIndex": "0x56",
          "removed": false
        },
        {
          "address": "0x520A3474beAaE4AC406242aa74eF6D052dE8aaED",
          "topics": [
            "0xddf252ad1be2c89b69c2b068fc378daa952ba7f163c4a11628f55a4df523b3ef",
            "0x000000000000000000000000dfcb98d66336084326bf69a0e55ed15c2ae24008",
            "0x00000000000000000000000033f048adecbbd8608436ef31a09db8001149404b"
          ],
          "data": "0x0000000000000000000000000000000000000000000000000164b2743ca1203f",
          "blockHash": "0x6b343ce56764c9cc29a7f98c72ff7e771d0940288f50de49539163f01a8c46ad",
          "blockNumber": "0x56aefc",
          "transactionHash": "0xecc680eda729e432f04b6955ede7b9f581de9be2d2ffaebc910797810a2ce3b4",
          "transactionIndex": "0x22",
          "logIndex": "0x57",
          "removed": false
        },
        {
          "address": "0x6BCCF17873Fe200962451E6824090b847DB1ACEb",
          "topics": [
            "0xddf252ad1be2c89b69c2b068fc378daa952ba7f163c4a11628f55a4df523b3ef",
            "0x00000000000000000000000033f048adecbbd8608436ef31a09db8001149404b",
            "0x000000000000000000000000dfcb98d66336084326bf69a0e55ed15c2ae24008"
          ],
          "data": "0x000000000000000000000000000000000000000000000000016345785d8a0000",
          "blockHash": "0x6b343ce56764c9cc29a7f98c72ff7e771d0940288f50de49539163f01a8c46ad",
          "blockNumber": "0x56aefc",
          "transactionHash": "0xecc680eda729e432f04b6955ede7b9f581de9be2d2ffaebc910797810a2ce3b4",
          "transactionIndex": "0x22",
          "logIndex": "0x58",
          "removed": false
        }
      ],
      "status": "0x1",
      "logsBloom": "0x00000000000000000000000000000000000000010000002000000000800000000000000000000000000004000000000080000000040000010000000000000000000000000000000020000008000000004000000001000020000000000000000000000080000000000000000000000000000000000000000000000010000000000000000400000000000000000200000002000000000200000000000000000000000000000000000000000000000000000000000000000000000000000000000000000002002000000000008000000000000000000000000081000000000000000080000000000000004000000000000000000000000080000000000000000000",
      "type": "0x2",
      "effectiveGasPrice": "0xe68cbb8d"
    }
  ],
  "libraries": [],
  "pending": [],
  "returns": {},
  "timestamp": 1712912704,
  "chain": 11155111,
  "commit": "2215beb"
}