{
  "transactions": [
    {
      "hash": "0x8e1f82612daed19e90c1e76d040356e4768798e3ff96db7ade0e49e966b77a03",
      "transactionType": "CALL",
      "contractName": null,
      "contractAddress": "0x6BCCF17873Fe200962451E6824090b847DB1ACEb",
      "function": "approve(address,uint256)",
      "arguments": [
        "0x92d3117268Bd580a748acbEE73162834443a3A17",
        "115792089237316195423570985008687907853269984665640564039457584007913129639935"
      ],
      "transaction": {
        "type": "0x02",
        "from": "0xdfcb98d66336084326bf69a0e55ed15c2ae24008",
        "to": "0x6bccf17873fe200962451e6824090b847db1aceb",
        "gas": "0x98fb",
        "value": "0x0",
        "data": "0x095ea7b300000000000000000000000092d3117268bd580a748acbee73162834443a3a17ffffffffffffffffffffffffffffffffffffffffffffffffffffffffffffffff",
        "nonce": "0x43e",
        "accessList": []
      },
      "additionalContracts": [],
      "isFixedGasLimit": false
    },
    {
      "hash": "0xe132c10507ecc0d10ab75db84a48d041fcb31b700d693b145386267dea6c93de",
      "transactionType": "CALL",
      "contractName": null,
      "contractAddress": "0x92d3117268Bd580a748acbEE73162834443a3A17",
      "function": "swap((address,address,uint24,int24,address),(bool,int256,uint160),(bool,bool,bool),bytes)",
      "arguments": [
        "(0x0000000000000000000000000000000000000000, 0x6BCCF17873Fe200962451E6824090b847DB1ACEb, 50000, 60, 0x020fC94ec2D962B686b84091bf44A15F6b1852a4)",
        "(true, 200000000000000000000, 429512873900)",
        "(true, true, false)",
        "0x"
      ],
      "transaction": {
        "type": "0x02",
        "from": "0xdfcb98d66336084326bf69a0e55ed15c2ae24008",
        "to": "0x92d3117268bd580a748acbee73162834443a3a17",
        "gas": "0x4484f",
        "value": "0x2386f26fc10000",
        "data": "0x6646135b00000000000000000000000000000000000000000000000000000000000000000000000000000000000000006bccf17873fe200962451e6824090b847db1aceb000000000000000000000000000000000000000000000000000000000000c350000000000000000000000000000000000000000000000000000000000000003c000000000000000000000000020fc94ec2d962b686b84091bf44a15f6b1852a4000000000000000000000000000000000000000000000000000000000000000100000000000000000000000000000000000000000000000ad78ebc5ac62000000000000000000000000000000000000000000000000000000000006400f657ac00000000000000000000000000000000000000000000000000000000000000010000000000000000000000000000000000000000000000000000000000000001000000000000000000000000000000000000000000000000000000000000000000000000000000000000000000000000000000000000000000000000000001800000000000000000000000000000000000000000000000000000000000000000",
        "nonce": "0x43f",
        "accessList": []
      },
      "additionalContracts": [],
      "isFixedGasLimit": false
    }
  ],
  "receipts": [
    {
      "transactionHash": "0x8e1f82612daed19e90c1e76d040356e4768798e3ff96db7ade0e49e966b77a03",
      "transactionIndex": "0xa",
      "blockHash": "0xc40e14a70c5ea5db3ea6a73bebdad447e1585c74ca6e32149fc78bfc493d32fc",
      "blockNumber": "0x577172",
      "from": "0xdfcb98d66336084326Bf69a0e55Ed15c2Ae24008",
      "to": "0x6BCCF17873Fe200962451E6824090b847DB1ACEb",
      "cumulativeGasUsed": "0x58a31",
      "gasUsed": "0x689b",
      "contractAddress": null,
      "logs": [
        {
          "address": "0x6BCCF17873Fe200962451E6824090b847DB1ACEb",
          "topics": [
            "0x8c5be1e5ebec7d5bd14f71427d1e84f3dd0314c0f7b2291e5b200ac8c7c3b925",
            "0x000000000000000000000000dfcb98d66336084326bf69a0e55ed15c2ae24008",
            "0x00000000000000000000000092d3117268bd580a748acbee73162834443a3a17"
          ],
          "data": "0xffffffffffffffffffffffffffffffffffffffffffffffffffffffffffffffff",
          "blockHash": "0xc40e14a70c5ea5db3ea6a73bebdad447e1585c74ca6e32149fc78bfc493d32fc",
          "blockNumber": "0x577172",
          "transactionHash": "0x8e1f82612daed19e90c1e76d040356e4768798e3ff96db7ade0e49e966b77a03",
          "transactionIndex": "0xa",
          "logIndex": "0x4",
          "removed": false
        }
      ],
      "status": "0x1",
      "logsBloom": "0x00000000000000000000000000000000000000010000002000000000800000000000000000000000000004000000000000000000000000010000000000200000000000000000000000000000000000000000000001000020000000000000000000000000000000000000000000000000000000000000000000000000000000000000000000000000000000000000000000000000000000000000000000000000020000000000000000000000000000000000000000000000000000000000000000000000000000000000008000000000000000000000000001000000000000000010000000000000000000000000000000000000000000000000000000000000",
      "type": "0x2",
      "effectiveGasPrice": "0xb2f2a1e9"
    },
    {
      "transactionHash": "0xe132c10507ecc0d10ab75db84a48d041fcb31b700d693b145386267dea6c93de",
      "transactionIndex": "0xb",
      "blockHash": "0xc40e14a70c5ea5db3ea6a73bebdad447e1585c74ca6e32149fc78bfc493d32fc",
      "blockNumber": "0x577172",
      "from": "0xdfcb98d66336084326Bf69a0e55Ed15c2Ae24008",
      "to": "0x92d3117268Bd580a748acbEE73162834443a3A17",
      "cumulativeGasUsed": "0x8a3e7",
      "gasUsed": "0x319b6",
      "contractAddress": null,
      "logs": [
        {
          "address": "0x33F048ADeCbBD8608436eF31a09db8001149404B",
          "topics": [
            "0x40e9cecb9f5f1f1c5b9c97dec2917b7ee92e57ba5563708daca94dd84ad7112f",
            "0x94d10feed9d86a7cd116b89d725edba66ef2b1ad9f56d2597c5247e033d0d68a",
            "0x00000000000000000000000092d3117268bd580a748acbee73162834443a3a17"
          ],
          "data": "0xfffffffffffffffffffffffffffffffffffffffffffffffffff10a83ade4b83400000000000000000000000000000000000000000000000ad78ebc5ac620000000000000000000000000000000000000000000df9ad4067cdaa3a1471711f12b00000000000000000000000000000000000000000000152d02c7e14af6800000000000000000000000000000000000000000000000000000000000000001a6ab000000000000000000000000000000000000000000000000000000000000c350",
          "blockHash": "0xc40e14a70c5ea5db3ea6a73bebdad447e1585c74ca6e32149fc78bfc493d32fc",
          "blockNumber": "0x577172",
          "transactionHash": "0xe132c10507ecc0d10ab75db84a48d041fcb31b700d693b145386267dea6c93de",
          "transactionIndex": "0xb",
          "logIndex": "0x5",
          "removed": false
        },
        {
          "address": "0x6BCCF17873Fe200962451E6824090b847DB1ACEb",
          "topics": [
            "0xddf252ad1be2c89b69c2b068fc378daa952ba7f163c4a11628f55a4df523b3ef",
            "0x00000000000000000000000033f048adecbbd8608436ef31a09db8001149404b",
            "0x000000000000000000000000dfcb98d66336084326bf69a0e55ed15c2ae24008"
          ],
          "data": "0x00000000000000000000000000000000000000000000000ad78ebc5ac6200000",
          "blockHash": "0xc40e14a70c5ea5db3ea6a73bebdad447e1585c74ca6e32149fc78bfc493d32fc",
          "blockNumber": "0x577172",
          "transactionHash": "0xe132c10507ecc0d10ab75db84a48d041fcb31b700d693b145386267dea6c93de",
          "transactionIndex": "0xb",
          "logIndex": "0x6",
          "removed": false
        }
      ],
      "status": "0x1",
      "logsBloom": "0x00000000000000000000000000000000000000010000002000000000800000000000000000000000002004000000000000000000040000010000000000000000000000000000000000000008000000000000000001000020000000000000000000000080000010000000000000000000000000000000000000000010000000000000000400000000000000000000000002000000000200000000000800000000000000000000000000000000000000000000000000000000000000000000000000000002002000000000008000000000000000000000000001000000000000000080000000000000004000000000000000000000000000000000000000000000",
      "type": "0x2",
      "effectiveGasPrice": "0xb2f2a1e9"
    }
  ],
  "libraries": [],
  "pending": [],
  "returns": {},
  "timestamp": 1713517589,
  "chain": 11155111,
  "commit": "08ed467"
}