{
  "transactions": [
    {
      "hash": "0x8cb5f345b3872f85827e2a0c3425d069f0f25f263996e254013c60b21fc75134",
      "transactionType": "CALL",
      "contractName": null,
      "contractAddress": "0x6BCCF17873Fe200962451E6824090b847DB1ACEb",
      "function": "approve(address,uint256)",
      "arguments": [
        "0x92d3117268Bd580a748acbEE73162834443a3A17",
        "115792089237316195423570985008687907853269984665640564039457584007913129639935"
      ],
      "transaction": {
        "type": "0x02",
        "from": "0xdfcb98d66336084326bf69a0e55ed15c2ae24008",
        "to": "0x6bccf17873fe200962451e6824090b847db1aceb",
        "gas": "0x98fb",
        "value": "0x0",
        "data": "0x095ea7b300000000000000000000000092d3117268bd580a748acbee73162834443a3a17ffffffffffffffffffffffffffffffffffffffffffffffffffffffffffffffff",
        "nonce": "0x42",
        "accessList": []
      },
      "additionalContracts": [],
      "isFixedGasLimit": false
    },
    {
      "hash": "0x906ca64b974385c762af284f7653893741a68c48e6f45f08ded8647347e4fefd",
      "transactionType": "CALL",
      "contractName": null,
      "contractAddress": "0x92d3117268Bd580a748acbEE73162834443a3A17",
      "function": "swap((address,address,uint24,int24,address),(bool,int256,uint160),(bool,bool,bool),bytes)",
      "arguments": [
        "(0x0000000000000000000000000000000000000000, 0x6BCCF17873Fe200962451E6824090b847DB1ACEb, 50000, 60, 0x020951DEDa6928a0Eb297ed5e6a4132A01d800DD)",
        "(true, 10000000000000000, 17715778550986650090239814974724)",
        "(true, true, false)",
        "0x"
      ],
      "transaction": {
        "type": "0x02",
        "from": "0xdfcb98d66336084326bf69a0e55ed15c2ae24008",
        "to": "0x92d3117268bd580a748acbee73162834443a3a17",
        "gas": "0x39afa",
        "value": "0x38d7ea4c68000",
        "data": "0x6646135b00000000000000000000000000000000000000000000000000000000000000000000000000000000000000006bccf17873fe200962451e6824090b847db1aceb000000000000000000000000000000000000000000000000000000000000c350000000000000000000000000000000000000000000000000000000000000003c000000000000000000000000020951deda6928a0eb297ed5e6a4132a01d800dd0000000000000000000000000000000000000000000000000000000000000001000000000000000000000000000000000000000000000000002386f26fc1000000000000000000000000000000000000000000df9ac48dbc97655d857d06bd0400000000000000000000000000000000000000000000000000000000000000010000000000000000000000000000000000000000000000000000000000000001000000000000000000000000000000000000000000000000000000000000000000000000000000000000000000000000000000000000000000000000000001800000000000000000000000000000000000000000000000000000000000000000",
        "nonce": "0x43",
        "accessList": []
      },
      "additionalContracts": [],
      "isFixedGasLimit": false
    }
  ],
  "receipts": [
    {
      "transactionHash": "0x8cb5f345b3872f85827e2a0c3425d069f0f25f263996e254013c60b21fc75134",
      "transactionIndex": "0x14",
      "blockHash": "0x3dd3b01a84ad46440b15fc19d2a1c9bcf965e766400e09eb8dcf60554a47b15f",
      "blockNumber": "0x56c778",
      "from": "0xdfcb98d66336084326Bf69a0e55Ed15c2Ae24008",
      "to": "0x6BCCF17873Fe200962451E6824090b847DB1ACEb",
      "cumulativeGasUsed": "0x849a1",
      "gasUsed": "0x689b",
      "contractAddress": null,
      "logs": [
        {
          "address": "0x6BCCF17873Fe200962451E6824090b847DB1ACEb",
          "topics": [
            "0x8c5be1e5ebec7d5bd14f71427d1e84f3dd0314c0f7b2291e5b200ac8c7c3b925",
            "0x000000000000000000000000dfcb98d66336084326bf69a0e55ed15c2ae24008",
            "0x00000000000000000000000092d3117268bd580a748acbee73162834443a3a17"
          ],
          "data": "0xffffffffffffffffffffffffffffffffffffffffffffffffffffffffffffffff",
          "blockHash": "0x3dd3b01a84ad46440b15fc19d2a1c9bcf965e766400e09eb8dcf60554a47b15f",
          "blockNumber": "0x56c778",
          "transactionHash": "0x8cb5f345b3872f85827e2a0c3425d069f0f25f263996e254013c60b21fc75134",
          "transactionIndex": "0x14",
          "logIndex": "0x3",
          "removed": false
        }
      ],
      "status": "0x1",
      "logsBloom": "0x00000000000000000000000000000000000000010000002000000000800000000000000000000000000004000000000000000000000000010000000000200000000000000000000000000000000000000000000001000020000000000000000000000000000000000000000000000000000000000000000000000000000000000000000000000000000000000000000000000000000000000000000000000000020000000000000000000000000000000000000000000000000000000000000000000000000000000000008000000000000000000000000001000000000000000010000000000000000000000000000000000000000000000000000000000000",
      "type": "0x2",
      "effectiveGasPrice": "0xb2d85005"
    },
    {
      "transactionHash": "0x906ca64b974385c762af284f7653893741a68c48e6f45f08ded8647347e4fefd",
      "transactionIndex": "0x16",
      "blockHash": "0x3dd3b01a84ad46440b15fc19d2a1c9bcf965e766400e09eb8dcf60554a47b15f",
      "blockNumber": "0x56c778",
      "from": "0xdfcb98d66336084326Bf69a0e55Ed15c2Ae24008",
      "to": "0x92d3117268Bd580a748acbEE73162834443a3A17",
      "cumulativeGasUsed": "0xc45f4",
      "gasUsed": "0x27719",
      "contractAddress": null,
      "logs": [
        {
          "address": "0x33F048ADeCbBD8608436eF31a09db8001149404B",
          "topics": [
            "0x40e9cecb9f5f1f1c5b9c97dec2917b7ee92e57ba5563708daca94dd84ad7112f",
            "0x7ced32bb334fce258f46bb89341c3f4288c22b961bc4eebdb9f3b2bc7da6f2a9",
            "0x00000000000000000000000092d3117268bd580a748acbee73162834443a3a17"
          ],
          "data": "0xffffffffffffffffffffffffffffffffffffffffffffffffffffffcefba75a93000000000000000000000000000000000000000000000000002386f26fc1000000000000000000000000000000000000000000df9b57173df307455b5df0d2cd00000000000000000000000000000000000000000000152d02c7e14af6800000000000000000000000000000000000000000000000000000000000000001a6ab000000000000000000000000000000000000000000000000000000000000c350",
          "blockHash": "0x3dd3b01a84ad46440b15fc19d2a1c9bcf965e766400e09eb8dcf60554a47b15f",
          "blockNumber": "0x56c778",
          "transactionHash": "0x906ca64b974385c762af284f7653893741a68c48e6f45f08ded8647347e4fefd",
          "transactionIndex": "0x16",
          "logIndex": "0x5",
          "removed": false
        },
        {
          "address": "0x6BCCF17873Fe200962451E6824090b847DB1ACEb",
          "topics": [
            "0xddf252ad1be2c89b69c2b068fc378daa952ba7f163c4a11628f55a4df523b3ef",
            "0x00000000000000000000000033f048adecbbd8608436ef31a09db8001149404b",
            "0x000000000000000000000000dfcb98d66336084326bf69a0e55ed15c2ae24008"
          ],
          "data": "0x000000000000000000000000000000000000000000000000002386f26fc10000",
          "blockHash": "0x3dd3b01a84ad46440b15fc19d2a1c9bcf965e766400e09eb8dcf60554a47b15f",
          "blockNumber": "0x56c778",
          "transactionHash": "0x906ca64b974385c762af284f7653893741a68c48e6f45f08ded8647347e4fefd",
          "transactionIndex": "0x16",
          "logIndex": "0x6",
          "removed": false
        }
      ],
      "status": "0x1",
      "logsBloom": "0x00000000000000000000000000000000000000010000002000000000800000000000000000000000000004000000000000000000040000010000000000000000000000000000000000000008000000000000000001000020000000000000000000000080000000000000000000000000000000000000000000000010000000000000000400000000400000000000000002000100000200000000000000000000000000000000000000000000000002000000000000000000000000000000000000000002002000000000008000000000000000000000000001000000000000000080000000000000004000000000000000000000000000000000000000000000",
      "type": "0x2",
      "effectiveGasPrice": "0xb2d85005"
    }
  ],
  "libraries": [],
  "pending": [],
  "returns": {},
  "timestamp": 1712988149,
  "chain": 11155111,
  "commit": "f5f595e"
}