{
  "transactions": [
    {
      "hash": "0x1f2bb0b066c379d62a0bab41f06037a48d0525250d5d8cdd701c74d28ffc8689",
      "transactionType": "CALL",
      "contractName": null,
      "contractAddress": "0x6BCCF17873Fe200962451E6824090b847DB1ACEb",
      "function": "approve(address,uint256)",
      "arguments": [
        "0x49e9cC8160410a9D8Be588f2fC9F7642e4e6E995",
        "115792089237316195423570985008687907853269984665640564039457584007913129639935"
      ],
      "transaction": {
        "type": "0x02",
        "from": "0xdfcb98d66336084326bf69a0e55ed15c2ae24008",
        "to": "0x6bccf17873fe200962451e6824090b847db1aceb",
        "gas": "0x98fb",
        "value": "0x0",
        "data": "0x095ea7b300000000000000000000000049e9cc8160410a9d8be588f2fc9f7642e4e6e995ffffffffffffffffffffffffffffffffffffffffffffffffffffffffffffffff",
        "nonce": "0x7d",
        "accessList": []
      },
      "additionalContracts": [],
      "isFixedGasLimit": false
    },
    {
      "hash": "0xa5bc2d648711daca5823107d58d30cb51e812b45f6b3ad351cd33902da52eca7",
      "transactionType": "CALL",
      "contractName": null,
      "contractAddress": "0x49e9cC8160410a9D8Be588f2fC9F7642e4e6E995",
      "function": "modifyLiquidity((address,address,uint24,int24,address),(int24,int24,int256),bytes)",
      "arguments": [
        "(0x0000000000000000000000000000000000000000, 0x6BCCF17873Fe200962451E6824090b847DB1ACEb, 50000, 60, 0x0204604aEF0B2225E273b07010ed7Fb72b2B7CcF)",
        "(108180, 108240, 100000000000000000000000)",
        "0x"
      ],
      "transaction": {
        "type": "0x02",
        "from": "0xdfcb98d66336084326bf69a0e55ed15c2ae24008",
        "to": "0x49e9cc8160410a9d8be588f2fc9f7642e4e6e995",
        "gas": "0x530bc",
        "value": "0xde0b6b3a7640000",
        "data": "0xbec999dd00000000000000000000000000000000000000000000000000000000000000000000000000000000000000006bccf17873fe200962451e6824090b847db1aceb000000000000000000000000000000000000000000000000000000000000c350000000000000000000000000000000000000000000000000000000000000003c0000000000000000000000000204604aef0b2225e273b07010ed7fb72b2b7ccf000000000000000000000000000000000000000000000000000000000001a694000000000000000000000000000000000000000000000000000000000001a6d000000000000000000000000000000000000000000000152d02c7e14af680000000000000000000000000000000000000000000000000000000000000000001200000000000000000000000000000000000000000000000000000000000000000",
        "nonce": "0x7e",
        "accessList": []
      },
      "additionalContracts": [],
      "isFixedGasLimit": false
    }
  ],
  "receipts": [
    {
      "transactionHash": "0x1f2bb0b066c379d62a0bab41f06037a48d0525250d5d8cdd701c74d28ffc8689",
      "transactionIndex": "0x1d",
      "blockHash": "0xabf70ac443775aee51d0e613b69f8661e37eb6571e1aeb7df8ae4cfc19d60991",
      "blockNumber": "0x57437c",
      "from": "0xdfcb98d66336084326Bf69a0e55Ed15c2Ae24008",
      "to": "0x6BCCF17873Fe200962451E6824090b847DB1ACEb",
      "cumulativeGasUsed": "0x274b16",
      "gasUsed": "0x689b",
      "contractAddress": null,
      "logs": [
        {
          "address": "0x6BCCF17873Fe200962451E6824090b847DB1ACEb",
          "topics": [
            "0x8c5be1e5ebec7d5bd14f71427d1e84f3dd0314c0f7b2291e5b200ac8c7c3b925",
            "0x000000000000000000000000dfcb98d66336084326bf69a0e55ed15c2ae24008",
            "0x00000000000000000000000049e9cc8160410a9d8be588f2fc9f7642e4e6e995"
          ],
          "data": "0xffffffffffffffffffffffffffffffffffffffffffffffffffffffffffffffff",
          "blockHash": "0xabf70ac443775aee51d0e613b69f8661e37eb6571e1aeb7df8ae4cfc19d60991",
          "blockNumber": "0x57437c",
          "transactionHash": "0x1f2bb0b066c379d62a0bab41f06037a48d0525250d5d8cdd701c74d28ffc8689",
          "transactionIndex": "0x1d",
          "logIndex": "0xb",
          "removed": false
        }
      ],
      "status": "0x1",
      "logsBloom": "0x00000000000000000000000000000000000000010000000000000000800000000000000000000000000004000000000000000000000000000000000000200000000000000000000000000000000000000000000001000020000000000000000000000000000000000000000000000000000000000000000000000000000000000000000000000000000000000000000040000000000000000000000000000000020000000000000000040000000000000000000000000000000000000000000000000100000000000000000000000000000000000000000001000000000000000010000000000000000000000000000000000000000000000000000000000000",
      "type": "0x2",
      "effectiveGasPrice": "0xc631c3fe"
    },
    {
      "transactionHash": "0xa5bc2d648711daca5823107d58d30cb51e812b45f6b3ad351cd33902da52eca7",
      "transactionIndex": "0x1e",
      "blockHash": "0xabf70ac443775aee51d0e613b69f8661e37eb6571e1aeb7df8ae4cfc19d60991",
      "blockNumber": "0x57437c",
      "from": "0xdfcb98d66336084326Bf69a0e55Ed15c2Ae24008",
      "to": "0x49e9cC8160410a9D8Be588f2fC9F7642e4e6E995",
      "cumulativeGasUsed": "0x2ad7a0",
      "gasUsed": "0x38c8a",
      "contractAddress": null,
      "logs": [
        {
          "address": "0x33F048ADeCbBD8608436eF31a09db8001149404B",
          "topics": [
            "0x541c041c2cce48e614b3de043c9280f06b6164c0a1741649e2de3c3d375f7974",
            "0x5e4b79b92422a1806164d7ac457c1d35a9bdd4d0eafbcc5317d373492d639c0b",
            "0x00000000000000000000000049e9cc8160410a9d8be588f2fc9f7642e4e6e995"
          ],
          "data": "0x000000000000000000000000000000000000000000000000000000000001a694000000000000000000000000000000000000000000000000000000000001a6d000000000000000000000000000000000000000000000152d02c7e14af6800000",
          "blockHash": "0xabf70ac443775aee51d0e613b69f8661e37eb6571e1aeb7df8ae4cfc19d60991",
          "blockNumber": "0x57437c",
          "transactionHash": "0xa5bc2d648711daca5823107d58d30cb51e812b45f6b3ad351cd33902da52eca7",
          "transactionIndex": "0x1e",
          "logIndex": "0xc",
          "removed": false
        },
        {
          "address": "0x6BCCF17873Fe200962451E6824090b847DB1ACEb",
          "topics": [
            "0xddf252ad1be2c89b69c2b068fc378daa952ba7f163c4a11628f55a4df523b3ef",
            "0x000000000000000000000000dfcb98d66336084326bf69a0e55ed15c2ae24008",
            "0x00000000000000000000000033f048adecbbd8608436ef31a09db8001149404b"
          ],
          "data": "0x00000000000000000000000000000000000000000000057ccac3c99752ecc6bb",
          "blockHash": "0xabf70ac443775aee51d0e613b69f8661e37eb6571e1aeb7df8ae4cfc19d60991",
          "blockNumber": "0x57437c",
          "transactionHash": "0xa5bc2d648711daca5823107d58d30cb51e812b45f6b3ad351cd33902da52eca7",
          "transactionIndex": "0x1e",
          "logIndex": "0xd",
          "removed": false
        }
      ],
      "status": "0x1",
      "logsBloom": "0x00000000100100000000000000000000000000010000000000000000800000000000000000000000000004000000000000000000000000000000000000000000000000000000000000000008000000000000000001000020000000000000000010000080000000000000000000000000000000000000000000800010000000000000000400020000000000000000000042000000000200000000000000000000000000000000000000040000000000000000000000000000000000000000000000000102002000000000000000000000000000000000000001000000000000000080000000000000040000000000000000000000000000000000000000000000",
      "type": "0x2",
      "effectiveGasPrice": "0xc631c3fe"
    }
  ],
  "libraries": [],
  "pending": [],
  "returns": {},
  "timestamp": 1713370106,
  "chain": 11155111,
  "commit": "75c6c16"
}