{
  "transactions": [
    {
      "hash": "0x26e83d252a8b30c3bfaaab556d6c91e09342815f929f60be664d0d80baf635be",
      "transactionType": "CALL",
      "contractName": null,
      "contractAddress": "0x6BCCF17873Fe200962451E6824090b847DB1ACEb",
      "function": "approve(address,uint256)",
      "arguments": [
        "0x49e9cC8160410a9D8Be588f2fC9F7642e4e6E995",
        "115792089237316195423570985008687907853269984665640564039457584007913129639935"
      ],
      "transaction": {
        "type": "0x02",
        "from": "0xdfcb98d66336084326bf69a0e55ed15c2ae24008",
        "to": "0x6bccf17873fe200962451e6824090b847db1aceb",
        "gas": "0x98fb",
        "value": "0x0",
        "data": "0x095ea7b300000000000000000000000049e9cc8160410a9d8be588f2fc9f7642e4e6e995ffffffffffffffffffffffffffffffffffffffffffffffffffffffffffffffff",
        "nonce": "0x51",
        "accessList": []
      },
      "additionalContracts": [],
      "isFixedGasLimit": false
    },
    {
      "hash": "0xbecd203232f2571d53e88f93b29069659c08ad1571af7c6543ef48d2cfe2657a",
      "transactionType": "CALL",
      "contractName": null,
      "contractAddress": "0x49e9cC8160410a9D8Be588f2fC9F7642e4e6E995",
      "function": "modifyLiquidity((address,address,uint24,int24,address),(int24,int24,int256),bytes)",
      "arguments": [
        "(0x0000000000000000000000000000000000000000, 0x6BCCF17873Fe200962451E6824090b847DB1ACEb, 50000, 60, 0x0207B8639F1A628d2D81075Bfaf0a846050eE9A0)",
        "(108180, 108240, 100000000000000000000000)",
        "0x"
      ],
      "transaction": {
        "type": "0x02",
        "from": "0xdfcb98d66336084326bf69a0e55ed15c2ae24008",
        "to": "0x49e9cc8160410a9d8be588f2fc9f7642e4e6e995",
        "gas": "0x530bc",
        "value": "0xde0b6b3a7640000",
        "data": "0xbec999dd00000000000000000000000000000000000000000000000000000000000000000000000000000000000000006bccf17873fe200962451e6824090b847db1aceb000000000000000000000000000000000000000000000000000000000000c350000000000000000000000000000000000000000000000000000000000000003c0000000000000000000000000207b8639f1a628d2d81075bfaf0a846050ee9a0000000000000000000000000000000000000000000000000000000000001a694000000000000000000000000000000000000000000000000000000000001a6d000000000000000000000000000000000000000000000152d02c7e14af680000000000000000000000000000000000000000000000000000000000000000001200000000000000000000000000000000000000000000000000000000000000000",
        "nonce": "0x52",
        "accessList": []
      },
      "additionalContracts": [],
      "isFixedGasLimit": false
    }
  ],
  "receipts": [
    {
      "transactionHash": "0x26e83d252a8b30c3bfaaab556d6c91e09342815f929f60be664d0d80baf635be",
      "transactionIndex": "0x13",
      "blockHash": "0xb0f46cad5fe268406cf891902eb128d294a3770db054840eb5cb17ca82f6b806",
      "blockNumber": "0x56f8ac",
      "from": "0xdfcb98d66336084326Bf69a0e55Ed15c2Ae24008",
      "to": "0x6BCCF17873Fe200962451E6824090b847DB1ACEb",
      "cumulativeGasUsed": "0xea27c",
      "gasUsed": "0x689b",
      "contractAddress": null,
      "logs": [
        {
          "address": "0x6BCCF17873Fe200962451E6824090b847DB1ACEb",
          "topics": [
            "0x8c5be1e5ebec7d5bd14f71427d1e84f3dd0314c0f7b2291e5b200ac8c7c3b925",
            "0x000000000000000000000000dfcb98d66336084326bf69a0e55ed15c2ae24008",
            "0x00000000000000000000000049e9cc8160410a9d8be588f2fc9f7642e4e6e995"
          ],
          "data": "0xffffffffffffffffffffffffffffffffffffffffffffffffffffffffffffffff",
          "blockHash": "0xb0f46cad5fe268406cf891902eb128d294a3770db054840eb5cb17ca82f6b806",
          "blockNumber": "0x56f8ac",
          "transactionHash": "0x26e83d252a8b30c3bfaaab556d6c91e09342815f929f60be664d0d80baf635be",
          "transactionIndex": "0x13",
          "logIndex": "0x13",
          "removed": false
        }
      ],
      "status": "0x1",
      "logsBloom": "0x00000000000000000000000000000000000000010000000000000000800000000000000000000000000004000000000000000000000000000000000000200000000000000000000000000000000000000000000001000020000000000000000000000000000000000000000000000000000000000000000000000000000000000000000000000000000000000000000040000000000000000000000000000000020000000000000000040000000000000000000000000000000000000000000000000100000000000000000000000000000000000000000001000000000000000010000000000000000000000000000000000000000000000000000000000000",
      "type": "0x2",
      "effectiveGasPrice": "0xb2d72056"
    },
    {
      "transactionHash": "0xbecd203232f2571d53e88f93b29069659c08ad1571af7c6543ef48d2cfe2657a",
      "transactionIndex": "0x14",
      "blockHash": "0xb0f46cad5fe268406cf891902eb128d294a3770db054840eb5cb17ca82f6b806",
      "blockNumber": "0x56f8ac",
      "from": "0xdfcb98d66336084326Bf69a0e55Ed15c2Ae24008",
      "to": "0x49e9cC8160410a9D8Be588f2fC9F7642e4e6E995",
      "cumulativeGasUsed": "0x122f06",
      "gasUsed": "0x38c8a",
      "contractAddress": null,
      "logs": [
        {
          "address": "0x33F048ADeCbBD8608436eF31a09db8001149404B",
          "topics": [
            "0x541c041c2cce48e614b3de043c9280f06b6164c0a1741649e2de3c3d375f7974",
            "0xfe807d6a0d4a355103c5f132325c2478ef0ee46f0ff39e9aac262c4e526d17b4",
            "0x00000000000000000000000049e9cc8160410a9d8be588f2fc9f7642e4e6e995"
          ],
          "data": "0x000000000000000000000000000000000000000000000000000000000001a694000000000000000000000000000000000000000000000000000000000001a6d000000000000000000000000000000000000000000000152d02c7e14af6800000",
          "blockHash": "0xb0f46cad5fe268406cf891902eb128d294a3770db054840eb5cb17ca82f6b806",
          "blockNumber": "0x56f8ac",
          "transactionHash": "0xbecd203232f2571d53e88f93b29069659c08ad1571af7c6543ef48d2cfe2657a",
          "transactionIndex": "0x14",
          "logIndex": "0x14",
          "removed": false
        },
        {
          "address": "0x6BCCF17873Fe200962451E6824090b847DB1ACEb",
          "topics": [
            "0xddf252ad1be2c89b69c2b068fc378daa952ba7f163c4a11628f55a4df523b3ef",
            "0x000000000000000000000000dfcb98d66336084326bf69a0e55ed15c2ae24008",
            "0x00000000000000000000000033f048adecbbd8608436ef31a09db8001149404b"
          ],
          "data": "0x00000000000000000000000000000000000000000000057ccac3c99752ecc6bb",
          "blockHash": "0xb0f46cad5fe268406cf891902eb128d294a3770db054840eb5cb17ca82f6b806",
          "blockNumber": "0x56f8ac",
          "transactionHash": "0xbecd203232f2571d53e88f93b29069659c08ad1571af7c6543ef48d2cfe2657a",
          "transactionIndex": "0x14",
          "logIndex": "0x15",
          "removed": false
        }
      ],
      "status": "0x1",
      "logsBloom": "0x00000000100000000000000000000000000000010000000000000000800000000000000002000000000004000100000000000000000000000000000000000000000000000000000000000008000000000000000001000020000000000000000010000090000000000000000000000000000000000000000000000010000000000000000400000000000000000000000042000000000200000000000000000000000000000000000000040000000000000000000000000000000000000000000000000102002000000000000000000000000000000000000001000000000000000080000000000000040000000000000000000000000000000000000000000000",
      "type": "0x2",
      "effectiveGasPrice": "0xb2d72056"
    }
  ],
  "libraries": [],
  "pending": [],
  "returns": {},
  "timestamp": 1713139419,
  "chain": 11155111,
  "commit": "fb7f7f6"
}