{
  "transactions": [
    {
      "hash": "0x973b7e630efbb8b324ee3215745ef2843dd9337687298927605caf70bfdd8cd1",
      "transactionType": "CALL",
      "contractName": null,
      "contractAddress": "0x520A3474beAaE4AC406242aa74eF6D052dE8aaED",
      "function": "approve(address,uint256)",
      "arguments": [
        "0xC7f2Cf4845C6db0e1a1e91ED41Bcd0FcC1b0E141",
        "115792089237316195423570985008687907853269984665640564039457584007913129639935"
      ],
      "transaction": {
        "type": "0x02",
        "from": "0xdfcb98d66336084326bf69a0e55ed15c2ae24008",
        "to": "0x520a3474beaae4ac406242aa74ef6d052de8aaed",
        "gas": "0xfbda",
        "value": "0x0",
        "data": "0x095ea7b3000000000000000000000000c7f2cf4845c6db0e1a1e91ed41bcd0fcc1b0e141ffffffffffffffffffffffffffffffffffffffffffffffffffffffffffffffff",
        "nonce": "0x10",
        "accessList": []
      },
      "additionalContracts": [],
      "isFixedGasLimit": false
    },
    {
      "hash": "0x61bf2a7900f361a89a167e7cf248bf9c4b45732c952c4943c45e1c7ca0ce7c0b",
      "transactionType": "CALL",
      "contractName": null,
      "contractAddress": "0x6BCCF17873Fe200962451E6824090b847DB1ACEb",
      "function": "approve(address,uint256)",
      "arguments": [
        "0xC7f2Cf4845C6db0e1a1e91ED41Bcd0FcC1b0E141",
        "115792089237316195423570985008687907853269984665640564039457584007913129639935"
      ],
      "transaction": {
        "type": "0x02",
        "from": "0xdfcb98d66336084326bf69a0e55ed15c2ae24008",
        "to": "0x6bccf17873fe200962451e6824090b847db1aceb",
        "gas": "0xfbda",
        "value": "0x0",
        "data": "0x095ea7b3000000000000000000000000c7f2cf4845c6db0e1a1e91ed41bcd0fcc1b0e141ffffffffffffffffffffffffffffffffffffffffffffffffffffffffffffffff",
        "nonce": "0x11",
        "accessList": []
      },
      "additionalContracts": [],
      "isFixedGasLimit": false
    },
    {
      "hash": "0xc536c052f071520a52c2781e09a68551f4d15458dae42d58866b4bad690bc7f5",
      "transactionType": "CALL",
      "contractName": "PoolModifyLiquidityTest",
      "contractAddress": "0xC7f2Cf4845C6db0e1a1e91ED41Bcd0FcC1b0E141",
      "function": "modifyLiquidity((address,address,uint24,int24,address),(int24,int24,int256),bytes)",
      "arguments": [
        "(0x520A3474beAaE4AC406242aa74eF6D052dE8aaED, 0x6BCCF17873Fe200962451E6824090b847DB1ACEb, 3000, 60, 0x020951DEDa6928a0Eb297ed5e6a4132A01d800DD)",
        "(-120, 120, 100000000000000000000)",
        "0x"
      ],
      "transaction": {
        "type": "0x02",
        "from": "0xdfcb98d66336084326bf69a0e55ed15c2ae24008",
        "to": "0xc7f2cf4845c6db0e1a1e91ed41bcd0fcc1b0e141",
        "gas": "0x7f49",
        "value": "0x0",
        "data": "0xbec999dd000000000000000000000000520a3474beaae4ac406242aa74ef6d052de8aaed0000000000000000000000006bccf17873fe200962451e6824090b847db1aceb0000000000000000000000000000000000000000000000000000000000000bb8000000000000000000000000000000000000000000000000000000000000003c000000000000000000000000020951deda6928a0eb297ed5e6a4132a01d800ddffffffffffffffffffffffffffffffffffffffffffffffffffffffffffffff8800000000000000000000000000000000000000000000000000000000000000780000000000000000000000000000000000000000000000056bc75e2d6310000000000000000000000000000000000000000000000000000000000000000001200000000000000000000000000000000000000000000000000000000000000000",
        "nonce": "0x12",
        "accessList": []
      },
      "additionalContracts": [],
      "isFixedGasLimit": false
    }
  ],
  "receipts": [
    {
      "transactionHash": "0x973b7e630efbb8b324ee3215745ef2843dd9337687298927605caf70bfdd8cd1",
      "transactionIndex": "0x14",
      "blockHash": "0x184ebd553d48121b5267bdf9f8423c0dcc3097aee1a357a283ecb0542c954508",
      "blockNumber": "0x569b2a",
      "from": "0xdfcb98d66336084326Bf69a0e55Ed15c2Ae24008",
      "to": "0x520A3474beAaE4AC406242aa74eF6D052dE8aaED",
      "cumulativeGasUsed": "0x85229",
      "gasUsed": "0xb657",
      "contractAddress": null,
      "logs": [
        {
          "address": "0x520A3474beAaE4AC406242aa74eF6D052dE8aaED",
          "topics": [
            "0x8c5be1e5ebec7d5bd14f71427d1e84f3dd0314c0f7b2291e5b200ac8c7c3b925",
            "0x000000000000000000000000dfcb98d66336084326bf69a0e55ed15c2ae24008",
            "0x000000000000000000000000c7f2cf4845c6db0e1a1e91ed41bcd0fcc1b0e141"
          ],
          "data": "0xffffffffffffffffffffffffffffffffffffffffffffffffffffffffffffffff",
          "blockHash": "0x184ebd553d48121b5267bdf9f8423c0dcc3097aee1a357a283ecb0542c954508",
          "blockNumber": "0x569b2a",
          "transactionHash": "0x973b7e630efbb8b324ee3215745ef2843dd9337687298927605caf70bfdd8cd1",
          "transactionIndex": "0x14",
          "logIndex": "0x1",
          "removed": false
        }
      ],
      "status": "0x1",
      "logsBloom": "0x00000000000000000000000000000000000000000000000000000000000000000000000000000000000004000000000000000000000000000000040000200000000000000000000000000000000000000000000000000020000000000000000000000000000000000000000000000000000000000000000000000000000000000000000000000000000000000200000000000000000000000000000000000000020000000000000010000000000000000000000000000000000000000000000000000000000000000000000000000000000000000000000081000000000000000010000000000000000000000000000000000000000080200000000000000000",
      "type": "0x2",
      "effectiveGasPrice": "0xc94f7907"
    },
    {
      "transactionHash": "0x61bf2a7900f361a89a167e7cf248bf9c4b45732c952c4943c45e1c7ca0ce7c0b",
      "transactionIndex": "0x15",
      "blockHash": "0x184ebd553d48121b5267bdf9f8423c0dcc3097aee1a357a283ecb0542c954508",
      "blockNumber": "0x569b2a",
      "from": "0xdfcb98d66336084326Bf69a0e55Ed15c2Ae24008",
      "to": "0x6BCCF17873Fe200962451E6824090b847DB1ACEb",
      "cumulativeGasUsed": "0x90880",
      "gasUsed": "0xb657",
      "contractAddress": null,
      "logs": [
        {
          "address": "0x6BCCF17873Fe200962451E6824090b847DB1ACEb",
          "topics": [
            "0x8c5be1e5ebec7d5bd14f71427d1e84f3dd0314c0f7b2291e5b200ac8c7c3b925",
            "0x000000000000000000000000dfcb98d66336084326bf69a0e55ed15c2ae24008",
            "0x000000000000000000000000c7f2cf4845c6db0e1a1e91ed41bcd0fcc1b0e141"
          ],
          "data": "0xffffffffffffffffffffffffffffffffffffffffffffffffffffffffffffffff",
          "blockHash": "0x184ebd553d48121b5267bdf9f8423c0dcc3097aee1a357a283ecb0542c954508",
          "blockNumber": "0x569b2a",
          "transactionHash": "0x61bf2a7900f361a89a167e7cf248bf9c4b45732c952c4943c45e1c7ca0ce7c0b",
          "transactionIndex": "0x15",
          "logIndex": "0x2",
          "removed": false
        }
      ],
      "status": "0x1",
      "logsBloom": "0x00000000000000000000000000000000000000010000000000000000800000000000000000000000000004000000000000000000000000000000040000200000000000000000000000000000000000000000000001000020000000000000000000000000000000000000000000000000000000000000000000000000000000000000000000000000000000000000000000000000000000000000000000000000020000000000000010000000000000000000000000000000000000000000000000000000000000000000000000000000000000000000000001000000000000000010000000000000000000000000000000000000000000200000000000000000",
      "type": "0x2",
      "effectiveGasPrice": "0xc94f7907"
    },
    {
      "transactionHash": "0xc536c052f071520a52c2781e09a68551f4d15458dae42d58866b4bad690bc7f5",
      "transactionIndex": "0x16",
      "blockHash": "0x184ebd553d48121b5267bdf9f8423c0dcc3097aee1a357a283ecb0542c954508",
      "blockNumber": "0x569b2a",
      "from": "0xdfcb98d66336084326Bf69a0e55Ed15c2Ae24008",
      "to": "0xC7f2Cf4845C6db0e1a1e91ED41Bcd0FcC1b0E141",
      "cumulativeGasUsed": "0x964a8",
      "gasUsed": "0x5c28",
      "contractAddress": null,
      "logs": [],
      "status": "0x1",
      "logsBloom": "0x00000000000000000000000000000000000000000000000000000000000000000000000000000000000000000000000000000000000000000000000000000000000000000000000000000000000000000000000000000000000000000000000000000000000000000000000000000000000000000000000000000000000000000000000000000000000000000000000000000000000000000000000000000000000000000000000000000000000000000000000000000000000000000000000000000000000000000000000000000000000000000000000000000000000000000000000000000000000000000000000000000000000000000000000000000000",
      "type": "0x2",
      "effectiveGasPrice": "0xc94f7907"
    }
  ],
  "libraries": [],
  "pending": [],
  "returns": {},
  "timestamp": 1712849929,
  "chain": 11155111,
  "commit": "e939b4d"
}