{
  "transactions": [
    {
      "hash": "0x935e239f98ade5959af4b96e25fcfe5b9049c39d3619661f9c52208fd3571b92",
      "transactionType": "CALL",
      "contractName": null,
      "contractAddress": "0x6BCCF17873Fe200962451E6824090b847DB1ACEb",
      "function": "approve(address,uint256)",
      "arguments": [
        "0x49e9cC8160410a9D8Be588f2fC9F7642e4e6E995",
        "115792089237316195423570985008687907853269984665640564039457584007913129639935"
      ],
      "transaction": {
        "type": "0x02",
        "from": "0xdfcb98d66336084326bf69a0e55ed15c2ae24008",
        "to": "0x6bccf17873fe200962451e6824090b847db1aceb",
        "gas": "0x98fb",
        "value": "0x0",
        "data": "0x095ea7b300000000000000000000000049e9cc8160410a9d8be588f2fc9f7642e4e6e995ffffffffffffffffffffffffffffffffffffffffffffffffffffffffffffffff",
        "nonce": "0x37",
        "accessList": []
      },
      "additionalContracts": [],
      "isFixedGasLimit": false
    },
    {
      "hash": "0x2c6282624d6ac8ecc1f5daeed11863dc957ba33f5ae66773c39ac8bcdf1d4059",
      "transactionType": "CALL",
      "contractName": null,
      "contractAddress": "0x49e9cC8160410a9D8Be588f2fC9F7642e4e6E995",
      "function": "modifyLiquidity((address,address,uint24,int24,address),(int24,int24,int256),bytes)",
      "arguments": [
        "(0x0000000000000000000000000000000000000000, 0x6BCCF17873Fe200962451E6824090b847DB1ACEb, 3000, 60, 0x020951DEDa6928a0Eb297ed5e6a4132A01d800DD)",
        "(-120, 120, 100000000000000000000000000)",
        "0x"
      ],
      "transaction": {
        "type": "0x02",
        "from": "0xdfcb98d66336084326bf69a0e55ed15c2ae24008",
        "to": "0x49e9cc8160410a9d8be588f2fc9f7642e4e6e995",
        "gas": "0x2856b",
        "value": "0x2386f26fc10000",
        "data": "0xbec999dd00000000000000000000000000000000000000000000000000000000000000000000000000000000000000006bccf17873fe200962451e6824090b847db1aceb0000000000000000000000000000000000000000000000000000000000000bb8000000000000000000000000000000000000000000000000000000000000003c000000000000000000000000020951deda6928a0eb297ed5e6a4132a01d800ddffffffffffffffffffffffffffffffffffffffffffffffffffffffffffffff88000000000000000000000000000000000000000000000000000000000000007800000000000000000000000000000000000000000052b7d2dcc80cd2e400000000000000000000000000000000000000000000000000000000000000000001200000000000000000000000000000000000000000000000000000000000000000",
        "nonce": "0x38",
        "accessList": []
      },
      "additionalContracts": [],
      "isFixedGasLimit": false
    }
  ],
  "receipts": [
    {
      "transactionHash": "0x935e239f98ade5959af4b96e25fcfe5b9049c39d3619661f9c52208fd3571b92",
      "transactionIndex": "0x10",
      "blockHash": "0xb50c1510fe7e1ea0bcaf202852d37dcc2bbd96fb5f400c448eabc7be3d25bc41",
      "blockNumber": "0x56c686",
      "from": "0xdfcb98d66336084326Bf69a0e55Ed15c2Ae24008",
      "to": "0x6BCCF17873Fe200962451E6824090b847DB1ACEb",
      "cumulativeGasUsed": "0x6b4bc",
      "gasUsed": "0x689b",
      "contractAddress": null,
      "logs": [
        {
          "address": "0x6BCCF17873Fe200962451E6824090b847DB1ACEb",
          "topics": [
            "0x8c5be1e5ebec7d5bd14f71427d1e84f3dd0314c0f7b2291e5b200ac8c7c3b925",
            "0x000000000000000000000000dfcb98d66336084326bf69a0e55ed15c2ae24008",
            "0x00000000000000000000000049e9cc8160410a9d8be588f2fc9f7642e4e6e995"
          ],
          "data": "0xffffffffffffffffffffffffffffffffffffffffffffffffffffffffffffffff",
          "blockHash": "0xb50c1510fe7e1ea0bcaf202852d37dcc2bbd96fb5f400c448eabc7be3d25bc41",
          "blockNumber": "0x56c686",
          "transactionHash": "0x935e239f98ade5959af4b96e25fcfe5b9049c39d3619661f9c52208fd3571b92",
          "transactionIndex": "0x10",
          "logIndex": "0x4",
          "removed": false
        }
      ],
      "status": "0x1",
      "logsBloom": "0x00000000000000000000000000000000000000010000000000000000800000000000000000000000000004000000000000000000000000000000000000200000000000000000000000000000000000000000000001000020000000000000000000000000000000000000000000000000000000000000000000000000000000000000000000000000000000000000000040000000000000000000000000000000020000000000000000040000000000000000000000000000000000000000000000000100000000000000000000000000000000000000000001000000000000000010000000000000000000000000000000000000000000000000000000000000",
      "type": "0x2",
      "effectiveGasPrice": "0xb2d67026"
    },
    {
      "transactionHash": "0x2c6282624d6ac8ecc1f5daeed11863dc957ba33f5ae66773c39ac8bcdf1d4059",
      "transactionIndex": "0x11",
      "blockHash": "0xb50c1510fe7e1ea0bcaf202852d37dcc2bbd96fb5f400c448eabc7be3d25bc41",
      "blockNumber": "0x56c686",
      "from": "0xdfcb98d66336084326Bf69a0e55Ed15c2Ae24008",
      "to": "0x49e9cC8160410a9D8Be588f2fC9F7642e4e6E995",
      "cumulativeGasUsed": "0x88802",
      "gasUsed": "0x1d346",
      "contractAddress": null,
      "logs": [
        {
          "address": "0x33F048ADeCbBD8608436eF31a09db8001149404B",
          "topics": [
            "0x541c041c2cce48e614b3de043c9280f06b6164c0a1741649e2de3c3d375f7974",
            "0xa0ba6756f3893d86d51c2f28d29ca4d955481e113ff4fef9608672e82a52c1ac",
            "0x00000000000000000000000049e9cc8160410a9d8be588f2fc9f7642e4e6e995"
          ],
          "data": "0xffffffffffffffffffffffffffffffffffffffffffffffffffffffffffffff88000000000000000000000000000000000000000000000000000000000000007800000000000000000000000000000000000000000052b7d2dcc80cd2e4000000",
          "blockHash": "0xb50c1510fe7e1ea0bcaf202852d37dcc2bbd96fb5f400c448eabc7be3d25bc41",
          "blockNumber": "0x56c686",
          "transactionHash": "0x2c6282624d6ac8ecc1f5daeed11863dc957ba33f5ae66773c39ac8bcdf1d4059",
          "transactionIndex": "0x11",
          "logIndex": "0x5",
          "removed": false
        },
        {
          "address": "0x6BCCF17873Fe200962451E6824090b847DB1ACEb",
          "topics": [
            "0xddf252ad1be2c89b69c2b068fc378daa952ba7f163c4a11628f55a4df523b3ef",
            "0x000000000000000000000000dfcb98d66336084326bf69a0e55ed15c2ae24008",
            "0x00000000000000000000000033f048adecbbd8608436ef31a09db8001149404b"
          ],
          "data": "0x00000000000000000000000000000000000000000000fe1944a9b29c554ede07",
          "blockHash": "0xb50c1510fe7e1ea0bcaf202852d37dcc2bbd96fb5f400c448eabc7be3d25bc41",
          "blockNumber": "0x56c686",
          "transactionHash": "0x2c6282624d6ac8ecc1f5daeed11863dc957ba33f5ae66773c39ac8bcdf1d4059",
          "transactionIndex": "0x11",
          "logIndex": "0x6",
          "removed": false
        }
      ],
      "status": "0x1",
      "logsBloom": "0x00000000100000000000000000000000000000010000000000000000800000000000000000000000000004000000000000000000000000000000000000000000000000000000000000000008000000000000000001000020000000000000000010000080000000000000000000000000000000000000000000000010000000000000000400000000000000000000000042000000000200000000000000000010000000000000000000040000000000000000000000000000000000000000000000000102002000000000000000000000000000000000080001000000000000000080000000000000040000000080000000000000000000000000000000000000",
      "type": "0x2",
      "effectiveGasPrice": "0xb2d67026"
    }
  ],
  "libraries": [],
  "pending": [],
  "returns": {},
  "timestamp": 1712985235,
  "chain": 11155111,
  "commit": "f5f595e"
}