{
  "transactions": [
    {
      "hash": "0xbb306e95dd7ac08151f7077e3b3748ee764a0f5e3dc2a87a5683ea9330ae4599",
      "transactionType": "CALL",
      "contractName": null,
      "contractAddress": "0x6BCCF17873Fe200962451E6824090b847DB1ACEb",
      "function": "approve(address,uint256)",
      "arguments": [
        "0x49e9cC8160410a9D8Be588f2fC9F7642e4e6E995",
        "115792089237316195423570985008687907853269984665640564039457584007913129639935"
      ],
      "transaction": {
        "type": "0x02",
        "from": "0xdfcb98d66336084326bf69a0e55ed15c2ae24008",
        "to": "0x6bccf17873fe200962451e6824090b847db1aceb",
        "gas": "0x98fb",
        "value": "0x0",
        "data": "0x095ea7b300000000000000000000000049e9cc8160410a9d8be588f2fc9f7642e4e6e995ffffffffffffffffffffffffffffffffffffffffffffffffffffffffffffffff",
        "nonce": "0x8f9",
        "accessList": []
      },
      "additionalContracts": [],
      "isFixedGasLimit": false
    },
    {
      "hash": "0x4ea52172075e8ff68fa8e7a3f9748418e7b17418a2e49a134e6a8b1ed419c05a",
      "transactionType": "CALL",
      "contractName": null,
      "contractAddress": "0x49e9cC8160410a9D8Be588f2fC9F7642e4e6E995",
      "function": "modifyLiquidity((address,address,uint24,int24,address),(int24,int24,int256),bytes)",
      "arguments": [
        "(0x0000000000000000000000000000000000000000, 0x6BCCF17873Fe200962451E6824090b847DB1ACEb, 50000, 60, 0x02008541A15f50Effc5DD3851881E1a6B0FB8C19)",
        "(108180, 108240, 100000000000000000000000)",
        "0x"
      ],
      "transaction": {
        "type": "0x02",
        "from": "0xdfcb98d66336084326bf69a0e55ed15c2ae24008",
        "to": "0x49e9cc8160410a9d8be588f2fc9f7642e4e6e995",
        "gas": "0x4e6d9",
        "value": "0xde0b6b3a7640000",
        "data": "0xbec999dd00000000000000000000000000000000000000000000000000000000000000000000000000000000000000006bccf17873fe200962451e6824090b847db1aceb000000000000000000000000000000000000000000000000000000000000c350000000000000000000000000000000000000000000000000000000000000003c00000000000000000000000002008541a15f50effc5dd3851881e1a6b0fb8c19000000000000000000000000000000000000000000000000000000000001a694000000000000000000000000000000000000000000000000000000000001a6d000000000000000000000000000000000000000000000152d02c7e14af680000000000000000000000000000000000000000000000000000000000000000001200000000000000000000000000000000000000000000000000000000000000000",
        "nonce": "0x8fa",
        "accessList": []
      },
      "additionalContracts": [],
      "isFixedGasLimit": false
    }
  ],
  "receipts": [
    {
      "transactionHash": "0xbb306e95dd7ac08151f7077e3b3748ee764a0f5e3dc2a87a5683ea9330ae4599",
      "transactionIndex": "0x14",
      "blockHash": "0x7d701f747b58d93de8ffed99ff500213ba8cd48e06fe410a8aaa1948c80467d0",
      "blockNumber": "0x57a861",
      "from": "0xdfcb98d66336084326Bf69a0e55Ed15c2Ae24008",
      "to": "0x6BCCF17873Fe200962451E6824090b847DB1ACEb",
      "cumulativeGasUsed": "0xf6f54",
      "gasUsed": "0x689b",
      "contractAddress": null,
      "logs": [
        {
          "address": "0x6BCCF17873Fe200962451E6824090b847DB1ACEb",
          "topics": [
            "0x8c5be1e5ebec7d5bd14f71427d1e84f3dd0314c0f7b2291e5b200ac8c7c3b925",
            "0x000000000000000000000000dfcb98d66336084326bf69a0e55ed15c2ae24008",
            "0x00000000000000000000000049e9cc8160410a9d8be588f2fc9f7642e4e6e995"
          ],
          "data": "0xffffffffffffffffffffffffffffffffffffffffffffffffffffffffffffffff",
          "blockHash": "0x7d701f747b58d93de8ffed99ff500213ba8cd48e06fe410a8aaa1948c80467d0",
          "blockNumber": "0x57a861",
          "transactionHash": "0xbb306e95dd7ac08151f7077e3b3748ee764a0f5e3dc2a87a5683ea9330ae4599",
          "transactionIndex": "0x14",
          "logIndex": "0x10",
          "removed": false
        }
      ],
      "status": "0x1",
      "logsBloom": "0x00000000000000000000000000000000000000010000000000000000800000000000000000000000000004000000000000000000000000000000000000200000000000000000000000000000000000000000000001000020000000000000000000000000000000000000000000000000000000000000000000000000000000000000000000000000000000000000000040000000000000000000000000000000020000000000000000040000000000000000000000000000000000000000000000000100000000000000000000000000000000000000000001000000000000000010000000000000000000000000000000000000000000000000000000000000",
      "type": "0x2",
      "effectiveGasPrice": "0x160513430"
    },
    {
      "transactionHash": "0x4ea52172075e8ff68fa8e7a3f9748418e7b17418a2e49a134e6a8b1ed419c05a",
      "transactionIndex": "0x15",
      "blockHash": "0x7d701f747b58d93de8ffed99ff500213ba8cd48e06fe410a8aaa1948c80467d0",
      "blockNumber": "0x57a861",
      "from": "0xdfcb98d66336084326Bf69a0e55Ed15c2Ae24008",
      "to": "0x49e9cC8160410a9D8Be588f2fC9F7642e4e6E995",
      "cumulativeGasUsed": "0x12fbd2",
      "gasUsed": "0x38c7e",
      "contractAddress": null,
      "logs": [
        {
          "address": "0x33F048ADeCbBD8608436eF31a09db8001149404B",
          "topics": [
            "0x541c041c2cce48e614b3de043c9280f06b6164c0a1741649e2de3c3d375f7974",
            "0x00e0bba97be88f44f715ebb89aa30379f06a6c7e6a3115a5a82af25f243aa5a0",
            "0x00000000000000000000000049e9cc8160410a9d8be588f2fc9f7642e4e6e995"
          ],
          "data": "0x000000000000000000000000000000000000000000000000000000000001a694000000000000000000000000000000000000000000000000000000000001a6d000000000000000000000000000000000000000000000152d02c7e14af6800000",
          "blockHash": "0x7d701f747b58d93de8ffed99ff500213ba8cd48e06fe410a8aaa1948c80467d0",
          "blockNumber": "0x57a861",
          "transactionHash": "0x4ea52172075e8ff68fa8e7a3f9748418e7b17418a2e49a134e6a8b1ed419c05a",
          "transactionIndex": "0x15",
          "logIndex": "0x11",
          "removed": false
        },
        {
          "address": "0x6BCCF17873Fe200962451E6824090b847DB1ACEb",
          "topics": [
            "0xddf252ad1be2c89b69c2b068fc378daa952ba7f163c4a11628f55a4df523b3ef",
            "0x000000000000000000000000dfcb98d66336084326bf69a0e55ed15c2ae24008",
            "0x00000000000000000000000033f048adecbbd8608436ef31a09db8001149404b"
          ],
          "data": "0x00000000000000000000000000000000000000000000057ccac3c99752ecc6bb",
          "blockHash": "0x7d701f747b58d93de8ffed99ff500213ba8cd48e06fe410a8aaa1948c80467d0",
          "blockNumber": "0x57a861",
          "transactionHash": "0x4ea52172075e8ff68fa8e7a3f9748418e7b17418a2e49a134e6a8b1ed419c05a",
          "transactionIndex": "0x15",
          "logIndex": "0x12",
          "removed": false
        }
      ],
      "status": "0x1",
      "logsBloom": "0x00000000100000000000000000000000000000010000000000000000800000000000000000000000000004000000000000000000000000000000000000000000000000000000000000000008000000000000000001000020000000000000000010000080000000000000000000000000000000000000000000000010000000000000000400000000000000000000000042000000000200000000000800000100000000000000000000040000000000000000000000000000000000000000000000000102002000000000000000000000000000000000000001000000000000008080000000000000040000000000000000000000000000000000000000000000",
      "type": "0x2",
      "effectiveGasPrice": "0x160513430"
    }
  ],
  "libraries": [],
  "pending": [],
  "returns": {},
  "timestamp": 1713688432,
  "chain": 11155111,
  "commit": "5180910"
}