{
  "transactions": [
    {
      "hash": "0x143a1a77ff9d718860450469a12589454ec3d845a6a79f54efbffb5e1913765a",
      "transactionType": "CALL",
      "contractName": null,
      "contractAddress": "0x520A3474beAaE4AC406242aa74eF6D052dE8aaED",
      "function": "approve(address,uint256)",
      "arguments": [
        "0x49e9cC8160410a9D8Be588f2fC9F7642e4e6E995",
        "115792089237316195423570985008687907853269984665640564039457584007913129639935"
      ],
      "transaction": {
        "type": "0x02",
        "from": "0xdfcb98d66336084326bf69a0e55ed15c2ae24008",
        "to": "0x520a3474beaae4ac406242aa74ef6d052de8aaed",
        "gas": "0x98fb",
        "value": "0x0",
        "data": "0x095ea7b300000000000000000000000049e9cc8160410a9d8be588f2fc9f7642e4e6e995ffffffffffffffffffffffffffffffffffffffffffffffffffffffffffffffff",
        "nonce": "0x25",
        "accessList": []
      },
      "additionalContracts": [],
      "isFixedGasLimit": false
    },
    {
      "hash": "0xc9aca6edba22f91809f9885108055b23a4a9311d4fc612e57fa51f3d040cd0a3",
      "transactionType": "CALL",
      "contractName": null,
      "contractAddress": "0x6BCCF17873Fe200962451E6824090b847DB1ACEb",
      "function": "approve(address,uint256)",
      "arguments": [
        "0x49e9cC8160410a9D8Be588f2fC9F7642e4e6E995",
        "115792089237316195423570985008687907853269984665640564039457584007913129639935"
      ],
      "transaction": {
        "type": "0x02",
        "from": "0xdfcb98d66336084326bf69a0e55ed15c2ae24008",
        "to": "0x6bccf17873fe200962451e6824090b847db1aceb",
        "gas": "0x98fb",
        "value": "0x0",
        "data": "0x095ea7b300000000000000000000000049e9cc8160410a9d8be588f2fc9f7642e4e6e995ffffffffffffffffffffffffffffffffffffffffffffffffffffffffffffffff",
        "nonce": "0x26",
        "accessList": []
      },
      "additionalContracts": [],
      "isFixedGasLimit": false
    },
    {
      "hash": "0x1e7065e33f01d29add191c8a08c84e33d53baff9cbd89cdc9d46625db747a2ea",
      "transactionType": "CALL",
      "contractName": null,
      "contractAddress": "0x49e9cC8160410a9D8Be588f2fC9F7642e4e6E995",
      "function": "modifyLiquidity((address,address,uint24,int24,address),(int24,int24,int256),bytes)",
      "arguments": [
        "(0x520A3474beAaE4AC406242aa74eF6D052dE8aaED, 0x6BCCF17873Fe200962451E6824090b847DB1ACEb, 3000, 60, 0x020951DEDa6928a0Eb297ed5e6a4132A01d800DD)",
        "(-120, 120, 100000000000000000000000)",
        "0x"
      ],
      "transaction": {
        "type": "0x02",
        "from": "0xdfcb98d66336084326bf69a0e55ed15c2ae24008",
        "to": "0x49e9cc8160410a9d8be588f2fc9f7642e4e6e995",
        "gas": "0x34918",
        "value": "0x0",
        "data": "0xbec999dd000000000000000000000000520a3474beaae4ac406242aa74ef6d052de8aaed0000000000000000000000006bccf17873fe200962451e6824090b847db1aceb0000000000000000000000000000000000000000000000000000000000000bb8000000000000000000000000000000000000000000000000000000000000003c000000000000000000000000020951deda6928a0eb297ed5e6a4132a01d800ddffffffffffffffffffffffffffffffffffffffffffffffffffffffffffffff88000000000000000000000000000000000000000000000000000000000000007800000000000000000000000000000000000000000000152d02c7e14af680000000000000000000000000000000000000000000000000000000000000000001200000000000000000000000000000000000000000000000000000000000000000",
        "nonce": "0x27",
        "accessList": []
      },
      "additionalContracts": [],
      "isFixedGasLimit": false
    }
  ],
  "receipts": [
    {
      "transactionHash": "0x143a1a77ff9d718860450469a12589454ec3d845a6a79f54efbffb5e1913765a",
      "transactionIndex": "0x18",
      "blockHash": "0x1fe87fdb80ed21122ae1fbaaa565816f38032134b79cf1dc7d291fde638b7241",
      "blockNumber": "0x56b6a6",
      "from": "0xdfcb98d66336084326Bf69a0e55Ed15c2Ae24008",
      "to": "0x520A3474beAaE4AC406242aa74eF6D052dE8aaED",
      "cumulativeGasUsed": "0xaacd9",
      "gasUsed": "0x689b",
      "contractAddress": null,
      "logs": [
        {
          "address": "0x520A3474beAaE4AC406242aa74eF6D052dE8aaED",
          "topics": [
            "0x8c5be1e5ebec7d5bd14f71427d1e84f3dd0314c0f7b2291e5b200ac8c7c3b925",
            "0x000000000000000000000000dfcb98d66336084326bf69a0e55ed15c2ae24008",
            "0x00000000000000000000000049e9cc8160410a9d8be588f2fc9f7642e4e6e995"
          ],
          "data": "0xffffffffffffffffffffffffffffffffffffffffffffffffffffffffffffffff",
          "blockHash": "0x1fe87fdb80ed21122ae1fbaaa565816f38032134b79cf1dc7d291fde638b7241",
          "blockNumber": "0x56b6a6",
          "transactionHash": "0x143a1a77ff9d718860450469a12589454ec3d845a6a79f54efbffb5e1913765a",
          "transactionIndex": "0x18",
          "logIndex": "0x5",
          "removed": false
        }
      ],
      "status": "0x1",
      "logsBloom": "0x00000000000000000000000000000000000000000000000000000000000000000000000000000000000004000000000000000000000000000000000000200000000000000000000000000000000000000000000000000020000000000000000000000000000000000000000000000000000000000000000000000000000000000000000000000000000000000200000040000000000000000000000000000000020000000000000000040000000000000000000000000000000000000000000000000100000000000000000000000000000000000000000081000000000000000010000000000000000000000000000000000000000080000000000000000000",
      "type": "0x2",
      "effectiveGasPrice": "0xb2d8b282"
    },
    {
      "transactionHash": "0xc9aca6edba22f91809f9885108055b23a4a9311d4fc612e57fa51f3d040cd0a3",
      "transactionIndex": "0x19",
      "blockHash": "0x1fe87fdb80ed21122ae1fbaaa565816f38032134b79cf1dc7d291fde638b7241",
      "blockNumber": "0x56b6a6",
      "from": "0xdfcb98d66336084326Bf69a0e55Ed15c2Ae24008",
      "to": "0x6BCCF17873Fe200962451E6824090b847DB1ACEb",
      "cumulativeGasUsed": "0xb1574",
      "gasUsed": "0x689b",
      "contractAddress": null,
      "logs": [
        {
          "address": "0x6BCCF17873Fe200962451E6824090b847DB1ACEb",
          "topics": [
            "0x8c5be1e5ebec7d5bd14f71427d1e84f3dd0314c0f7b2291e5b200ac8c7c3b925",
            "0x000000000000000000000000dfcb98d66336084326bf69a0e55ed15c2ae24008",
            "0x00000000000000000000000049e9cc8160410a9d8be588f2fc9f7642e4e6e995"
          ],
          "data": "0xffffffffffffffffffffffffffffffffffffffffffffffffffffffffffffffff",
          "blockHash": "0x1fe87fdb80ed21122ae1fbaaa565816f38032134b79cf1dc7d291fde638b7241",
          "blockNumber": "0x56b6a6",
          "transactionHash": "0xc9aca6edba22f91809f9885108055b23a4a9311d4fc612e57fa51f3d040cd0a3",
          "transactionIndex": "0x19",
          "logIndex": "0x6",
          "removed": false
        }
      ],
      "status": "0x1",
      "logsBloom": "0x00000000000000000000000000000000000000010000000000000000800000000000000000000000000004000000000000000000000000000000000000200000000000000000000000000000000000000000000001000020000000000000000000000000000000000000000000000000000000000000000000000000000000000000000000000000000000000000000040000000000000000000000000000000020000000000000000040000000000000000000000000000000000000000000000000100000000000000000000000000000000000000000001000000000000000010000000000000000000000000000000000000000000000000000000000000",
      "type": "0x2",
      "effectiveGasPrice": "0xb2d8b282"
    },
    {
      "transactionHash": "0x1e7065e33f01d29add191c8a08c84e33d53baff9cbd89cdc9d46625db747a2ea",
      "transactionIndex": "0x1a",
      "blockHash": "0x1fe87fdb80ed21122ae1fbaaa565816f38032134b79cf1dc7d291fde638b7241",
      "blockNumber": "0x56b6a6",
      "from": "0xdfcb98d66336084326Bf69a0e55Ed15c2Ae24008",
      "to": "0x49e9cC8160410a9D8Be588f2fC9F7642e4e6E995",
      "cumulativeGasUsed": "0xd7664",
      "gasUsed": "0x260f0",
      "contractAddress": null,
      "logs": [
        {
          "address": "0x33F048ADeCbBD8608436eF31a09db8001149404B",
          "topics": [
            "0x541c041c2cce48e614b3de043c9280f06b6164c0a1741649e2de3c3d375f7974",
            "0xc19d0fe628f1696f2fdd39e63cbd1096d0f4ead75f7e1491e0635500c5e5bce1",
            "0x00000000000000000000000049e9cc8160410a9d8be588f2fc9f7642e4e6e995"
          ],
          "data": "0xffffffffffffffffffffffffffffffffffffffffffffffffffffffffffffff88000000000000000000000000000000000000000000000000000000000000007800000000000000000000000000000000000000000000152d02c7e14af6800000",
          "blockHash": "0x1fe87fdb80ed21122ae1fbaaa565816f38032134b79cf1dc7d291fde638b7241",
          "blockNumber": "0x56b6a6",
          "transactionHash": "0x1e7065e33f01d29add191c8a08c84e33d53baff9cbd89cdc9d46625db747a2ea",
          "transactionIndex": "0x1a",
          "logIndex": "0x7",
          "removed": false
        },
        {
          "address": "0x520A3474beAaE4AC406242aa74eF6D052dE8aaED",
          "topics": [
            "0xddf252ad1be2c89b69c2b068fc378daa952ba7f163c4a11628f55a4df523b3ef",
            "0x000000000000000000000000dfcb98d66336084326bf69a0e55ed15c2ae24008",
            "0x00000000000000000000000033f048adecbbd8608436ef31a09db8001149404b"
          ],
          "data": "0x000000000000000000000000000000000000000000000025e842b2f4e33a345d",
          "blockHash": "0x1fe87fdb80ed21122ae1fbaaa565816f38032134b79cf1dc7d291fde638b7241",
          "blockNumber": "0x56b6a6",
          "transactionHash": "0x1e7065e33f01d29add191c8a08c84e33d53baff9cbd89cdc9d46625db747a2ea",
          "transactionIndex": "0x1a",
          "logIndex": "0x8",
          "removed": false
        },
        {
          "address": "0x6BCCF17873Fe200962451E6824090b847DB1ACEb",
          "topics": [
            "0xddf252ad1be2c89b69c2b068fc378daa952ba7f163c4a11628f55a4df523b3ef",
            "0x000000000000000000000000dfcb98d66336084326bf69a0e55ed15c2ae24008",
            "0x00000000000000000000000033f048adecbbd8608436ef31a09db8001149404b"
          ],
          "data": "0x00000000000000000000000000000000000000000000001af3cf4013ab3b1a23",
          "blockHash": "0x1fe87fdb80ed21122ae1fbaaa565816f38032134b79cf1dc7d291fde638b7241",
          "blockNumber": "0x56b6a6",
          "transactionHash": "0x1e7065e33f01d29add191c8a08c84e33d53baff9cbd89cdc9d46625db747a2ea",
          "transactionIndex": "0x1a",
          "logIndex": "0x9",
          "removed": false
        }
      ],
      "status": "0x1",
      "logsBloom": "0x00000000100000000000000000000000000000010000000000000000800000000000000000000000000004000000000080000000000000000000000000000000000000000000000020000008000000004000000001000020000000000000000010000080000000000000000000000000000000000000000000000010000000000000000400000000000000000200000042000000000200000000000000000000000000000000000000040000000000000000000000000000000000000000000000000102002000000000000000000000000000000000000081000000000000000080000000000000040000000000000000000000000080000000000000000000",
      "type": "0x2",
      "effectiveGasPrice": "0xb2d8b282"
    }
  ],
  "libraries": [],
  "pending": [],
  "returns": {},
  "timestamp": 1712936304,
  "chain": 11155111,
  "commit": "f15aed4"
}