{
  "transactions": [
    {
      "hash": "0x1555436c72f2428d465f95169722ec865b115714f3b97cc8cc04ee9518912938",
      "transactionType": "CALL",
      "contractName": null,
      "contractAddress": "0x520A3474beAaE4AC406242aa74eF6D052dE8aaED",
      "function": "approve(address,uint256)",
      "arguments": [
        "0x49e9cC8160410a9D8Be588f2fC9F7642e4e6E995",
        "115792089237316195423570985008687907853269984665640564039457584007913129639935"
      ],
      "transaction": {
        "type": "0x02",
        "from": "0xdfcb98d66336084326bf69a0e55ed15c2ae24008",
        "to": "0x520a3474beaae4ac406242aa74ef6d052de8aaed",
        "gas": "0xfbda",
        "value": "0x0",
        "data": "0x095ea7b300000000000000000000000049e9cc8160410a9d8be588f2fc9f7642e4e6e995ffffffffffffffffffffffffffffffffffffffffffffffffffffffffffffffff",
        "nonce": "0x15",
        "accessList": []
      },
      "additionalContracts": [],
      "isFixedGasLimit": false
    },
    {
      "hash": "0x239c26a263ea5d07c46ec806497a998a7db0d0b07b4be50162af2785ebb6ec18",
      "transactionType": "CALL",
      "contractName": null,
      "contractAddress": "0x6BCCF17873Fe200962451E6824090b847DB1ACEb",
      "function": "approve(address,uint256)",
      "arguments": [
        "0x49e9cC8160410a9D8Be588f2fC9F7642e4e6E995",
        "115792089237316195423570985008687907853269984665640564039457584007913129639935"
      ],
      "transaction": {
        "type": "0x02",
        "from": "0xdfcb98d66336084326bf69a0e55ed15c2ae24008",
        "to": "0x6bccf17873fe200962451e6824090b847db1aceb",
        "gas": "0xfbda",
        "value": "0x0",
        "data": "0x095ea7b300000000000000000000000049e9cc8160410a9d8be588f2fc9f7642e4e6e995ffffffffffffffffffffffffffffffffffffffffffffffffffffffffffffffff",
        "nonce": "0x16",
        "accessList": []
      },
      "additionalContracts": [],
      "isFixedGasLimit": false
    },
    {
      "hash": "0x0c85ef61ba23430c4afeee994c66d67141f69a0d1cfa739e046a43df4f6c1e6c",
      "transactionType": "CALL",
      "contractName": null,
      "contractAddress": "0x49e9cC8160410a9D8Be588f2fC9F7642e4e6E995",
      "function": "modifyLiquidity((address,address,uint24,int24,address),(int24,int24,int256),bytes)",
      "arguments": [
        "(0x520A3474beAaE4AC406242aa74eF6D052dE8aaED, 0x6BCCF17873Fe200962451E6824090b847DB1ACEb, 3000, 60, 0x020951DEDa6928a0Eb297ed5e6a4132A01d800DD)",
        "(-120, 120, 100000000000000000000)",
        "0x"
      ],
      "transaction": {
        "type": "0x02",
        "from": "0xdfcb98d66336084326bf69a0e55ed15c2ae24008",
        "to": "0x49e9cc8160410a9d8be588f2fc9f7642e4e6e995",
        "gas": "0x71211",
        "value": "0x0",
        "data": "0xbec999dd000000000000000000000000520a3474beaae4ac406242aa74ef6d052de8aaed0000000000000000000000006bccf17873fe200962451e6824090b847db1aceb0000000000000000000000000000000000000000000000000000000000000bb8000000000000000000000000000000000000000000000000000000000000003c000000000000000000000000020951deda6928a0eb297ed5e6a4132a01d800ddffffffffffffffffffffffffffffffffffffffffffffffffffffffffffffff8800000000000000000000000000000000000000000000000000000000000000780000000000000000000000000000000000000000000000056bc75e2d6310000000000000000000000000000000000000000000000000000000000000000001200000000000000000000000000000000000000000000000000000000000000000",
        "nonce": "0x17",
        "accessList": []
      },
      "additionalContracts": [],
      "isFixedGasLimit": false
    }
  ],
  "receipts": [
    {
      "transactionHash": "0x1555436c72f2428d465f95169722ec865b115714f3b97cc8cc04ee9518912938",
      "transactionIndex": "0x1a",
      "blockHash": "0xe836dbc2efc8197c81411ee9466853e2bbc2255c456b582417d9d3e036400825",
      "blockNumber": "0x56aedc",
      "from": "0xdfcb98d66336084326Bf69a0e55Ed15c2Ae24008",
      "to": "0x520A3474beAaE4AC406242aa74eF6D052dE8aaED",
      "cumulativeGasUsed": "0xb8137",
      "gasUsed": "0xb657",
      "contractAddress": null,
      "logs": [
        {
          "address": "0x520A3474beAaE4AC406242aa74eF6D052dE8aaED",
          "topics": [
            "0x8c5be1e5ebec7d5bd14f71427d1e84f3dd0314c0f7b2291e5b200ac8c7c3b925",
            "0x000000000000000000000000dfcb98d66336084326bf69a0e55ed15c2ae24008",
            "0x00000000000000000000000049e9cc8160410a9d8be588f2fc9f7642e4e6e995"
          ],
          "data": "0xffffffffffffffffffffffffffffffffffffffffffffffffffffffffffffffff",
          "blockHash": "0xe836dbc2efc8197c81411ee9466853e2bbc2255c456b582417d9d3e036400825",
          "blockNumber": "0x56aedc",
          "transactionHash": "0x1555436c72f2428d465f95169722ec865b115714f3b97cc8cc04ee9518912938",
          "transactionIndex": "0x1a",
          "logIndex": "0x8",
          "removed": false
        }
      ],
      "status": "0x1",
      "logsBloom": "0x00000000000000000000000000000000000000000000000000000000000000000000000000000000000004000000000000000000000000000000000000200000000000000000000000000000000000000000000000000020000000000000000000000000000000000000000000000000000000000000000000000000000000000000000000000000000000000200000040000000000000000000000000000000020000000000000000040000000000000000000000000000000000000000000000000100000000000000000000000000000000000000000081000000000000000010000000000000000000000000000000000000000080000000000000000000",
      "type": "0x2",
      "effectiveGasPrice": "0xdf26cd2d"
    },
    {
      "transactionHash": "0x239c26a263ea5d07c46ec806497a998a7db0d0b07b4be50162af2785ebb6ec18",
      "transactionIndex": "0x1b",
      "blockHash": "0xe836dbc2efc8197c81411ee9466853e2bbc2255c456b582417d9d3e036400825",
      "blockNumber": "0x56aedc",
      "from": "0xdfcb98d66336084326Bf69a0e55Ed15c2Ae24008",
      "to": "0x6BCCF17873Fe200962451E6824090b847DB1ACEb",
      "cumulativeGasUsed": "0xc378e",
      "gasUsed": "0xb657",
      "contractAddress": null,
      "logs": [
        {
          "address": "0x6BCCF17873Fe200962451E6824090b847DB1ACEb",
          "topics": [
            "0x8c5be1e5ebec7d5bd14f71427d1e84f3dd0314c0f7b2291e5b200ac8c7c3b925",
            "0x000000000000000000000000dfcb98d66336084326bf69a0e55ed15c2ae24008",
            "0x00000000000000000000000049e9cc8160410a9d8be588f2fc9f7642e4e6e995"
          ],
          "data": "0xffffffffffffffffffffffffffffffffffffffffffffffffffffffffffffffff",
          "blockHash": "0xe836dbc2efc8197c81411ee9466853e2bbc2255c456b582417d9d3e036400825",
          "blockNumber": "0x56aedc",
          "transactionHash": "0x239c26a263ea5d07c46ec806497a998a7db0d0b07b4be50162af2785ebb6ec18",
          "transactionIndex": "0x1b",
          "logIndex": "0x9",
          "removed": false
        }
      ],
      "status": "0x1",
      "logsBloom": "0x00000000000000000000000000000000000000010000000000000000800000000000000000000000000004000000000000000000000000000000000000200000000000000000000000000000000000000000000001000020000000000000000000000000000000000000000000000000000000000000000000000000000000000000000000000000000000000000000040000000000000000000000000000000020000000000000000040000000000000000000000000000000000000000000000000100000000000000000000000000000000000000000001000000000000000010000000000000000000000000000000000000000000000000000000000000",
      "type": "0x2",
      "effectiveGasPrice": "0xdf26cd2d"
    },
    {
      "transactionHash": "0x0c85ef61ba23430c4afeee994c66d67141f69a0d1cfa739e046a43df4f6c1e6c",
      "transactionIndex": "0x1c",
      "blockHash": "0xe836dbc2efc8197c81411ee9466853e2bbc2255c456b582417d9d3e036400825",
      "blockNumber": "0x56aedc",
      "from": "0xdfcb98d66336084326Bf69a0e55Ed15c2Ae24008",
      "to": "0x49e9cC8160410a9D8Be588f2fC9F7642e4e6E995",
      "cumulativeGasUsed": "0x115603",
      "gasUsed": "0x51e75",
      "contractAddress": null,
      "logs": [
        {
          "address": "0x33F048ADeCbBD8608436eF31a09db8001149404B",
          "topics": [
            "0x541c041c2cce48e614b3de043c9280f06b6164c0a1741649e2de3c3d375f7974",
            "0xc19d0fe628f1696f2fdd39e63cbd1096d0f4ead75f7e1491e0635500c5e5bce1",
            "0x00000000000000000000000049e9cc8160410a9d8be588f2fc9f7642e4e6e995"
          ],
          "data": "0xffffffffffffffffffffffffffffffffffffffffffffffffffffffffffffff8800000000000000000000000000000000000000000000000000000000000000780000000000000000000000000000000000000000000000056bc75e2d63100000",
          "blockHash": "0xe836dbc2efc8197c81411ee9466853e2bbc2255c456b582417d9d3e036400825",
          "blockNumber": "0x56aedc",
          "transactionHash": "0x0c85ef61ba23430c4afeee994c66d67141f69a0d1cfa739e046a43df4f6c1e6c",
          "transactionIndex": "0x1c",
          "logIndex": "0xa",
          "removed": false
        },
        {
          "address": "0x520A3474beAaE4AC406242aa74eF6D052dE8aaED",
          "topics": [
            "0xddf252ad1be2c89b69c2b068fc378daa952ba7f163c4a11628f55a4df523b3ef",
            "0x000000000000000000000000dfcb98d66336084326bf69a0e55ed15c2ae24008",
            "0x00000000000000000000000033f048adecbbd8608436ef31a09db8001149404b"
          ],
          "data": "0x000000000000000000000000000000000000000000000000084d23e14b78cef4",
          "blockHash": "0xe836dbc2efc8197c81411ee9466853e2bbc2255c456b582417d9d3e036400825",
          "blockNumber": "0x56aedc",
          "transactionHash": "0x0c85ef61ba23430c4afeee994c66d67141f69a0d1cfa739e046a43df4f6c1e6c",
          "transactionIndex": "0x1c",
          "logIndex": "0xb",
          "removed": false
        },
        {
          "address": "0x6BCCF17873Fe200962451E6824090b847DB1ACEb",
          "topics": [
            "0xddf252ad1be2c89b69c2b068fc378daa952ba7f163c4a11628f55a4df523b3ef",
            "0x000000000000000000000000dfcb98d66336084326bf69a0e55ed15c2ae24008",
            "0x00000000000000000000000033f048adecbbd8608436ef31a09db8001149404b"
          ],
          "data": "0x000000000000000000000000000000000000000000000000084d23e14b78cef4",
          "blockHash": "0xe836dbc2efc8197c81411ee9466853e2bbc2255c456b582417d9d3e036400825",
          "blockNumber": "0x56aedc",
          "transactionHash": "0x0c85ef61ba23430c4afeee994c66d67141f69a0d1cfa739e046a43df4f6c1e6c",
          "transactionIndex": "0x1c",
          "logIndex": "0xc",
          "removed": false
        }
      ],
      "status": "0x1",
      "logsBloom": "0x00000000100000000000000000000000000000010000000000000000800000000000000000000000000004000000000080000000000000000000000000000000000000000000000020000008000000004000000001000020000000000000000010000080000000000000000000000000000000000000000000000010000000000000000400000000000000000200000042000000000200000000000000000000000000000000000000040000000000000000000000000000000000000000000000000102002000000000000000000000000000000000000081000000000000000080000000000000040000000000000000000000000080000000000000000000",
      "type": "0x2",
      "effectiveGasPrice": "0xdf26cd2d"
    }
  ],
  "libraries": [],
  "pending": [],
  "returns": {},
  "timestamp": 1712912322,
  "chain": 11155111,
  "commit": "2215beb"
}